{
  "contracts/RandomIpfsNFT.sol": {
    "RandomIpfsNFT": {
      "abi": [
        {
          "inputs": [
            {
              "internalType": "address",
              "name": "vrfCoordinatorV2",
              "type": "address"
            },
            {
              "internalType": "bytes32",
              "name": "gasLaneKeyHash",
              "type": "bytes32"
            },
            {
              "internalType": "uint64",
              "name": "subscriptionId",
              "type": "uint64"
            },
            {
              "internalType": "uint32",
              "name": "callbackGasLimit",
              "type": "uint32"
            },
            {
              "internalType": "string[3]",
              "name": "dogTokensUri",
              "type": "string[3]"
            }
          ],
          "stateMutability": "nonpayable",
          "type": "constructor"
        },
        {
          "inputs": [
            {
              "internalType": "address",
              "name": "have",
              "type": "address"
            },
            {
              "internalType": "address",
              "name": "want",
              "type": "address"
            }
          ],
          "name": "OnlyCoordinatorCanFulfill",
          "type": "error"
        },
        {
          "anonymous": false,
          "inputs": [
            {
              "indexed": true,
              "internalType": "address",
              "name": "owner",
              "type": "address"
            },
            {
              "indexed": true,
              "internalType": "address",
              "name": "approved",
              "type": "address"
            },
            {
              "indexed": true,
              "internalType": "uint256",
              "name": "tokenId",
              "type": "uint256"
            }
          ],
          "name": "Approval",
          "type": "event"
        },
        {
          "anonymous": false,
          "inputs": [
            {
              "indexed": true,
              "internalType": "address",
              "name": "owner",
              "type": "address"
            },
            {
              "indexed": true,
              "internalType": "address",
              "name": "operator",
              "type": "address"
            },
            {
              "indexed": false,
              "internalType": "bool",
              "name": "approved",
              "type": "bool"
            }
          ],
          "name": "ApprovalForAll",
          "type": "event"
        },
        {
          "anonymous": false,
          "inputs": [
            {
              "indexed": true,
              "internalType": "address",
              "name": "from",
              "type": "address"
            },
            {
              "indexed": true,
              "internalType": "address",
              "name": "to",
              "type": "address"
            },
            {
              "indexed": true,
              "internalType": "uint256",
              "name": "tokenId",
              "type": "uint256"
            }
          ],
          "name": "Transfer",
          "type": "event"
        },
        {
          "inputs": [
            {
              "internalType": "address",
              "name": "to",
              "type": "address"
            },
            {
              "internalType": "uint256",
              "name": "tokenId",
              "type": "uint256"
            }
          ],
          "name": "approve",
          "outputs": [],
          "stateMutability": "nonpayable",
          "type": "function"
        },
        {
          "inputs": [
            {
              "internalType": "address",
              "name": "owner",
              "type": "address"
            }
          ],
          "name": "balanceOf",
          "outputs": [
            {
              "internalType": "uint256",
              "name": "",
              "type": "uint256"
            }
          ],
          "stateMutability": "view",
          "type": "function"
        },
        {
          "inputs": [
            {
              "internalType": "uint256",
              "name": "tokenId",
              "type": "uint256"
            }
          ],
          "name": "getApproved",
          "outputs": [
            {
              "internalType": "address",
              "name": "",
              "type": "address"
            }
          ],
          "stateMutability": "view",
          "type": "function"
        },
        {
          "inputs": [
            {
              "internalType": "uint256",
              "name": "moddedRng",
              "type": "uint256"
            }
          ],
          "name": "getBreedWithModdedRng",
          "outputs": [
            {
              "internalType": "uint256",
              "name": "",
              "type": "uint256"
            }
          ],
          "stateMutability": "pure",
          "type": "function"
        },
        {
          "inputs": [],
          "name": "getChanceArray",
          "outputs": [
            {
              "internalType": "uint256[3]",
              "name": "",
              "type": "uint256[3]"
            }
          ],
          "stateMutability": "pure",
          "type": "function"
        },
        {
          "inputs": [
            {
              "internalType": "address",
              "name": "owner",
              "type": "address"
            },
            {
              "internalType": "address",
              "name": "operator",
              "type": "address"
            }
          ],
          "name": "isApprovedForAll",
          "outputs": [
            {
              "internalType": "bool",
              "name": "",
              "type": "bool"
            }
          ],
          "stateMutability": "view",
          "type": "function"
        },
        {
          "inputs": [],
          "name": "name",
          "outputs": [
            {
              "internalType": "string",
              "name": "",
              "type": "string"
            }
          ],
          "stateMutability": "view",
          "type": "function"
        },
        {
          "inputs": [
            {
              "internalType": "uint256",
              "name": "tokenId",
              "type": "uint256"
            }
          ],
          "name": "ownerOf",
          "outputs": [
            {
              "internalType": "address",
              "name": "",
              "type": "address"
            }
          ],
          "stateMutability": "view",
          "type": "function"
        },
        {
          "inputs": [
            {
              "internalType": "uint256",
              "name": "requestId",
              "type": "uint256"
            },
            {
              "internalType": "uint256[]",
              "name": "randomWords",
              "type": "uint256[]"
            }
          ],
          "name": "rawFulfillRandomWords",
          "outputs": [],
          "stateMutability": "nonpayable",
          "type": "function"
        },
        {
          "inputs": [],
          "name": "requestDoggie",
          "outputs": [
            {
              "internalType": "uint256",
              "name": "requestId",
              "type": "uint256"
            }
          ],
          "stateMutability": "nonpayable",
          "type": "function"
        },
        {
          "inputs": [
            {
              "internalType": "uint256",
              "name": "",
              "type": "uint256"
            }
          ],
          "name": "s_randomsWords",
          "outputs": [
            {
              "internalType": "uint256",
              "name": "",
              "type": "uint256"
            }
          ],
          "stateMutability": "view",
          "type": "function"
        },
        {
          "inputs": [
            {
              "internalType": "address",
              "name": "from",
              "type": "address"
            },
            {
              "internalType": "address",
              "name": "to",
              "type": "address"
            },
            {
              "internalType": "uint256",
              "name": "tokenId",
              "type": "uint256"
            }
          ],
          "name": "safeTransferFrom",
          "outputs": [],
          "stateMutability": "nonpayable",
          "type": "function"
        },
        {
          "inputs": [
            {
              "internalType": "address",
              "name": "from",
              "type": "address"
            },
            {
              "internalType": "address",
              "name": "to",
              "type": "address"
            },
            {
              "internalType": "uint256",
              "name": "tokenId",
              "type": "uint256"
            },
            {
              "internalType": "bytes",
              "name": "_data",
              "type": "bytes"
            }
          ],
          "name": "safeTransferFrom",
          "outputs": [],
          "stateMutability": "nonpayable",
          "type": "function"
        },
        {
          "inputs": [
            {
              "internalType": "address",
              "name": "operator",
              "type": "address"
            },
            {
              "internalType": "bool",
              "name": "approved",
              "type": "bool"
            }
          ],
          "name": "setApprovalForAll",
          "outputs": [],
          "stateMutability": "nonpayable",
          "type": "function"
        },
        {
          "inputs": [
            {
              "internalType": "bytes4",
              "name": "interfaceId",
              "type": "bytes4"
            }
          ],
          "name": "supportsInterface",
          "outputs": [
            {
              "internalType": "bool",
              "name": "",
              "type": "bool"
            }
          ],
          "stateMutability": "view",
          "type": "function"
        },
        {
          "inputs": [],
          "name": "symbol",
          "outputs": [
            {
              "internalType": "string",
              "name": "",
              "type": "string"
            }
          ],
          "stateMutability": "view",
          "type": "function"
        },
        {
          "inputs": [
            {
              "internalType": "uint256",
              "name": "tokenId",
              "type": "uint256"
            }
          ],
          "name": "tokenURI",
          "outputs": [
            {
              "internalType": "string",
              "name": "",
              "type": "string"
            }
          ],
          "stateMutability": "view",
          "type": "function"
        },
        {
          "inputs": [
            {
              "internalType": "address",
              "name": "from",
              "type": "address"
            },
            {
              "internalType": "address",
              "name": "to",
              "type": "address"
            },
            {
              "internalType": "uint256",
              "name": "tokenId",
              "type": "uint256"
            }
          ],
          "name": "transferFrom",
          "outputs": [],
          "stateMutability": "nonpayable",
          "type": "function"
        }
      ],
      "devdoc": {
        "kind": "dev",
        "methods": {
          "approve(address,uint256)": {
            "details": "See {IERC721-approve}."
          },
          "balanceOf(address)": {
            "details": "See {IERC721-balanceOf}."
          },
          "getApproved(uint256)": {
            "details": "See {IERC721-getApproved}."
          },
          "isApprovedForAll(address,address)": {
            "details": "See {IERC721-isApprovedForAll}."
          },
          "name()": {
            "details": "See {IERC721Metadata-name}."
          },
          "ownerOf(uint256)": {
            "details": "See {IERC721-ownerOf}."
          },
          "safeTransferFrom(address,address,uint256)": {
            "details": "See {IERC721-safeTransferFrom}."
          },
          "safeTransferFrom(address,address,uint256,bytes)": {
            "details": "See {IERC721-safeTransferFrom}."
          },
          "setApprovalForAll(address,bool)": {
            "details": "See {IERC721-setApprovalForAll}."
          },
          "supportsInterface(bytes4)": {
            "details": "See {IERC165-supportsInterface}."
          },
          "symbol()": {
            "details": "See {IERC721Metadata-symbol}."
          },
          "tokenURI(uint256)": {
            "details": "See {IERC721Metadata-tokenURI}."
          },
          "transferFrom(address,address,uint256)": {
            "details": "See {IERC721-transferFrom}."
          }
        },
        "version": 1
      },
      "evm": {
        "bytecode": {
          "linkReferences": {},
          "object": "6101206040523480156200001257600080fd5b50604051620039be380380620039be833981810160405281019062000038919062000504565b846040518060400160405280600f81526020017f52616e646f6d2049504653204e465400000000000000000000000000000000008152506040518060400160405280600381526020017f52494e00000000000000000000000000000000000000000000000000000000008152508160009080519060200190620000bd929190620001ef565b508060019080519060200190620000d6929190620001ef565b5050508073ffffffffffffffffffffffffffffffffffffffff1660808173ffffffffffffffffffffffffffffffffffffffff1660601b81525050508473ffffffffffffffffffffffffffffffffffffffff1660a08173ffffffffffffffffffffffffffffffffffffffff1660601b815250508360c081815250508267ffffffffffffffff1660e08167ffffffffffffffff1660c01b815250508163ffffffff166101008163ffffffff1660e01b8152505033600760006101000a81548173ffffffffffffffffffffffffffffffffffffffff021916908373ffffffffffffffffffffffffffffffffffffffff1602179055506000600a8190555080600b906003620001e392919062000280565b50505050505062000827565b828054620001fd90620006cb565b90600052602060002090601f0160209004810192826200022157600085556200026d565b82601f106200023c57805160ff19168380011785556200026d565b828001600101855582156200026d579182015b828111156200026c5782518255916020019190600101906200024f565b5b5090506200027c9190620002da565b5090565b8260038101928215620002c7579160200282015b82811115620002c6578251829080519060200190620002b5929190620001ef565b509160200191906001019062000294565b5b509050620002d69190620002f9565b5090565b5b80821115620002f5576000816000905550600101620002db565b5090565b5b808211156200031d576000818162000313919062000321565b50600101620002fa565b5090565b5080546200032f90620006cb565b6000825580601f1062000343575062000364565b601f016020900490600052602060002090810190620003639190620002da565b5b50565b60006200037e6200037884620005d4565b620005ab565b905080828560208602820111156200039b576200039a6200079a565b5b60005b85811015620003f057815167ffffffffffffffff811115620003c557620003c462000795565b5b808601620003d48982620004a3565b855260208501945060208401935050506001810190506200039e565b5050509392505050565b6000620004116200040b84620005fd565b620005ab565b90508281526020810184848401111562000430576200042f6200079f565b5b6200043d84828562000695565b509392505050565b6000815190506200045681620007bf565b92915050565b600082601f83011262000474576200047362000795565b5b60036200048384828562000367565b91505092915050565b6000815190506200049d81620007d9565b92915050565b600082601f830112620004bb57620004ba62000795565b5b8151620004cd848260208601620003fa565b91505092915050565b600081519050620004e781620007f3565b92915050565b600081519050620004fe816200080d565b92915050565b600080600080600060a08688031215620005235762000522620007a9565b5b6000620005338882890162000445565b955050602062000546888289016200048c565b94505060406200055988828901620004ed565b93505060606200056c88828901620004d6565b925050608086015167ffffffffffffffff81111562000590576200058f620007a4565b5b6200059e888289016200045c565b9150509295509295909350565b6000620005b7620005ca565b9050620005c5828262000701565b919050565b6000604051905090565b600067ffffffffffffffff821115620005f257620005f162000766565b5b602082029050919050565b600067ffffffffffffffff8211156200061b576200061a62000766565b5b6200062682620007ae565b9050602081019050919050565b6000620006408262000651565b9050919050565b6000819050919050565b600073ffffffffffffffffffffffffffffffffffffffff82169050919050565b600063ffffffff82169050919050565b600067ffffffffffffffff82169050919050565b60005b83811015620006b557808201518184015260208101905062000698565b83811115620006c5576000848401525b50505050565b60006002820490506001821680620006e457607f821691505b60208210811415620006fb57620006fa62000737565b5b50919050565b6200070c82620007ae565b810181811067ffffffffffffffff821117156200072e576200072d62000766565b5b80604052505050565b7f4e487b7100000000000000000000000000000000000000000000000000000000600052602260045260246000fd5b7f4e487b7100000000000000000000000000000000000000000000000000000000600052604160045260246000fd5b600080fd5b600080fd5b600080fd5b600080fd5b600080fd5b6000601f19601f8301169050919050565b620007ca8162000633565b8114620007d657600080fd5b50565b620007e48162000647565b8114620007f057600080fd5b50565b620007fe8162000671565b81146200080a57600080fd5b50565b620008188162000681565b81146200082457600080fd5b50565b60805160601c60a05160601c60c05160e05160c01c6101005160e01c61313f6200087f60003960006107e0015260006107bd0152600061079c015260006107600152600081816108cc0152610920015261313f6000f3fe608060405234801561001057600080fd5b50600436106101165760003560e01c80636352211e116100a2578063a22cb46511610071578063a22cb465146102f3578063a3ef64571461030f578063b88d4fde1461033f578063c87b56dd1461035b578063e985e9c51461038b57610116565b80636352211e1461024557806370a082311461027557806395d89b41146102a5578063a090dc31146102c357610116565b80631801cc8a116100e95780631801cc8a146101b55780631fe543e3146101d357806323b872dd146101ef57806342842e0e1461020b5780635dacf5f41461022757610116565b806301ffc9a71461011b57806306fdde031461014b578063081812fc14610169578063095ea7b314610199575b600080fd5b61013560048036038101906101309190611fa0565b6103bb565b6040516101429190612516565b60405180910390f35b61015361049d565b6040516101609190612584565b60405180910390f35b610183600480360381019061017e9190611ffa565b61052f565b604051610190919061246b565b60405180910390f35b6101b360048036038101906101ae9190611f60565b6105b4565b005b6101bd6106cc565b6040516101ca9190612786565b60405180910390f35b6101ed60048036038101906101e89190612054565b6108ca565b005b61020960048036038101906102049190611e4a565b61098a565b005b61022560048036038101906102209190611e4a565b6109ea565b005b61022f610a0a565b60405161023c91906124fb565b60405180910390f35b61025f600480360381019061025a9190611ffa565b610a35565b60405161026c919061246b565b60405180910390f35b61028f600480360381019061028a9190611ddd565b610ae7565b60405161029c9190612786565b60405180910390f35b6102ad610b9f565b6040516102ba9190612584565b60405180910390f35b6102dd60048036038101906102d89190611ffa565b610c31565b6040516102ea9190612786565b60405180910390f35b61030d60048036038101906103089190611f20565b610cd2565b005b61032960048036038101906103249190611ffa565b610ce8565b6040516103369190612786565b60405180910390f35b61035960048036038101906103549190611e9d565b610d0c565b005b61037560048036038101906103709190611ffa565b610d6e565b6040516103829190612584565b60405180910390f35b6103a560048036038101906103a09190611e0a565b610ec0565b6040516103b29190612516565b60405180910390f35b60007f80ac58cd000000000000000000000000000000000000000000000000000000007bffffffffffffffffffffffffffffffffffffffffffffffffffffffff1916827bffffffffffffffffffffffffffffffffffffffffffffffffffffffff1916148061048657507f5b5e139f000000000000000000000000000000000000000000000000000000007bffffffffffffffffffffffffffffffffffffffffffffffffffffffff1916827bffffffffffffffffffffffffffffffffffffffffffffffffffffffff1916145b80610496575061049582610f54565b5b9050919050565b6060600080546104ac90612a40565b80601f01602080910402602001604051908101604052809291908181526020018280546104d890612a40565b80156105255780601f106104fa57610100808354040283529160200191610525565b820191906000526020600020905b81548152906001019060200180831161050857829003601f168201915b5050505050905090565b600061053a82610fbe565b610579576040517f08c379a000000000000000000000000000000000000000000000000000000000815260040161057090612706565b60405180910390fd5b6004600083815260200190815260200160002060009054906101000a900473ffffffffffffffffffffffffffffffffffffffff169050919050565b60006105bf82610a35565b90508073ffffffffffffffffffffffffffffffffffffffff168373ffffffffffffffffffffffffffffffffffffffff161415610630576040517f08c379a000000000000000000000000000000000000000000000000000000000815260040161062790612746565b60405180910390fd5b8073ffffffffffffffffffffffffffffffffffffffff1661064f61102a565b73ffffffffffffffffffffffffffffffffffffffff16148061067e575061067d8161067861102a565b610ec0565b5b6106bd576040517f08c379a00000000000000000000000000000000000000000000000000000000081526004016106b490612646565b60405180910390fd5b6106c78383611032565b505050565b60003373ffffffffffffffffffffffffffffffffffffffff16600760009054906101000a900473ffffffffffffffffffffffffffffffffffffffff1673ffffffffffffffffffffffffffffffffffffffff161461075e576040517f08c379a0000000000000000000000000000000000000000000000000000000008152600401610755906126e6565b60405180910390fd5b7f000000000000000000000000000000000000000000000000000000000000000073ffffffffffffffffffffffffffffffffffffffff16635d3b1d307f00000000000000000000000000000000000000000000000000000000000000007f000000000000000000000000000000000000000000000000000000000000000060037f000000000000000000000000000000000000000000000000000000000000000060016040518663ffffffff1660e01b8152600401610821959493929190612531565b602060405180830381600087803b15801561083b57600080fd5b505af115801561084f573d6000803e3d6000fd5b505050506040513d601f19601f820116820180604052508101906108739190612027565b9050336009600083815260200190815260200160002060006101000a81548173ffffffffffffffffffffffffffffffffffffffff021916908373ffffffffffffffffffffffffffffffffffffffff16021790555090565b7f000000000000000000000000000000000000000000000000000000000000000073ffffffffffffffffffffffffffffffffffffffff163373ffffffffffffffffffffffffffffffffffffffff161461097c57337f00000000000000000000000000000000000000000000000000000000000000006040517f1cf993f4000000000000000000000000000000000000000000000000000000008152600401610973929190612486565b60405180910390fd5b61098682826110eb565b5050565b61099b61099561102a565b82611227565b6109da576040517f08c379a00000000000000000000000000000000000000000000000000000000081526004016109d190612766565b60405180910390fd5b6109e5838383611305565b505050565b610a0583838360405180602001604052806000815250610d0c565b505050565b610a12611b8c565b6040518060600160405280600a8152602001601e81526020016064815250905090565b6000806002600084815260200190815260200160002060009054906101000a900473ffffffffffffffffffffffffffffffffffffffff169050600073ffffffffffffffffffffffffffffffffffffffff168173ffffffffffffffffffffffffffffffffffffffff161415610ade576040517f08c379a0000000000000000000000000000000000000000000000000000000008152600401610ad590612686565b60405180910390fd5b80915050919050565b60008073ffffffffffffffffffffffffffffffffffffffff168273ffffffffffffffffffffffffffffffffffffffff161415610b58576040517f08c379a0000000000000000000000000000000000000000000000000000000008152600401610b4f90612666565b60405180910390fd5b600360008373ffffffffffffffffffffffffffffffffffffffff1673ffffffffffffffffffffffffffffffffffffffff168152602001908152602001600020549050919050565b606060018054610bae90612a40565b80601f0160208091040260200160405190810160405280929190818152602001828054610bda90612a40565b8015610c275780601f10610bfc57610100808354040283529160200191610c27565b820191906000526020600020905b815481529060010190602001808311610c0a57829003601f168201915b5050505050905090565b600080600090506000610c42610a0a565b905060005b6003811015610cc957828510158015610c815750818160038110610c6e57610c6d612baa565b5b602002015183610c7e9190612893565b85105b15610c9157809350505050610ccd565b818160038110610ca457610ca3612baa565b5b602002015183610cb49190612893565b92508080610cc190612aa3565b915050610c47565b5050505b919050565b610ce4610cdd61102a565b838361156c565b5050565b60088181548110610cf857600080fd5b906000526020600020016000915090505481565b610d1d610d1761102a565b83611227565b610d5c576040517f08c379a0000000000000000000000000000000000000000000000000000000008152600401610d5390612766565b60405180910390fd5b610d68848484846116d9565b50505050565b6060610d7982610fbe565b610db8576040517f08c379a0000000000000000000000000000000000000000000000000000000008152600401610daf906126c6565b60405180910390fd5b6000600660008481526020019081526020016000208054610dd890612a40565b80601f0160208091040260200160405190810160405280929190818152602001828054610e0490612a40565b8015610e515780601f10610e2657610100808354040283529160200191610e51565b820191906000526020600020905b815481529060010190602001808311610e3457829003601f168201915b505050505090506000610e62611735565b9050600081511415610e78578192505050610ebb565b600082511115610ead578082604051602001610e95929190612447565b60405160208183030381529060405292505050610ebb565b610eb68461174c565b925050505b919050565b6000600560008473ffffffffffffffffffffffffffffffffffffffff1673ffffffffffffffffffffffffffffffffffffffff16815260200190815260200160002060008373ffffffffffffffffffffffffffffffffffffffff1673ffffffffffffffffffffffffffffffffffffffff16815260200190815260200160002060009054906101000a900460ff16905092915050565b60007f01ffc9a7000000000000000000000000000000000000000000000000000000007bffffffffffffffffffffffffffffffffffffffffffffffffffffffff1916827bffffffffffffffffffffffffffffffffffffffffffffffffffffffff1916149050919050565b60008073ffffffffffffffffffffffffffffffffffffffff166002600084815260200190815260200160002060009054906101000a900473ffffffffffffffffffffffffffffffffffffffff1673ffffffffffffffffffffffffffffffffffffffff1614159050919050565b600033905090565b816004600083815260200190815260200160002060006101000a81548173ffffffffffffffffffffffffffffffffffffffff021916908373ffffffffffffffffffffffffffffffffffffffff160217905550808273ffffffffffffffffffffffffffffffffffffffff166110a583610a35565b73ffffffffffffffffffffffffffffffffffffffff167f8c5be1e5ebec7d5bd14f71427d1e84f3dd0314c0f7b2291e5b200ac8c7c3b92560405160405180910390a45050565b60006009600084815260200190815260200160002060009054906101000a900473ffffffffffffffffffffffffffffffffffffffff1690506000600a5490506001600a546111399190612893565b600a81905550600060648460008151811061115757611156612baa565b5b60200260200101516111699190612aec565b9050600061117682610c31565b905061121f83600b83600381106111905761118f612baa565b5b01805461119c90612a40565b80601f01602080910402602001604051908101604052809291908181526020018280546111c890612a40565b80156112155780601f106111ea57610100808354040283529160200191611215565b820191906000526020600020905b8154815290600101906020018083116111f857829003601f168201915b50505050506117f3565b505050505050565b600061123282610fbe565b611271576040517f08c379a000000000000000000000000000000000000000000000000000000000815260040161126890612626565b60405180910390fd5b600061127c83610a35565b90508073ffffffffffffffffffffffffffffffffffffffff168473ffffffffffffffffffffffffffffffffffffffff1614806112be57506112bd8185610ec0565b5b806112fc57508373ffffffffffffffffffffffffffffffffffffffff166112e48461052f565b73ffffffffffffffffffffffffffffffffffffffff16145b91505092915050565b8273ffffffffffffffffffffffffffffffffffffffff1661132582610a35565b73ffffffffffffffffffffffffffffffffffffffff161461137b576040517f08c379a0000000000000000000000000000000000000000000000000000000008152600401611372906125c6565b60405180910390fd5b600073ffffffffffffffffffffffffffffffffffffffff168273ffffffffffffffffffffffffffffffffffffffff1614156113eb576040517f08c379a00000000000000000000000000000000000000000000000000000000081526004016113e2906125e6565b60405180910390fd5b6113f6838383611867565b611401600082611032565b6001600360008573ffffffffffffffffffffffffffffffffffffffff1673ffffffffffffffffffffffffffffffffffffffff1681526020019081526020016000206000828254611451919061291a565b925050819055506001600360008473ffffffffffffffffffffffffffffffffffffffff1673ffffffffffffffffffffffffffffffffffffffff16815260200190815260200160002060008282546114a89190612893565b92505081905550816002600083815260200190815260200160002060006101000a81548173ffffffffffffffffffffffffffffffffffffffff021916908373ffffffffffffffffffffffffffffffffffffffff160217905550808273ffffffffffffffffffffffffffffffffffffffff168473ffffffffffffffffffffffffffffffffffffffff167fddf252ad1be2c89b69c2b068fc378daa952ba7f163c4a11628f55a4df523b3ef60405160405180910390a461156783838361186c565b505050565b8173ffffffffffffffffffffffffffffffffffffffff168373ffffffffffffffffffffffffffffffffffffffff1614156115db576040517f08c379a00000000000000000000000000000000000000000000000000000000081526004016115d290612606565b60405180910390fd5b80600560008573ffffffffffffffffffffffffffffffffffffffff1673ffffffffffffffffffffffffffffffffffffffff16815260200190815260200160002060008473ffffffffffffffffffffffffffffffffffffffff1673ffffffffffffffffffffffffffffffffffffffff16815260200190815260200160002060006101000a81548160ff0219169083151502179055508173ffffffffffffffffffffffffffffffffffffffff168373ffffffffffffffffffffffffffffffffffffffff167f17307eab39ab6107e8899845ad3d59bd9653f200f220920489ca2b5937696c31836040516116cc9190612516565b60405180910390a3505050565b6116e4848484611305565b6116f084848484611871565b61172f576040517f08c379a0000000000000000000000000000000000000000000000000000000008152600401611726906125a6565b60405180910390fd5b50505050565b606060405180602001604052806000815250905090565b606061175782610fbe565b611796576040517f08c379a000000000000000000000000000000000000000000000000000000000815260040161178d90612726565b60405180910390fd5b60006117a0611735565b905060008151116117c057604051806020016040528060008152506117eb565b806117ca84611a08565b6040516020016117db929190612447565b6040516020818303038152906040525b915050919050565b6117fc82610fbe565b61183b576040517f08c379a0000000000000000000000000000000000000000000000000000000008152600401611832906126a6565b60405180910390fd5b80600660008481526020019081526020016000209080519060200190611862929190611bae565b505050565b505050565b505050565b60006118928473ffffffffffffffffffffffffffffffffffffffff16611b69565b156119fb578373ffffffffffffffffffffffffffffffffffffffff1663150b7a026118bb61102a565b8786866040518563ffffffff1660e01b81526004016118dd94939291906124af565b602060405180830381600087803b1580156118f757600080fd5b505af192505050801561192857506040513d601f19601f820116820180604052508101906119259190611fcd565b60015b6119ab573d8060008114611958576040519150601f19603f3d011682016040523d82523d6000602084013e61195d565b606091505b506000815114156119a3576040517f08c379a000000000000000000000000000000000000000000000000000000000815260040161199a906125a6565b60405180910390fd5b805181602001fd5b63150b7a0260e01b7bffffffffffffffffffffffffffffffffffffffffffffffffffffffff1916817bffffffffffffffffffffffffffffffffffffffffffffffffffffffff191614915050611a00565b600190505b949350505050565b60606000821415611a50576040518060400160405280600181526020017f30000000000000000000000000000000000000000000000000000000000000008152509050611b64565b600082905060005b60008214611a82578080611a6b90612aa3565b915050600a82611a7b91906128e9565b9150611a58565b60008167ffffffffffffffff811115611a9e57611a9d612bd9565b5b6040519080825280601f01601f191660200182016040528015611ad05781602001600182028036833780820191505090505b5090505b60008514611b5d57600182611ae9919061291a565b9150600a85611af89190612aec565b6030611b049190612893565b60f81b818381518110611b1a57611b19612baa565b5b60200101907effffffffffffffffffffffffffffffffffffffffffffffffffffffffffffff1916908160001a905350600a85611b5691906128e9565b9450611ad4565b8093505050505b919050565b6000808273ffffffffffffffffffffffffffffffffffffffff163b119050919050565b6040518060600160405280600390602082028036833780820191505090505090565b828054611bba90612a40565b90600052602060002090601f016020900481019282611bdc5760008555611c23565b82601f10611bf557805160ff1916838001178555611c23565b82800160010185558215611c23579182015b82811115611c22578251825591602001919060010190611c07565b5b509050611c309190611c34565b5090565b5b80821115611c4d576000816000905550600101611c35565b5090565b6000611c64611c5f846127c6565b6127a1565b90508083825260208201905082856020860282011115611c8757611c86612c0d565b5b60005b85811015611cb75781611c9d8882611db3565b845260208401935060208301925050600181019050611c8a565b5050509392505050565b6000611cd4611ccf846127f2565b6127a1565b905082815260208101848484011115611cf057611cef612c12565b5b611cfb8482856129fe565b509392505050565b600081359050611d12816130ad565b92915050565b600082601f830112611d2d57611d2c612c08565b5b8135611d3d848260208601611c51565b91505092915050565b600081359050611d55816130c4565b92915050565b600081359050611d6a816130db565b92915050565b600081519050611d7f816130db565b92915050565b600082601f830112611d9a57611d99612c08565b5b8135611daa848260208601611cc1565b91505092915050565b600081359050611dc2816130f2565b92915050565b600081519050611dd7816130f2565b92915050565b600060208284031215611df357611df2612c1c565b5b6000611e0184828501611d03565b91505092915050565b60008060408385031215611e2157611e20612c1c565b5b6000611e2f85828601611d03565b9250506020611e4085828601611d03565b9150509250929050565b600080600060608486031215611e6357611e62612c1c565b5b6000611e7186828701611d03565b9350506020611e8286828701611d03565b9250506040611e9386828701611db3565b9150509250925092565b60008060008060808587031215611eb757611eb6612c1c565b5b6000611ec587828801611d03565b9450506020611ed687828801611d03565b9350506040611ee787828801611db3565b925050606085013567ffffffffffffffff811115611f0857611f07612c17565b5b611f1487828801611d85565b91505092959194509250565b60008060408385031215611f3757611f36612c1c565b5b6000611f4585828601611d03565b9250506020611f5685828601611d46565b9150509250929050565b60008060408385031215611f7757611f76612c1c565b5b6000611f8585828601611d03565b9250506020611f9685828601611db3565b9150509250929050565b600060208284031215611fb657611fb5612c1c565b5b6000611fc484828501611d5b565b91505092915050565b600060208284031215611fe357611fe2612c1c565b5b6000611ff184828501611d70565b91505092915050565b6000602082840312156120105761200f612c1c565b5b600061201e84828501611db3565b91505092915050565b60006020828403121561203d5761203c612c1c565b5b600061204b84828501611dc8565b91505092915050565b6000806040838503121561206b5761206a612c1c565b5b600061207985828601611db3565b925050602083013567ffffffffffffffff81111561209a57612099612c17565b5b6120a685828601611d18565b9150509250929050565b60006120bc838361240b565b60208301905092915050565b6120d18161294e565b82525050565b6120e08161282d565b6120ea818461285b565b92506120f582612823565b8060005b8381101561212657815161210d87826120b0565b96506121188361284e565b9250506001810190506120f9565b505050505050565b61213781612960565b82525050565b6121468161296c565b82525050565b600061215782612838565b6121618185612866565b9350612171818560208601612a0d565b61217a81612c21565b840191505092915050565b600061219082612843565b61219a8185612877565b93506121aa818560208601612a0d565b6121b381612c21565b840191505092915050565b60006121c982612843565b6121d38185612888565b93506121e3818560208601612a0d565b80840191505092915050565b60006121fc603283612877565b915061220782612c32565b604082019050919050565b600061221f602583612877565b915061222a82612c81565b604082019050919050565b6000612242602483612877565b915061224d82612cd0565b604082019050919050565b6000612265601983612877565b915061227082612d1f565b602082019050919050565b6000612288602c83612877565b915061229382612d48565b604082019050919050565b60006122ab603883612877565b91506122b682612d97565b604082019050919050565b60006122ce602a83612877565b91506122d982612de6565b604082019050919050565b60006122f1602983612877565b91506122fc82612e35565b604082019050919050565b6000612314602e83612877565b915061231f82612e84565b604082019050919050565b6000612337603183612877565b915061234282612ed3565b604082019050919050565b600061235a602483612877565b915061236582612f22565b604082019050919050565b600061237d602c83612877565b915061238882612f71565b604082019050919050565b60006123a0602f83612877565b91506123ab82612fc0565b604082019050919050565b60006123c3602183612877565b91506123ce8261300f565b604082019050919050565b60006123e6603183612877565b91506123f18261305e565b604082019050919050565b612405816129a2565b82525050565b612414816129d0565b82525050565b612423816129d0565b82525050565b612432816129da565b82525050565b612441816129ea565b82525050565b600061245382856121be565b915061245f82846121be565b91508190509392505050565b600060208201905061248060008301846120c8565b92915050565b600060408201905061249b60008301856120c8565b6124a860208301846120c8565b9392505050565b60006080820190506124c460008301876120c8565b6124d160208301866120c8565b6124de604083018561241a565b81810360608301526124f0818461214c565b905095945050505050565b600060608201905061251060008301846120d7565b92915050565b600060208201905061252b600083018461212e565b92915050565b600060a082019050612546600083018861213d565b6125536020830187612438565b61256060408301866123fc565b61256d6060830185612429565b61257a6080830184612429565b9695505050505050565b6000602082019050818103600083015261259e8184612185565b905092915050565b600060208201905081810360008301526125bf816121ef565b9050919050565b600060208201905081810360008301526125df81612212565b9050919050565b600060208201905081810360008301526125ff81612235565b9050919050565b6000602082019050818103600083015261261f81612258565b9050919050565b6000602082019050818103600083015261263f8161227b565b9050919050565b6000602082019050818103600083015261265f8161229e565b9050919050565b6000602082019050818103600083015261267f816122c1565b9050919050565b6000602082019050818103600083015261269f816122e4565b9050919050565b600060208201905081810360008301526126bf81612307565b9050919050565b600060208201905081810360008301526126df8161232a565b9050919050565b600060208201905081810360008301526126ff8161234d565b9050919050565b6000602082019050818103600083015261271f81612370565b9050919050565b6000602082019050818103600083015261273f81612393565b9050919050565b6000602082019050818103600083015261275f816123b6565b9050919050565b6000602082019050818103600083015261277f816123d9565b9050919050565b600060208201905061279b600083018461241a565b92915050565b60006127ab6127bc565b90506127b78282612a72565b919050565b6000604051905090565b600067ffffffffffffffff8211156127e1576127e0612bd9565b5b602082029050602081019050919050565b600067ffffffffffffffff82111561280d5761280c612bd9565b5b61281682612c21565b9050602081019050919050565b6000819050919050565b600060039050919050565b600081519050919050565b600081519050919050565b6000602082019050919050565b600081905092915050565b600082825260208201905092915050565b600082825260208201905092915050565b600081905092915050565b600061289e826129d0565b91506128a9836129d0565b9250827fffffffffffffffffffffffffffffffffffffffffffffffffffffffffffffffff038211156128de576128dd612b1d565b5b828201905092915050565b60006128f4826129d0565b91506128ff836129d0565b92508261290f5761290e612b4c565b5b828204905092915050565b6000612925826129d0565b9150612930836129d0565b92508282101561294357612942612b1d565b5b828203905092915050565b6000612959826129b0565b9050919050565b60008115159050919050565b6000819050919050565b60007fffffffff0000000000000000000000000000000000000000000000000000000082169050919050565b600061ffff82169050919050565b600073ffffffffffffffffffffffffffffffffffffffff82169050919050565b6000819050919050565b600063ffffffff82169050919050565b600067ffffffffffffffff82169050919050565b82818337600083830152505050565b60005b83811015612a2b578082015181840152602081019050612a10565b83811115612a3a576000848401525b50505050565b60006002820490506001821680612a5857607f821691505b60208210811415612a6c57612a6b612b7b565b5b50919050565b612a7b82612c21565b810181811067ffffffffffffffff82111715612a9a57612a99612bd9565b5b80604052505050565b6000612aae826129d0565b91507fffffffffffffffffffffffffffffffffffffffffffffffffffffffffffffffff821415612ae157612ae0612b1d565b5b600182019050919050565b6000612af7826129d0565b9150612b02836129d0565b925082612b1257612b11612b4c565b5b828206905092915050565b7f4e487b7100000000000000000000000000000000000000000000000000000000600052601160045260246000fd5b7f4e487b7100000000000000000000000000000000000000000000000000000000600052601260045260246000fd5b7f4e487b7100000000000000000000000000000000000000000000000000000000600052602260045260246000fd5b7f4e487b7100000000000000000000000000000000000000000000000000000000600052603260045260246000fd5b7f4e487b7100000000000000000000000000000000000000000000000000000000600052604160045260246000fd5b600080fd5b600080fd5b600080fd5b600080fd5b600080fd5b6000601f19601f8301169050919050565b7f4552433732313a207472616e7366657220746f206e6f6e20455243373231526560008201527f63656976657220696d706c656d656e7465720000000000000000000000000000602082015250565b7f4552433732313a207472616e736665722066726f6d20696e636f72726563742060008201527f6f776e6572000000000000000000000000000000000000000000000000000000602082015250565b7f4552433732313a207472616e7366657220746f20746865207a65726f2061646460008201527f7265737300000000000000000000000000000000000000000000000000000000602082015250565b7f4552433732313a20617070726f766520746f2063616c6c657200000000000000600082015250565b7f4552433732313a206f70657261746f7220717565727920666f72206e6f6e657860008201527f697374656e7420746f6b656e0000000000000000000000000000000000000000602082015250565b7f4552433732313a20617070726f76652063616c6c6572206973206e6f74206f7760008201527f6e6572206e6f7220617070726f76656420666f7220616c6c0000000000000000602082015250565b7f4552433732313a2062616c616e636520717565727920666f7220746865207a6560008201527f726f206164647265737300000000000000000000000000000000000000000000602082015250565b7f4552433732313a206f776e657220717565727920666f72206e6f6e657869737460008201527f656e7420746f6b656e0000000000000000000000000000000000000000000000602082015250565b7f45524337323155524953746f726167653a2055524920736574206f66206e6f6e60008201527f6578697374656e7420746f6b656e000000000000000000000000000000000000602082015250565b7f45524337323155524953746f726167653a2055524920717565727920666f722060008201527f6e6f6e6578697374656e7420746f6b656e000000000000000000000000000000602082015250565b7f4e65656420746f2062652061206f776e657220746f207265717565737420646f60008201527f6767696500000000000000000000000000000000000000000000000000000000602082015250565b7f4552433732313a20617070726f76656420717565727920666f72206e6f6e657860008201527f697374656e7420746f6b656e0000000000000000000000000000000000000000602082015250565b7f4552433732314d657461646174613a2055524920717565727920666f72206e6f60008201527f6e6578697374656e7420746f6b656e0000000000000000000000000000000000602082015250565b7f4552433732313a20617070726f76616c20746f2063757272656e74206f776e6560008201527f7200000000000000000000000000000000000000000000000000000000000000602082015250565b7f4552433732313a207472616e736665722063616c6c6572206973206e6f74206f60008201527f776e6572206e6f7220617070726f766564000000000000000000000000000000602082015250565b6130b68161294e565b81146130c157600080fd5b50565b6130cd81612960565b81146130d857600080fd5b50565b6130e481612976565b81146130ef57600080fd5b50565b6130fb816129d0565b811461310657600080fd5b5056fea2646970667358221220e1a865e731e9ddc0c2fd4df56f15d0e5c451e424d8af403d74041672725e5d8d64736f6c63430008070033",
          "opcodes": "PUSH2 0x120 PUSH1 0x40 MSTORE CALLVALUE DUP1 ISZERO PUSH3 0x12 JUMPI PUSH1 0x0 DUP1 REVERT JUMPDEST POP PUSH1 0x40 MLOAD PUSH3 0x39BE CODESIZE SUB DUP1 PUSH3 0x39BE DUP4 CODECOPY DUP2 DUP2 ADD PUSH1 0x40 MSTORE DUP2 ADD SWAP1 PUSH3 0x38 SWAP2 SWAP1 PUSH3 0x504 JUMP JUMPDEST DUP5 PUSH1 0x40 MLOAD DUP1 PUSH1 0x40 ADD PUSH1 0x40 MSTORE DUP1 PUSH1 0xF DUP2 MSTORE PUSH1 0x20 ADD PUSH32 0x52616E646F6D2049504653204E46540000000000000000000000000000000000 DUP2 MSTORE POP PUSH1 0x40 MLOAD DUP1 PUSH1 0x40 ADD PUSH1 0x40 MSTORE DUP1 PUSH1 0x3 DUP2 MSTORE PUSH1 0x20 ADD PUSH32 0x52494E0000000000000000000000000000000000000000000000000000000000 DUP2 MSTORE POP DUP2 PUSH1 0x0 SWAP1 DUP1 MLOAD SWAP1 PUSH1 0x20 ADD SWAP1 PUSH3 0xBD SWAP3 SWAP2 SWAP1 PUSH3 0x1EF JUMP JUMPDEST POP DUP1 PUSH1 0x1 SWAP1 DUP1 MLOAD SWAP1 PUSH1 0x20 ADD SWAP1 PUSH3 0xD6 SWAP3 SWAP2 SWAP1 PUSH3 0x1EF JUMP JUMPDEST POP POP POP DUP1 PUSH20 0xFFFFFFFFFFFFFFFFFFFFFFFFFFFFFFFFFFFFFFFF AND PUSH1 0x80 DUP2 PUSH20 0xFFFFFFFFFFFFFFFFFFFFFFFFFFFFFFFFFFFFFFFF AND PUSH1 0x60 SHL DUP2 MSTORE POP POP POP DUP5 PUSH20 0xFFFFFFFFFFFFFFFFFFFFFFFFFFFFFFFFFFFFFFFF AND PUSH1 0xA0 DUP2 PUSH20 0xFFFFFFFFFFFFFFFFFFFFFFFFFFFFFFFFFFFFFFFF AND PUSH1 0x60 SHL DUP2 MSTORE POP POP DUP4 PUSH1 0xC0 DUP2 DUP2 MSTORE POP POP DUP3 PUSH8 0xFFFFFFFFFFFFFFFF AND PUSH1 0xE0 DUP2 PUSH8 0xFFFFFFFFFFFFFFFF AND PUSH1 0xC0 SHL DUP2 MSTORE POP POP DUP2 PUSH4 0xFFFFFFFF AND PUSH2 0x100 DUP2 PUSH4 0xFFFFFFFF AND PUSH1 0xE0 SHL DUP2 MSTORE POP POP CALLER PUSH1 0x7 PUSH1 0x0 PUSH2 0x100 EXP DUP2 SLOAD DUP2 PUSH20 0xFFFFFFFFFFFFFFFFFFFFFFFFFFFFFFFFFFFFFFFF MUL NOT AND SWAP1 DUP4 PUSH20 0xFFFFFFFFFFFFFFFFFFFFFFFFFFFFFFFFFFFFFFFF AND MUL OR SWAP1 SSTORE POP PUSH1 0x0 PUSH1 0xA DUP2 SWAP1 SSTORE POP DUP1 PUSH1 0xB SWAP1 PUSH1 0x3 PUSH3 0x1E3 SWAP3 SWAP2 SWAP1 PUSH3 0x280 JUMP JUMPDEST POP POP POP POP POP POP PUSH3 0x827 JUMP JUMPDEST DUP3 DUP1 SLOAD PUSH3 0x1FD SWAP1 PUSH3 0x6CB JUMP JUMPDEST SWAP1 PUSH1 0x0 MSTORE PUSH1 0x20 PUSH1 0x0 KECCAK256 SWAP1 PUSH1 0x1F ADD PUSH1 0x20 SWAP1 DIV DUP2 ADD SWAP3 DUP3 PUSH3 0x221 JUMPI PUSH1 0x0 DUP6 SSTORE PUSH3 0x26D JUMP JUMPDEST DUP3 PUSH1 0x1F LT PUSH3 0x23C JUMPI DUP1 MLOAD PUSH1 0xFF NOT AND DUP4 DUP1 ADD OR DUP6 SSTORE PUSH3 0x26D JUMP JUMPDEST DUP3 DUP1 ADD PUSH1 0x1 ADD DUP6 SSTORE DUP3 ISZERO PUSH3 0x26D JUMPI SWAP2 DUP3 ADD JUMPDEST DUP3 DUP2 GT ISZERO PUSH3 0x26C JUMPI DUP3 MLOAD DUP3 SSTORE SWAP2 PUSH1 0x20 ADD SWAP2 SWAP1 PUSH1 0x1 ADD SWAP1 PUSH3 0x24F JUMP JUMPDEST JUMPDEST POP SWAP1 POP PUSH3 0x27C SWAP2 SWAP1 PUSH3 0x2DA JUMP JUMPDEST POP SWAP1 JUMP JUMPDEST DUP3 PUSH1 0x3 DUP2 ADD SWAP3 DUP3 ISZERO PUSH3 0x2C7 JUMPI SWAP2 PUSH1 0x20 MUL DUP3 ADD JUMPDEST DUP3 DUP2 GT ISZERO PUSH3 0x2C6 JUMPI DUP3 MLOAD DUP3 SWAP1 DUP1 MLOAD SWAP1 PUSH1 0x20 ADD SWAP1 PUSH3 0x2B5 SWAP3 SWAP2 SWAP1 PUSH3 0x1EF JUMP JUMPDEST POP SWAP2 PUSH1 0x20 ADD SWAP2 SWAP1 PUSH1 0x1 ADD SWAP1 PUSH3 0x294 JUMP JUMPDEST JUMPDEST POP SWAP1 POP PUSH3 0x2D6 SWAP2 SWAP1 PUSH3 0x2F9 JUMP JUMPDEST POP SWAP1 JUMP JUMPDEST JUMPDEST DUP1 DUP3 GT ISZERO PUSH3 0x2F5 JUMPI PUSH1 0x0 DUP2 PUSH1 0x0 SWAP1 SSTORE POP PUSH1 0x1 ADD PUSH3 0x2DB JUMP JUMPDEST POP SWAP1 JUMP JUMPDEST JUMPDEST DUP1 DUP3 GT ISZERO PUSH3 0x31D JUMPI PUSH1 0x0 DUP2 DUP2 PUSH3 0x313 SWAP2 SWAP1 PUSH3 0x321 JUMP JUMPDEST POP PUSH1 0x1 ADD PUSH3 0x2FA JUMP JUMPDEST POP SWAP1 JUMP JUMPDEST POP DUP1 SLOAD PUSH3 0x32F SWAP1 PUSH3 0x6CB JUMP JUMPDEST PUSH1 0x0 DUP3 SSTORE DUP1 PUSH1 0x1F LT PUSH3 0x343 JUMPI POP PUSH3 0x364 JUMP JUMPDEST PUSH1 0x1F ADD PUSH1 0x20 SWAP1 DIV SWAP1 PUSH1 0x0 MSTORE PUSH1 0x20 PUSH1 0x0 KECCAK256 SWAP1 DUP2 ADD SWAP1 PUSH3 0x363 SWAP2 SWAP1 PUSH3 0x2DA JUMP JUMPDEST JUMPDEST POP JUMP JUMPDEST PUSH1 0x0 PUSH3 0x37E PUSH3 0x378 DUP5 PUSH3 0x5D4 JUMP JUMPDEST PUSH3 0x5AB JUMP JUMPDEST SWAP1 POP DUP1 DUP3 DUP6 PUSH1 0x20 DUP7 MUL DUP3 ADD GT ISZERO PUSH3 0x39B JUMPI PUSH3 0x39A PUSH3 0x79A JUMP JUMPDEST JUMPDEST PUSH1 0x0 JUMPDEST DUP6 DUP2 LT ISZERO PUSH3 0x3F0 JUMPI DUP2 MLOAD PUSH8 0xFFFFFFFFFFFFFFFF DUP2 GT ISZERO PUSH3 0x3C5 JUMPI PUSH3 0x3C4 PUSH3 0x795 JUMP JUMPDEST JUMPDEST DUP1 DUP7 ADD PUSH3 0x3D4 DUP10 DUP3 PUSH3 0x4A3 JUMP JUMPDEST DUP6 MSTORE PUSH1 0x20 DUP6 ADD SWAP5 POP PUSH1 0x20 DUP5 ADD SWAP4 POP POP POP PUSH1 0x1 DUP2 ADD SWAP1 POP PUSH3 0x39E JUMP JUMPDEST POP POP POP SWAP4 SWAP3 POP POP POP JUMP JUMPDEST PUSH1 0x0 PUSH3 0x411 PUSH3 0x40B DUP5 PUSH3 0x5FD JUMP JUMPDEST PUSH3 0x5AB JUMP JUMPDEST SWAP1 POP DUP3 DUP2 MSTORE PUSH1 0x20 DUP2 ADD DUP5 DUP5 DUP5 ADD GT ISZERO PUSH3 0x430 JUMPI PUSH3 0x42F PUSH3 0x79F JUMP JUMPDEST JUMPDEST PUSH3 0x43D DUP5 DUP3 DUP6 PUSH3 0x695 JUMP JUMPDEST POP SWAP4 SWAP3 POP POP POP JUMP JUMPDEST PUSH1 0x0 DUP2 MLOAD SWAP1 POP PUSH3 0x456 DUP2 PUSH3 0x7BF JUMP JUMPDEST SWAP3 SWAP2 POP POP JUMP JUMPDEST PUSH1 0x0 DUP3 PUSH1 0x1F DUP4 ADD SLT PUSH3 0x474 JUMPI PUSH3 0x473 PUSH3 0x795 JUMP JUMPDEST JUMPDEST PUSH1 0x3 PUSH3 0x483 DUP5 DUP3 DUP6 PUSH3 0x367 JUMP JUMPDEST SWAP2 POP POP SWAP3 SWAP2 POP POP JUMP JUMPDEST PUSH1 0x0 DUP2 MLOAD SWAP1 POP PUSH3 0x49D DUP2 PUSH3 0x7D9 JUMP JUMPDEST SWAP3 SWAP2 POP POP JUMP JUMPDEST PUSH1 0x0 DUP3 PUSH1 0x1F DUP4 ADD SLT PUSH3 0x4BB JUMPI PUSH3 0x4BA PUSH3 0x795 JUMP JUMPDEST JUMPDEST DUP2 MLOAD PUSH3 0x4CD DUP5 DUP3 PUSH1 0x20 DUP7 ADD PUSH3 0x3FA JUMP JUMPDEST SWAP2 POP POP SWAP3 SWAP2 POP POP JUMP JUMPDEST PUSH1 0x0 DUP2 MLOAD SWAP1 POP PUSH3 0x4E7 DUP2 PUSH3 0x7F3 JUMP JUMPDEST SWAP3 SWAP2 POP POP JUMP JUMPDEST PUSH1 0x0 DUP2 MLOAD SWAP1 POP PUSH3 0x4FE DUP2 PUSH3 0x80D JUMP JUMPDEST SWAP3 SWAP2 POP POP JUMP JUMPDEST PUSH1 0x0 DUP1 PUSH1 0x0 DUP1 PUSH1 0x0 PUSH1 0xA0 DUP7 DUP9 SUB SLT ISZERO PUSH3 0x523 JUMPI PUSH3 0x522 PUSH3 0x7A9 JUMP JUMPDEST JUMPDEST PUSH1 0x0 PUSH3 0x533 DUP9 DUP3 DUP10 ADD PUSH3 0x445 JUMP JUMPDEST SWAP6 POP POP PUSH1 0x20 PUSH3 0x546 DUP9 DUP3 DUP10 ADD PUSH3 0x48C JUMP JUMPDEST SWAP5 POP POP PUSH1 0x40 PUSH3 0x559 DUP9 DUP3 DUP10 ADD PUSH3 0x4ED JUMP JUMPDEST SWAP4 POP POP PUSH1 0x60 PUSH3 0x56C DUP9 DUP3 DUP10 ADD PUSH3 0x4D6 JUMP JUMPDEST SWAP3 POP POP PUSH1 0x80 DUP7 ADD MLOAD PUSH8 0xFFFFFFFFFFFFFFFF DUP2 GT ISZERO PUSH3 0x590 JUMPI PUSH3 0x58F PUSH3 0x7A4 JUMP JUMPDEST JUMPDEST PUSH3 0x59E DUP9 DUP3 DUP10 ADD PUSH3 0x45C JUMP JUMPDEST SWAP2 POP POP SWAP3 SWAP6 POP SWAP3 SWAP6 SWAP1 SWAP4 POP JUMP JUMPDEST PUSH1 0x0 PUSH3 0x5B7 PUSH3 0x5CA JUMP JUMPDEST SWAP1 POP PUSH3 0x5C5 DUP3 DUP3 PUSH3 0x701 JUMP JUMPDEST SWAP2 SWAP1 POP JUMP JUMPDEST PUSH1 0x0 PUSH1 0x40 MLOAD SWAP1 POP SWAP1 JUMP JUMPDEST PUSH1 0x0 PUSH8 0xFFFFFFFFFFFFFFFF DUP3 GT ISZERO PUSH3 0x5F2 JUMPI PUSH3 0x5F1 PUSH3 0x766 JUMP JUMPDEST JUMPDEST PUSH1 0x20 DUP3 MUL SWAP1 POP SWAP2 SWAP1 POP JUMP JUMPDEST PUSH1 0x0 PUSH8 0xFFFFFFFFFFFFFFFF DUP3 GT ISZERO PUSH3 0x61B JUMPI PUSH3 0x61A PUSH3 0x766 JUMP JUMPDEST JUMPDEST PUSH3 0x626 DUP3 PUSH3 0x7AE JUMP JUMPDEST SWAP1 POP PUSH1 0x20 DUP2 ADD SWAP1 POP SWAP2 SWAP1 POP JUMP JUMPDEST PUSH1 0x0 PUSH3 0x640 DUP3 PUSH3 0x651 JUMP JUMPDEST SWAP1 POP SWAP2 SWAP1 POP JUMP JUMPDEST PUSH1 0x0 DUP2 SWAP1 POP SWAP2 SWAP1 POP JUMP JUMPDEST PUSH1 0x0 PUSH20 0xFFFFFFFFFFFFFFFFFFFFFFFFFFFFFFFFFFFFFFFF DUP3 AND SWAP1 POP SWAP2 SWAP1 POP JUMP JUMPDEST PUSH1 0x0 PUSH4 0xFFFFFFFF DUP3 AND SWAP1 POP SWAP2 SWAP1 POP JUMP JUMPDEST PUSH1 0x0 PUSH8 0xFFFFFFFFFFFFFFFF DUP3 AND SWAP1 POP SWAP2 SWAP1 POP JUMP JUMPDEST PUSH1 0x0 JUMPDEST DUP4 DUP2 LT ISZERO PUSH3 0x6B5 JUMPI DUP1 DUP3 ADD MLOAD DUP2 DUP5 ADD MSTORE PUSH1 0x20 DUP2 ADD SWAP1 POP PUSH3 0x698 JUMP JUMPDEST DUP4 DUP2 GT ISZERO PUSH3 0x6C5 JUMPI PUSH1 0x0 DUP5 DUP5 ADD MSTORE JUMPDEST POP POP POP POP JUMP JUMPDEST PUSH1 0x0 PUSH1 0x2 DUP3 DIV SWAP1 POP PUSH1 0x1 DUP3 AND DUP1 PUSH3 0x6E4 JUMPI PUSH1 0x7F DUP3 AND SWAP2 POP JUMPDEST PUSH1 0x20 DUP3 LT DUP2 EQ ISZERO PUSH3 0x6FB JUMPI PUSH3 0x6FA PUSH3 0x737 JUMP JUMPDEST JUMPDEST POP SWAP2 SWAP1 POP JUMP JUMPDEST PUSH3 0x70C DUP3 PUSH3 0x7AE JUMP JUMPDEST DUP2 ADD DUP2 DUP2 LT PUSH8 0xFFFFFFFFFFFFFFFF DUP3 GT OR ISZERO PUSH3 0x72E JUMPI PUSH3 0x72D PUSH3 0x766 JUMP JUMPDEST JUMPDEST DUP1 PUSH1 0x40 MSTORE POP POP POP JUMP JUMPDEST PUSH32 0x4E487B7100000000000000000000000000000000000000000000000000000000 PUSH1 0x0 MSTORE PUSH1 0x22 PUSH1 0x4 MSTORE PUSH1 0x24 PUSH1 0x0 REVERT JUMPDEST PUSH32 0x4E487B7100000000000000000000000000000000000000000000000000000000 PUSH1 0x0 MSTORE PUSH1 0x41 PUSH1 0x4 MSTORE PUSH1 0x24 PUSH1 0x0 REVERT JUMPDEST PUSH1 0x0 DUP1 REVERT JUMPDEST PUSH1 0x0 DUP1 REVERT JUMPDEST PUSH1 0x0 DUP1 REVERT JUMPDEST PUSH1 0x0 DUP1 REVERT JUMPDEST PUSH1 0x0 DUP1 REVERT JUMPDEST PUSH1 0x0 PUSH1 0x1F NOT PUSH1 0x1F DUP4 ADD AND SWAP1 POP SWAP2 SWAP1 POP JUMP JUMPDEST PUSH3 0x7CA DUP2 PUSH3 0x633 JUMP JUMPDEST DUP2 EQ PUSH3 0x7D6 JUMPI PUSH1 0x0 DUP1 REVERT JUMPDEST POP JUMP JUMPDEST PUSH3 0x7E4 DUP2 PUSH3 0x647 JUMP JUMPDEST DUP2 EQ PUSH3 0x7F0 JUMPI PUSH1 0x0 DUP1 REVERT JUMPDEST POP JUMP JUMPDEST PUSH3 0x7FE DUP2 PUSH3 0x671 JUMP JUMPDEST DUP2 EQ PUSH3 0x80A JUMPI PUSH1 0x0 DUP1 REVERT JUMPDEST POP JUMP JUMPDEST PUSH3 0x818 DUP2 PUSH3 0x681 JUMP JUMPDEST DUP2 EQ PUSH3 0x824 JUMPI PUSH1 0x0 DUP1 REVERT JUMPDEST POP JUMP JUMPDEST PUSH1 0x80 MLOAD PUSH1 0x60 SHR PUSH1 0xA0 MLOAD PUSH1 0x60 SHR PUSH1 0xC0 MLOAD PUSH1 0xE0 MLOAD PUSH1 0xC0 SHR PUSH2 0x100 MLOAD PUSH1 0xE0 SHR PUSH2 0x313F PUSH3 0x87F PUSH1 0x0 CODECOPY PUSH1 0x0 PUSH2 0x7E0 ADD MSTORE PUSH1 0x0 PUSH2 0x7BD ADD MSTORE PUSH1 0x0 PUSH2 0x79C ADD MSTORE PUSH1 0x0 PUSH2 0x760 ADD MSTORE PUSH1 0x0 DUP2 DUP2 PUSH2 0x8CC ADD MSTORE PUSH2 0x920 ADD MSTORE PUSH2 0x313F PUSH1 0x0 RETURN INVALID PUSH1 0x80 PUSH1 0x40 MSTORE CALLVALUE DUP1 ISZERO PUSH2 0x10 JUMPI PUSH1 0x0 DUP1 REVERT JUMPDEST POP PUSH1 0x4 CALLDATASIZE LT PUSH2 0x116 JUMPI PUSH1 0x0 CALLDATALOAD PUSH1 0xE0 SHR DUP1 PUSH4 0x6352211E GT PUSH2 0xA2 JUMPI DUP1 PUSH4 0xA22CB465 GT PUSH2 0x71 JUMPI DUP1 PUSH4 0xA22CB465 EQ PUSH2 0x2F3 JUMPI DUP1 PUSH4 0xA3EF6457 EQ PUSH2 0x30F JUMPI DUP1 PUSH4 0xB88D4FDE EQ PUSH2 0x33F JUMPI DUP1 PUSH4 0xC87B56DD EQ PUSH2 0x35B JUMPI DUP1 PUSH4 0xE985E9C5 EQ PUSH2 0x38B JUMPI PUSH2 0x116 JUMP JUMPDEST DUP1 PUSH4 0x6352211E EQ PUSH2 0x245 JUMPI DUP1 PUSH4 0x70A08231 EQ PUSH2 0x275 JUMPI DUP1 PUSH4 0x95D89B41 EQ PUSH2 0x2A5 JUMPI DUP1 PUSH4 0xA090DC31 EQ PUSH2 0x2C3 JUMPI PUSH2 0x116 JUMP JUMPDEST DUP1 PUSH4 0x1801CC8A GT PUSH2 0xE9 JUMPI DUP1 PUSH4 0x1801CC8A EQ PUSH2 0x1B5 JUMPI DUP1 PUSH4 0x1FE543E3 EQ PUSH2 0x1D3 JUMPI DUP1 PUSH4 0x23B872DD EQ PUSH2 0x1EF JUMPI DUP1 PUSH4 0x42842E0E EQ PUSH2 0x20B JUMPI DUP1 PUSH4 0x5DACF5F4 EQ PUSH2 0x227 JUMPI PUSH2 0x116 JUMP JUMPDEST DUP1 PUSH4 0x1FFC9A7 EQ PUSH2 0x11B JUMPI DUP1 PUSH4 0x6FDDE03 EQ PUSH2 0x14B JUMPI DUP1 PUSH4 0x81812FC EQ PUSH2 0x169 JUMPI DUP1 PUSH4 0x95EA7B3 EQ PUSH2 0x199 JUMPI JUMPDEST PUSH1 0x0 DUP1 REVERT JUMPDEST PUSH2 0x135 PUSH1 0x4 DUP1 CALLDATASIZE SUB DUP2 ADD SWAP1 PUSH2 0x130 SWAP2 SWAP1 PUSH2 0x1FA0 JUMP JUMPDEST PUSH2 0x3BB JUMP JUMPDEST PUSH1 0x40 MLOAD PUSH2 0x142 SWAP2 SWAP1 PUSH2 0x2516 JUMP JUMPDEST PUSH1 0x40 MLOAD DUP1 SWAP2 SUB SWAP1 RETURN JUMPDEST PUSH2 0x153 PUSH2 0x49D JUMP JUMPDEST PUSH1 0x40 MLOAD PUSH2 0x160 SWAP2 SWAP1 PUSH2 0x2584 JUMP JUMPDEST PUSH1 0x40 MLOAD DUP1 SWAP2 SUB SWAP1 RETURN JUMPDEST PUSH2 0x183 PUSH1 0x4 DUP1 CALLDATASIZE SUB DUP2 ADD SWAP1 PUSH2 0x17E SWAP2 SWAP1 PUSH2 0x1FFA JUMP JUMPDEST PUSH2 0x52F JUMP JUMPDEST PUSH1 0x40 MLOAD PUSH2 0x190 SWAP2 SWAP1 PUSH2 0x246B JUMP JUMPDEST PUSH1 0x40 MLOAD DUP1 SWAP2 SUB SWAP1 RETURN JUMPDEST PUSH2 0x1B3 PUSH1 0x4 DUP1 CALLDATASIZE SUB DUP2 ADD SWAP1 PUSH2 0x1AE SWAP2 SWAP1 PUSH2 0x1F60 JUMP JUMPDEST PUSH2 0x5B4 JUMP JUMPDEST STOP JUMPDEST PUSH2 0x1BD PUSH2 0x6CC JUMP JUMPDEST PUSH1 0x40 MLOAD PUSH2 0x1CA SWAP2 SWAP1 PUSH2 0x2786 JUMP JUMPDEST PUSH1 0x40 MLOAD DUP1 SWAP2 SUB SWAP1 RETURN JUMPDEST PUSH2 0x1ED PUSH1 0x4 DUP1 CALLDATASIZE SUB DUP2 ADD SWAP1 PUSH2 0x1E8 SWAP2 SWAP1 PUSH2 0x2054 JUMP JUMPDEST PUSH2 0x8CA JUMP JUMPDEST STOP JUMPDEST PUSH2 0x209 PUSH1 0x4 DUP1 CALLDATASIZE SUB DUP2 ADD SWAP1 PUSH2 0x204 SWAP2 SWAP1 PUSH2 0x1E4A JUMP JUMPDEST PUSH2 0x98A JUMP JUMPDEST STOP JUMPDEST PUSH2 0x225 PUSH1 0x4 DUP1 CALLDATASIZE SUB DUP2 ADD SWAP1 PUSH2 0x220 SWAP2 SWAP1 PUSH2 0x1E4A JUMP JUMPDEST PUSH2 0x9EA JUMP JUMPDEST STOP JUMPDEST PUSH2 0x22F PUSH2 0xA0A JUMP JUMPDEST PUSH1 0x40 MLOAD PUSH2 0x23C SWAP2 SWAP1 PUSH2 0x24FB JUMP JUMPDEST PUSH1 0x40 MLOAD DUP1 SWAP2 SUB SWAP1 RETURN JUMPDEST PUSH2 0x25F PUSH1 0x4 DUP1 CALLDATASIZE SUB DUP2 ADD SWAP1 PUSH2 0x25A SWAP2 SWAP1 PUSH2 0x1FFA JUMP JUMPDEST PUSH2 0xA35 JUMP JUMPDEST PUSH1 0x40 MLOAD PUSH2 0x26C SWAP2 SWAP1 PUSH2 0x246B JUMP JUMPDEST PUSH1 0x40 MLOAD DUP1 SWAP2 SUB SWAP1 RETURN JUMPDEST PUSH2 0x28F PUSH1 0x4 DUP1 CALLDATASIZE SUB DUP2 ADD SWAP1 PUSH2 0x28A SWAP2 SWAP1 PUSH2 0x1DDD JUMP JUMPDEST PUSH2 0xAE7 JUMP JUMPDEST PUSH1 0x40 MLOAD PUSH2 0x29C SWAP2 SWAP1 PUSH2 0x2786 JUMP JUMPDEST PUSH1 0x40 MLOAD DUP1 SWAP2 SUB SWAP1 RETURN JUMPDEST PUSH2 0x2AD PUSH2 0xB9F JUMP JUMPDEST PUSH1 0x40 MLOAD PUSH2 0x2BA SWAP2 SWAP1 PUSH2 0x2584 JUMP JUMPDEST PUSH1 0x40 MLOAD DUP1 SWAP2 SUB SWAP1 RETURN JUMPDEST PUSH2 0x2DD PUSH1 0x4 DUP1 CALLDATASIZE SUB DUP2 ADD SWAP1 PUSH2 0x2D8 SWAP2 SWAP1 PUSH2 0x1FFA JUMP JUMPDEST PUSH2 0xC31 JUMP JUMPDEST PUSH1 0x40 MLOAD PUSH2 0x2EA SWAP2 SWAP1 PUSH2 0x2786 JUMP JUMPDEST PUSH1 0x40 MLOAD DUP1 SWAP2 SUB SWAP1 RETURN JUMPDEST PUSH2 0x30D PUSH1 0x4 DUP1 CALLDATASIZE SUB DUP2 ADD SWAP1 PUSH2 0x308 SWAP2 SWAP1 PUSH2 0x1F20 JUMP JUMPDEST PUSH2 0xCD2 JUMP JUMPDEST STOP JUMPDEST PUSH2 0x329 PUSH1 0x4 DUP1 CALLDATASIZE SUB DUP2 ADD SWAP1 PUSH2 0x324 SWAP2 SWAP1 PUSH2 0x1FFA JUMP JUMPDEST PUSH2 0xCE8 JUMP JUMPDEST PUSH1 0x40 MLOAD PUSH2 0x336 SWAP2 SWAP1 PUSH2 0x2786 JUMP JUMPDEST PUSH1 0x40 MLOAD DUP1 SWAP2 SUB SWAP1 RETURN JUMPDEST PUSH2 0x359 PUSH1 0x4 DUP1 CALLDATASIZE SUB DUP2 ADD SWAP1 PUSH2 0x354 SWAP2 SWAP1 PUSH2 0x1E9D JUMP JUMPDEST PUSH2 0xD0C JUMP JUMPDEST STOP JUMPDEST PUSH2 0x375 PUSH1 0x4 DUP1 CALLDATASIZE SUB DUP2 ADD SWAP1 PUSH2 0x370 SWAP2 SWAP1 PUSH2 0x1FFA JUMP JUMPDEST PUSH2 0xD6E JUMP JUMPDEST PUSH1 0x40 MLOAD PUSH2 0x382 SWAP2 SWAP1 PUSH2 0x2584 JUMP JUMPDEST PUSH1 0x40 MLOAD DUP1 SWAP2 SUB SWAP1 RETURN JUMPDEST PUSH2 0x3A5 PUSH1 0x4 DUP1 CALLDATASIZE SUB DUP2 ADD SWAP1 PUSH2 0x3A0 SWAP2 SWAP1 PUSH2 0x1E0A JUMP JUMPDEST PUSH2 0xEC0 JUMP JUMPDEST PUSH1 0x40 MLOAD PUSH2 0x3B2 SWAP2 SWAP1 PUSH2 0x2516 JUMP JUMPDEST PUSH1 0x40 MLOAD DUP1 SWAP2 SUB SWAP1 RETURN JUMPDEST PUSH1 0x0 PUSH32 0x80AC58CD00000000000000000000000000000000000000000000000000000000 PUSH28 0xFFFFFFFFFFFFFFFFFFFFFFFFFFFFFFFFFFFFFFFFFFFFFFFFFFFFFFFF NOT AND DUP3 PUSH28 0xFFFFFFFFFFFFFFFFFFFFFFFFFFFFFFFFFFFFFFFFFFFFFFFFFFFFFFFF NOT AND EQ DUP1 PUSH2 0x486 JUMPI POP PUSH32 0x5B5E139F00000000000000000000000000000000000000000000000000000000 PUSH28 0xFFFFFFFFFFFFFFFFFFFFFFFFFFFFFFFFFFFFFFFFFFFFFFFFFFFFFFFF NOT AND DUP3 PUSH28 0xFFFFFFFFFFFFFFFFFFFFFFFFFFFFFFFFFFFFFFFFFFFFFFFFFFFFFFFF NOT AND EQ JUMPDEST DUP1 PUSH2 0x496 JUMPI POP PUSH2 0x495 DUP3 PUSH2 0xF54 JUMP JUMPDEST JUMPDEST SWAP1 POP SWAP2 SWAP1 POP JUMP JUMPDEST PUSH1 0x60 PUSH1 0x0 DUP1 SLOAD PUSH2 0x4AC SWAP1 PUSH2 0x2A40 JUMP JUMPDEST DUP1 PUSH1 0x1F ADD PUSH1 0x20 DUP1 SWAP2 DIV MUL PUSH1 0x20 ADD PUSH1 0x40 MLOAD SWAP1 DUP2 ADD PUSH1 0x40 MSTORE DUP1 SWAP3 SWAP2 SWAP1 DUP2 DUP2 MSTORE PUSH1 0x20 ADD DUP3 DUP1 SLOAD PUSH2 0x4D8 SWAP1 PUSH2 0x2A40 JUMP JUMPDEST DUP1 ISZERO PUSH2 0x525 JUMPI DUP1 PUSH1 0x1F LT PUSH2 0x4FA JUMPI PUSH2 0x100 DUP1 DUP4 SLOAD DIV MUL DUP4 MSTORE SWAP2 PUSH1 0x20 ADD SWAP2 PUSH2 0x525 JUMP JUMPDEST DUP3 ADD SWAP2 SWAP1 PUSH1 0x0 MSTORE PUSH1 0x20 PUSH1 0x0 KECCAK256 SWAP1 JUMPDEST DUP2 SLOAD DUP2 MSTORE SWAP1 PUSH1 0x1 ADD SWAP1 PUSH1 0x20 ADD DUP1 DUP4 GT PUSH2 0x508 JUMPI DUP3 SWAP1 SUB PUSH1 0x1F AND DUP3 ADD SWAP2 JUMPDEST POP POP POP POP POP SWAP1 POP SWAP1 JUMP JUMPDEST PUSH1 0x0 PUSH2 0x53A DUP3 PUSH2 0xFBE JUMP JUMPDEST PUSH2 0x579 JUMPI PUSH1 0x40 MLOAD PUSH32 0x8C379A000000000000000000000000000000000000000000000000000000000 DUP2 MSTORE PUSH1 0x4 ADD PUSH2 0x570 SWAP1 PUSH2 0x2706 JUMP JUMPDEST PUSH1 0x40 MLOAD DUP1 SWAP2 SUB SWAP1 REVERT JUMPDEST PUSH1 0x4 PUSH1 0x0 DUP4 DUP2 MSTORE PUSH1 0x20 ADD SWAP1 DUP2 MSTORE PUSH1 0x20 ADD PUSH1 0x0 KECCAK256 PUSH1 0x0 SWAP1 SLOAD SWAP1 PUSH2 0x100 EXP SWAP1 DIV PUSH20 0xFFFFFFFFFFFFFFFFFFFFFFFFFFFFFFFFFFFFFFFF AND SWAP1 POP SWAP2 SWAP1 POP JUMP JUMPDEST PUSH1 0x0 PUSH2 0x5BF DUP3 PUSH2 0xA35 JUMP JUMPDEST SWAP1 POP DUP1 PUSH20 0xFFFFFFFFFFFFFFFFFFFFFFFFFFFFFFFFFFFFFFFF AND DUP4 PUSH20 0xFFFFFFFFFFFFFFFFFFFFFFFFFFFFFFFFFFFFFFFF AND EQ ISZERO PUSH2 0x630 JUMPI PUSH1 0x40 MLOAD PUSH32 0x8C379A000000000000000000000000000000000000000000000000000000000 DUP2 MSTORE PUSH1 0x4 ADD PUSH2 0x627 SWAP1 PUSH2 0x2746 JUMP JUMPDEST PUSH1 0x40 MLOAD DUP1 SWAP2 SUB SWAP1 REVERT JUMPDEST DUP1 PUSH20 0xFFFFFFFFFFFFFFFFFFFFFFFFFFFFFFFFFFFFFFFF AND PUSH2 0x64F PUSH2 0x102A JUMP JUMPDEST PUSH20 0xFFFFFFFFFFFFFFFFFFFFFFFFFFFFFFFFFFFFFFFF AND EQ DUP1 PUSH2 0x67E JUMPI POP PUSH2 0x67D DUP2 PUSH2 0x678 PUSH2 0x102A JUMP JUMPDEST PUSH2 0xEC0 JUMP JUMPDEST JUMPDEST PUSH2 0x6BD JUMPI PUSH1 0x40 MLOAD PUSH32 0x8C379A000000000000000000000000000000000000000000000000000000000 DUP2 MSTORE PUSH1 0x4 ADD PUSH2 0x6B4 SWAP1 PUSH2 0x2646 JUMP JUMPDEST PUSH1 0x40 MLOAD DUP1 SWAP2 SUB SWAP1 REVERT JUMPDEST PUSH2 0x6C7 DUP4 DUP4 PUSH2 0x1032 JUMP JUMPDEST POP POP POP JUMP JUMPDEST PUSH1 0x0 CALLER PUSH20 0xFFFFFFFFFFFFFFFFFFFFFFFFFFFFFFFFFFFFFFFF AND PUSH1 0x7 PUSH1 0x0 SWAP1 SLOAD SWAP1 PUSH2 0x100 EXP SWAP1 DIV PUSH20 0xFFFFFFFFFFFFFFFFFFFFFFFFFFFFFFFFFFFFFFFF AND PUSH20 0xFFFFFFFFFFFFFFFFFFFFFFFFFFFFFFFFFFFFFFFF AND EQ PUSH2 0x75E JUMPI PUSH1 0x40 MLOAD PUSH32 0x8C379A000000000000000000000000000000000000000000000000000000000 DUP2 MSTORE PUSH1 0x4 ADD PUSH2 0x755 SWAP1 PUSH2 0x26E6 JUMP JUMPDEST PUSH1 0x40 MLOAD DUP1 SWAP2 SUB SWAP1 REVERT JUMPDEST PUSH32 0x0 PUSH20 0xFFFFFFFFFFFFFFFFFFFFFFFFFFFFFFFFFFFFFFFF AND PUSH4 0x5D3B1D30 PUSH32 0x0 PUSH32 0x0 PUSH1 0x3 PUSH32 0x0 PUSH1 0x1 PUSH1 0x40 MLOAD DUP7 PUSH4 0xFFFFFFFF AND PUSH1 0xE0 SHL DUP2 MSTORE PUSH1 0x4 ADD PUSH2 0x821 SWAP6 SWAP5 SWAP4 SWAP3 SWAP2 SWAP1 PUSH2 0x2531 JUMP JUMPDEST PUSH1 0x20 PUSH1 0x40 MLOAD DUP1 DUP4 SUB DUP2 PUSH1 0x0 DUP8 DUP1 EXTCODESIZE ISZERO DUP1 ISZERO PUSH2 0x83B JUMPI PUSH1 0x0 DUP1 REVERT JUMPDEST POP GAS CALL ISZERO DUP1 ISZERO PUSH2 0x84F JUMPI RETURNDATASIZE PUSH1 0x0 DUP1 RETURNDATACOPY RETURNDATASIZE PUSH1 0x0 REVERT JUMPDEST POP POP POP POP PUSH1 0x40 MLOAD RETURNDATASIZE PUSH1 0x1F NOT PUSH1 0x1F DUP3 ADD AND DUP3 ADD DUP1 PUSH1 0x40 MSTORE POP DUP2 ADD SWAP1 PUSH2 0x873 SWAP2 SWAP1 PUSH2 0x2027 JUMP JUMPDEST SWAP1 POP CALLER PUSH1 0x9 PUSH1 0x0 DUP4 DUP2 MSTORE PUSH1 0x20 ADD SWAP1 DUP2 MSTORE PUSH1 0x20 ADD PUSH1 0x0 KECCAK256 PUSH1 0x0 PUSH2 0x100 EXP DUP2 SLOAD DUP2 PUSH20 0xFFFFFFFFFFFFFFFFFFFFFFFFFFFFFFFFFFFFFFFF MUL NOT AND SWAP1 DUP4 PUSH20 0xFFFFFFFFFFFFFFFFFFFFFFFFFFFFFFFFFFFFFFFF AND MUL OR SWAP1 SSTORE POP SWAP1 JUMP JUMPDEST PUSH32 0x0 PUSH20 0xFFFFFFFFFFFFFFFFFFFFFFFFFFFFFFFFFFFFFFFF AND CALLER PUSH20 0xFFFFFFFFFFFFFFFFFFFFFFFFFFFFFFFFFFFFFFFF AND EQ PUSH2 0x97C JUMPI CALLER PUSH32 0x0 PUSH1 0x40 MLOAD PUSH32 0x1CF993F400000000000000000000000000000000000000000000000000000000 DUP2 MSTORE PUSH1 0x4 ADD PUSH2 0x973 SWAP3 SWAP2 SWAP1 PUSH2 0x2486 JUMP JUMPDEST PUSH1 0x40 MLOAD DUP1 SWAP2 SUB SWAP1 REVERT JUMPDEST PUSH2 0x986 DUP3 DUP3 PUSH2 0x10EB JUMP JUMPDEST POP POP JUMP JUMPDEST PUSH2 0x99B PUSH2 0x995 PUSH2 0x102A JUMP JUMPDEST DUP3 PUSH2 0x1227 JUMP JUMPDEST PUSH2 0x9DA JUMPI PUSH1 0x40 MLOAD PUSH32 0x8C379A000000000000000000000000000000000000000000000000000000000 DUP2 MSTORE PUSH1 0x4 ADD PUSH2 0x9D1 SWAP1 PUSH2 0x2766 JUMP JUMPDEST PUSH1 0x40 MLOAD DUP1 SWAP2 SUB SWAP1 REVERT JUMPDEST PUSH2 0x9E5 DUP4 DUP4 DUP4 PUSH2 0x1305 JUMP JUMPDEST POP POP POP JUMP JUMPDEST PUSH2 0xA05 DUP4 DUP4 DUP4 PUSH1 0x40 MLOAD DUP1 PUSH1 0x20 ADD PUSH1 0x40 MSTORE DUP1 PUSH1 0x0 DUP2 MSTORE POP PUSH2 0xD0C JUMP JUMPDEST POP POP POP JUMP JUMPDEST PUSH2 0xA12 PUSH2 0x1B8C JUMP JUMPDEST PUSH1 0x40 MLOAD DUP1 PUSH1 0x60 ADD PUSH1 0x40 MSTORE DUP1 PUSH1 0xA DUP2 MSTORE PUSH1 0x20 ADD PUSH1 0x1E DUP2 MSTORE PUSH1 0x20 ADD PUSH1 0x64 DUP2 MSTORE POP SWAP1 POP SWAP1 JUMP JUMPDEST PUSH1 0x0 DUP1 PUSH1 0x2 PUSH1 0x0 DUP5 DUP2 MSTORE PUSH1 0x20 ADD SWAP1 DUP2 MSTORE PUSH1 0x20 ADD PUSH1 0x0 KECCAK256 PUSH1 0x0 SWAP1 SLOAD SWAP1 PUSH2 0x100 EXP SWAP1 DIV PUSH20 0xFFFFFFFFFFFFFFFFFFFFFFFFFFFFFFFFFFFFFFFF AND SWAP1 POP PUSH1 0x0 PUSH20 0xFFFFFFFFFFFFFFFFFFFFFFFFFFFFFFFFFFFFFFFF AND DUP2 PUSH20 0xFFFFFFFFFFFFFFFFFFFFFFFFFFFFFFFFFFFFFFFF AND EQ ISZERO PUSH2 0xADE JUMPI PUSH1 0x40 MLOAD PUSH32 0x8C379A000000000000000000000000000000000000000000000000000000000 DUP2 MSTORE PUSH1 0x4 ADD PUSH2 0xAD5 SWAP1 PUSH2 0x2686 JUMP JUMPDEST PUSH1 0x40 MLOAD DUP1 SWAP2 SUB SWAP1 REVERT JUMPDEST DUP1 SWAP2 POP POP SWAP2 SWAP1 POP JUMP JUMPDEST PUSH1 0x0 DUP1 PUSH20 0xFFFFFFFFFFFFFFFFFFFFFFFFFFFFFFFFFFFFFFFF AND DUP3 PUSH20 0xFFFFFFFFFFFFFFFFFFFFFFFFFFFFFFFFFFFFFFFF AND EQ ISZERO PUSH2 0xB58 JUMPI PUSH1 0x40 MLOAD PUSH32 0x8C379A000000000000000000000000000000000000000000000000000000000 DUP2 MSTORE PUSH1 0x4 ADD PUSH2 0xB4F SWAP1 PUSH2 0x2666 JUMP JUMPDEST PUSH1 0x40 MLOAD DUP1 SWAP2 SUB SWAP1 REVERT JUMPDEST PUSH1 0x3 PUSH1 0x0 DUP4 PUSH20 0xFFFFFFFFFFFFFFFFFFFFFFFFFFFFFFFFFFFFFFFF AND PUSH20 0xFFFFFFFFFFFFFFFFFFFFFFFFFFFFFFFFFFFFFFFF AND DUP2 MSTORE PUSH1 0x20 ADD SWAP1 DUP2 MSTORE PUSH1 0x20 ADD PUSH1 0x0 KECCAK256 SLOAD SWAP1 POP SWAP2 SWAP1 POP JUMP JUMPDEST PUSH1 0x60 PUSH1 0x1 DUP1 SLOAD PUSH2 0xBAE SWAP1 PUSH2 0x2A40 JUMP JUMPDEST DUP1 PUSH1 0x1F ADD PUSH1 0x20 DUP1 SWAP2 DIV MUL PUSH1 0x20 ADD PUSH1 0x40 MLOAD SWAP1 DUP2 ADD PUSH1 0x40 MSTORE DUP1 SWAP3 SWAP2 SWAP1 DUP2 DUP2 MSTORE PUSH1 0x20 ADD DUP3 DUP1 SLOAD PUSH2 0xBDA SWAP1 PUSH2 0x2A40 JUMP JUMPDEST DUP1 ISZERO PUSH2 0xC27 JUMPI DUP1 PUSH1 0x1F LT PUSH2 0xBFC JUMPI PUSH2 0x100 DUP1 DUP4 SLOAD DIV MUL DUP4 MSTORE SWAP2 PUSH1 0x20 ADD SWAP2 PUSH2 0xC27 JUMP JUMPDEST DUP3 ADD SWAP2 SWAP1 PUSH1 0x0 MSTORE PUSH1 0x20 PUSH1 0x0 KECCAK256 SWAP1 JUMPDEST DUP2 SLOAD DUP2 MSTORE SWAP1 PUSH1 0x1 ADD SWAP1 PUSH1 0x20 ADD DUP1 DUP4 GT PUSH2 0xC0A JUMPI DUP3 SWAP1 SUB PUSH1 0x1F AND DUP3 ADD SWAP2 JUMPDEST POP POP POP POP POP SWAP1 POP SWAP1 JUMP JUMPDEST PUSH1 0x0 DUP1 PUSH1 0x0 SWAP1 POP PUSH1 0x0 PUSH2 0xC42 PUSH2 0xA0A JUMP JUMPDEST SWAP1 POP PUSH1 0x0 JUMPDEST PUSH1 0x3 DUP2 LT ISZERO PUSH2 0xCC9 JUMPI DUP3 DUP6 LT ISZERO DUP1 ISZERO PUSH2 0xC81 JUMPI POP DUP2 DUP2 PUSH1 0x3 DUP2 LT PUSH2 0xC6E JUMPI PUSH2 0xC6D PUSH2 0x2BAA JUMP JUMPDEST JUMPDEST PUSH1 0x20 MUL ADD MLOAD DUP4 PUSH2 0xC7E SWAP2 SWAP1 PUSH2 0x2893 JUMP JUMPDEST DUP6 LT JUMPDEST ISZERO PUSH2 0xC91 JUMPI DUP1 SWAP4 POP POP POP POP PUSH2 0xCCD JUMP JUMPDEST DUP2 DUP2 PUSH1 0x3 DUP2 LT PUSH2 0xCA4 JUMPI PUSH2 0xCA3 PUSH2 0x2BAA JUMP JUMPDEST JUMPDEST PUSH1 0x20 MUL ADD MLOAD DUP4 PUSH2 0xCB4 SWAP2 SWAP1 PUSH2 0x2893 JUMP JUMPDEST SWAP3 POP DUP1 DUP1 PUSH2 0xCC1 SWAP1 PUSH2 0x2AA3 JUMP JUMPDEST SWAP2 POP POP PUSH2 0xC47 JUMP JUMPDEST POP POP POP JUMPDEST SWAP2 SWAP1 POP JUMP JUMPDEST PUSH2 0xCE4 PUSH2 0xCDD PUSH2 0x102A JUMP JUMPDEST DUP4 DUP4 PUSH2 0x156C JUMP JUMPDEST POP POP JUMP JUMPDEST PUSH1 0x8 DUP2 DUP2 SLOAD DUP2 LT PUSH2 0xCF8 JUMPI PUSH1 0x0 DUP1 REVERT JUMPDEST SWAP1 PUSH1 0x0 MSTORE PUSH1 0x20 PUSH1 0x0 KECCAK256 ADD PUSH1 0x0 SWAP2 POP SWAP1 POP SLOAD DUP2 JUMP JUMPDEST PUSH2 0xD1D PUSH2 0xD17 PUSH2 0x102A JUMP JUMPDEST DUP4 PUSH2 0x1227 JUMP JUMPDEST PUSH2 0xD5C JUMPI PUSH1 0x40 MLOAD PUSH32 0x8C379A000000000000000000000000000000000000000000000000000000000 DUP2 MSTORE PUSH1 0x4 ADD PUSH2 0xD53 SWAP1 PUSH2 0x2766 JUMP JUMPDEST PUSH1 0x40 MLOAD DUP1 SWAP2 SUB SWAP1 REVERT JUMPDEST PUSH2 0xD68 DUP5 DUP5 DUP5 DUP5 PUSH2 0x16D9 JUMP JUMPDEST POP POP POP POP JUMP JUMPDEST PUSH1 0x60 PUSH2 0xD79 DUP3 PUSH2 0xFBE JUMP JUMPDEST PUSH2 0xDB8 JUMPI PUSH1 0x40 MLOAD PUSH32 0x8C379A000000000000000000000000000000000000000000000000000000000 DUP2 MSTORE PUSH1 0x4 ADD PUSH2 0xDAF SWAP1 PUSH2 0x26C6 JUMP JUMPDEST PUSH1 0x40 MLOAD DUP1 SWAP2 SUB SWAP1 REVERT JUMPDEST PUSH1 0x0 PUSH1 0x6 PUSH1 0x0 DUP5 DUP2 MSTORE PUSH1 0x20 ADD SWAP1 DUP2 MSTORE PUSH1 0x20 ADD PUSH1 0x0 KECCAK256 DUP1 SLOAD PUSH2 0xDD8 SWAP1 PUSH2 0x2A40 JUMP JUMPDEST DUP1 PUSH1 0x1F ADD PUSH1 0x20 DUP1 SWAP2 DIV MUL PUSH1 0x20 ADD PUSH1 0x40 MLOAD SWAP1 DUP2 ADD PUSH1 0x40 MSTORE DUP1 SWAP3 SWAP2 SWAP1 DUP2 DUP2 MSTORE PUSH1 0x20 ADD DUP3 DUP1 SLOAD PUSH2 0xE04 SWAP1 PUSH2 0x2A40 JUMP JUMPDEST DUP1 ISZERO PUSH2 0xE51 JUMPI DUP1 PUSH1 0x1F LT PUSH2 0xE26 JUMPI PUSH2 0x100 DUP1 DUP4 SLOAD DIV MUL DUP4 MSTORE SWAP2 PUSH1 0x20 ADD SWAP2 PUSH2 0xE51 JUMP JUMPDEST DUP3 ADD SWAP2 SWAP1 PUSH1 0x0 MSTORE PUSH1 0x20 PUSH1 0x0 KECCAK256 SWAP1 JUMPDEST DUP2 SLOAD DUP2 MSTORE SWAP1 PUSH1 0x1 ADD SWAP1 PUSH1 0x20 ADD DUP1 DUP4 GT PUSH2 0xE34 JUMPI DUP3 SWAP1 SUB PUSH1 0x1F AND DUP3 ADD SWAP2 JUMPDEST POP POP POP POP POP SWAP1 POP PUSH1 0x0 PUSH2 0xE62 PUSH2 0x1735 JUMP JUMPDEST SWAP1 POP PUSH1 0x0 DUP2 MLOAD EQ ISZERO PUSH2 0xE78 JUMPI DUP2 SWAP3 POP POP POP PUSH2 0xEBB JUMP JUMPDEST PUSH1 0x0 DUP3 MLOAD GT ISZERO PUSH2 0xEAD JUMPI DUP1 DUP3 PUSH1 0x40 MLOAD PUSH1 0x20 ADD PUSH2 0xE95 SWAP3 SWAP2 SWAP1 PUSH2 0x2447 JUMP JUMPDEST PUSH1 0x40 MLOAD PUSH1 0x20 DUP2 DUP4 SUB SUB DUP2 MSTORE SWAP1 PUSH1 0x40 MSTORE SWAP3 POP POP POP PUSH2 0xEBB JUMP JUMPDEST PUSH2 0xEB6 DUP5 PUSH2 0x174C JUMP JUMPDEST SWAP3 POP POP POP JUMPDEST SWAP2 SWAP1 POP JUMP JUMPDEST PUSH1 0x0 PUSH1 0x5 PUSH1 0x0 DUP5 PUSH20 0xFFFFFFFFFFFFFFFFFFFFFFFFFFFFFFFFFFFFFFFF AND PUSH20 0xFFFFFFFFFFFFFFFFFFFFFFFFFFFFFFFFFFFFFFFF AND DUP2 MSTORE PUSH1 0x20 ADD SWAP1 DUP2 MSTORE PUSH1 0x20 ADD PUSH1 0x0 KECCAK256 PUSH1 0x0 DUP4 PUSH20 0xFFFFFFFFFFFFFFFFFFFFFFFFFFFFFFFFFFFFFFFF AND PUSH20 0xFFFFFFFFFFFFFFFFFFFFFFFFFFFFFFFFFFFFFFFF AND DUP2 MSTORE PUSH1 0x20 ADD SWAP1 DUP2 MSTORE PUSH1 0x20 ADD PUSH1 0x0 KECCAK256 PUSH1 0x0 SWAP1 SLOAD SWAP1 PUSH2 0x100 EXP SWAP1 DIV PUSH1 0xFF AND SWAP1 POP SWAP3 SWAP2 POP POP JUMP JUMPDEST PUSH1 0x0 PUSH32 0x1FFC9A700000000000000000000000000000000000000000000000000000000 PUSH28 0xFFFFFFFFFFFFFFFFFFFFFFFFFFFFFFFFFFFFFFFFFFFFFFFFFFFFFFFF NOT AND DUP3 PUSH28 0xFFFFFFFFFFFFFFFFFFFFFFFFFFFFFFFFFFFFFFFFFFFFFFFFFFFFFFFF NOT AND EQ SWAP1 POP SWAP2 SWAP1 POP JUMP JUMPDEST PUSH1 0x0 DUP1 PUSH20 0xFFFFFFFFFFFFFFFFFFFFFFFFFFFFFFFFFFFFFFFF AND PUSH1 0x2 PUSH1 0x0 DUP5 DUP2 MSTORE PUSH1 0x20 ADD SWAP1 DUP2 MSTORE PUSH1 0x20 ADD PUSH1 0x0 KECCAK256 PUSH1 0x0 SWAP1 SLOAD SWAP1 PUSH2 0x100 EXP SWAP1 DIV PUSH20 0xFFFFFFFFFFFFFFFFFFFFFFFFFFFFFFFFFFFFFFFF AND PUSH20 0xFFFFFFFFFFFFFFFFFFFFFFFFFFFFFFFFFFFFFFFF AND EQ ISZERO SWAP1 POP SWAP2 SWAP1 POP JUMP JUMPDEST PUSH1 0x0 CALLER SWAP1 POP SWAP1 JUMP JUMPDEST DUP2 PUSH1 0x4 PUSH1 0x0 DUP4 DUP2 MSTORE PUSH1 0x20 ADD SWAP1 DUP2 MSTORE PUSH1 0x20 ADD PUSH1 0x0 KECCAK256 PUSH1 0x0 PUSH2 0x100 EXP DUP2 SLOAD DUP2 PUSH20 0xFFFFFFFFFFFFFFFFFFFFFFFFFFFFFFFFFFFFFFFF MUL NOT AND SWAP1 DUP4 PUSH20 0xFFFFFFFFFFFFFFFFFFFFFFFFFFFFFFFFFFFFFFFF AND MUL OR SWAP1 SSTORE POP DUP1 DUP3 PUSH20 0xFFFFFFFFFFFFFFFFFFFFFFFFFFFFFFFFFFFFFFFF AND PUSH2 0x10A5 DUP4 PUSH2 0xA35 JUMP JUMPDEST PUSH20 0xFFFFFFFFFFFFFFFFFFFFFFFFFFFFFFFFFFFFFFFF AND PUSH32 0x8C5BE1E5EBEC7D5BD14F71427D1E84F3DD0314C0F7B2291E5B200AC8C7C3B925 PUSH1 0x40 MLOAD PUSH1 0x40 MLOAD DUP1 SWAP2 SUB SWAP1 LOG4 POP POP JUMP JUMPDEST PUSH1 0x0 PUSH1 0x9 PUSH1 0x0 DUP5 DUP2 MSTORE PUSH1 0x20 ADD SWAP1 DUP2 MSTORE PUSH1 0x20 ADD PUSH1 0x0 KECCAK256 PUSH1 0x0 SWAP1 SLOAD SWAP1 PUSH2 0x100 EXP SWAP1 DIV PUSH20 0xFFFFFFFFFFFFFFFFFFFFFFFFFFFFFFFFFFFFFFFF AND SWAP1 POP PUSH1 0x0 PUSH1 0xA SLOAD SWAP1 POP PUSH1 0x1 PUSH1 0xA SLOAD PUSH2 0x1139 SWAP2 SWAP1 PUSH2 0x2893 JUMP JUMPDEST PUSH1 0xA DUP2 SWAP1 SSTORE POP PUSH1 0x0 PUSH1 0x64 DUP5 PUSH1 0x0 DUP2 MLOAD DUP2 LT PUSH2 0x1157 JUMPI PUSH2 0x1156 PUSH2 0x2BAA JUMP JUMPDEST JUMPDEST PUSH1 0x20 MUL PUSH1 0x20 ADD ADD MLOAD PUSH2 0x1169 SWAP2 SWAP1 PUSH2 0x2AEC JUMP JUMPDEST SWAP1 POP PUSH1 0x0 PUSH2 0x1176 DUP3 PUSH2 0xC31 JUMP JUMPDEST SWAP1 POP PUSH2 0x121F DUP4 PUSH1 0xB DUP4 PUSH1 0x3 DUP2 LT PUSH2 0x1190 JUMPI PUSH2 0x118F PUSH2 0x2BAA JUMP JUMPDEST JUMPDEST ADD DUP1 SLOAD PUSH2 0x119C SWAP1 PUSH2 0x2A40 JUMP JUMPDEST DUP1 PUSH1 0x1F ADD PUSH1 0x20 DUP1 SWAP2 DIV MUL PUSH1 0x20 ADD PUSH1 0x40 MLOAD SWAP1 DUP2 ADD PUSH1 0x40 MSTORE DUP1 SWAP3 SWAP2 SWAP1 DUP2 DUP2 MSTORE PUSH1 0x20 ADD DUP3 DUP1 SLOAD PUSH2 0x11C8 SWAP1 PUSH2 0x2A40 JUMP JUMPDEST DUP1 ISZERO PUSH2 0x1215 JUMPI DUP1 PUSH1 0x1F LT PUSH2 0x11EA JUMPI PUSH2 0x100 DUP1 DUP4 SLOAD DIV MUL DUP4 MSTORE SWAP2 PUSH1 0x20 ADD SWAP2 PUSH2 0x1215 JUMP JUMPDEST DUP3 ADD SWAP2 SWAP1 PUSH1 0x0 MSTORE PUSH1 0x20 PUSH1 0x0 KECCAK256 SWAP1 JUMPDEST DUP2 SLOAD DUP2 MSTORE SWAP1 PUSH1 0x1 ADD SWAP1 PUSH1 0x20 ADD DUP1 DUP4 GT PUSH2 0x11F8 JUMPI DUP3 SWAP1 SUB PUSH1 0x1F AND DUP3 ADD SWAP2 JUMPDEST POP POP POP POP POP PUSH2 0x17F3 JUMP JUMPDEST POP POP POP POP POP POP JUMP JUMPDEST PUSH1 0x0 PUSH2 0x1232 DUP3 PUSH2 0xFBE JUMP JUMPDEST PUSH2 0x1271 JUMPI PUSH1 0x40 MLOAD PUSH32 0x8C379A000000000000000000000000000000000000000000000000000000000 DUP2 MSTORE PUSH1 0x4 ADD PUSH2 0x1268 SWAP1 PUSH2 0x2626 JUMP JUMPDEST PUSH1 0x40 MLOAD DUP1 SWAP2 SUB SWAP1 REVERT JUMPDEST PUSH1 0x0 PUSH2 0x127C DUP4 PUSH2 0xA35 JUMP JUMPDEST SWAP1 POP DUP1 PUSH20 0xFFFFFFFFFFFFFFFFFFFFFFFFFFFFFFFFFFFFFFFF AND DUP5 PUSH20 0xFFFFFFFFFFFFFFFFFFFFFFFFFFFFFFFFFFFFFFFF AND EQ DUP1 PUSH2 0x12BE JUMPI POP PUSH2 0x12BD DUP2 DUP6 PUSH2 0xEC0 JUMP JUMPDEST JUMPDEST DUP1 PUSH2 0x12FC JUMPI POP DUP4 PUSH20 0xFFFFFFFFFFFFFFFFFFFFFFFFFFFFFFFFFFFFFFFF AND PUSH2 0x12E4 DUP5 PUSH2 0x52F JUMP JUMPDEST PUSH20 0xFFFFFFFFFFFFFFFFFFFFFFFFFFFFFFFFFFFFFFFF AND EQ JUMPDEST SWAP2 POP POP SWAP3 SWAP2 POP POP JUMP JUMPDEST DUP3 PUSH20 0xFFFFFFFFFFFFFFFFFFFFFFFFFFFFFFFFFFFFFFFF AND PUSH2 0x1325 DUP3 PUSH2 0xA35 JUMP JUMPDEST PUSH20 0xFFFFFFFFFFFFFFFFFFFFFFFFFFFFFFFFFFFFFFFF AND EQ PUSH2 0x137B JUMPI PUSH1 0x40 MLOAD PUSH32 0x8C379A000000000000000000000000000000000000000000000000000000000 DUP2 MSTORE PUSH1 0x4 ADD PUSH2 0x1372 SWAP1 PUSH2 0x25C6 JUMP JUMPDEST PUSH1 0x40 MLOAD DUP1 SWAP2 SUB SWAP1 REVERT JUMPDEST PUSH1 0x0 PUSH20 0xFFFFFFFFFFFFFFFFFFFFFFFFFFFFFFFFFFFFFFFF AND DUP3 PUSH20 0xFFFFFFFFFFFFFFFFFFFFFFFFFFFFFFFFFFFFFFFF AND EQ ISZERO PUSH2 0x13EB JUMPI PUSH1 0x40 MLOAD PUSH32 0x8C379A000000000000000000000000000000000000000000000000000000000 DUP2 MSTORE PUSH1 0x4 ADD PUSH2 0x13E2 SWAP1 PUSH2 0x25E6 JUMP JUMPDEST PUSH1 0x40 MLOAD DUP1 SWAP2 SUB SWAP1 REVERT JUMPDEST PUSH2 0x13F6 DUP4 DUP4 DUP4 PUSH2 0x1867 JUMP JUMPDEST PUSH2 0x1401 PUSH1 0x0 DUP3 PUSH2 0x1032 JUMP JUMPDEST PUSH1 0x1 PUSH1 0x3 PUSH1 0x0 DUP6 PUSH20 0xFFFFFFFFFFFFFFFFFFFFFFFFFFFFFFFFFFFFFFFF AND PUSH20 0xFFFFFFFFFFFFFFFFFFFFFFFFFFFFFFFFFFFFFFFF AND DUP2 MSTORE PUSH1 0x20 ADD SWAP1 DUP2 MSTORE PUSH1 0x20 ADD PUSH1 0x0 KECCAK256 PUSH1 0x0 DUP3 DUP3 SLOAD PUSH2 0x1451 SWAP2 SWAP1 PUSH2 0x291A JUMP JUMPDEST SWAP3 POP POP DUP2 SWAP1 SSTORE POP PUSH1 0x1 PUSH1 0x3 PUSH1 0x0 DUP5 PUSH20 0xFFFFFFFFFFFFFFFFFFFFFFFFFFFFFFFFFFFFFFFF AND PUSH20 0xFFFFFFFFFFFFFFFFFFFFFFFFFFFFFFFFFFFFFFFF AND DUP2 MSTORE PUSH1 0x20 ADD SWAP1 DUP2 MSTORE PUSH1 0x20 ADD PUSH1 0x0 KECCAK256 PUSH1 0x0 DUP3 DUP3 SLOAD PUSH2 0x14A8 SWAP2 SWAP1 PUSH2 0x2893 JUMP JUMPDEST SWAP3 POP POP DUP2 SWAP1 SSTORE POP DUP2 PUSH1 0x2 PUSH1 0x0 DUP4 DUP2 MSTORE PUSH1 0x20 ADD SWAP1 DUP2 MSTORE PUSH1 0x20 ADD PUSH1 0x0 KECCAK256 PUSH1 0x0 PUSH2 0x100 EXP DUP2 SLOAD DUP2 PUSH20 0xFFFFFFFFFFFFFFFFFFFFFFFFFFFFFFFFFFFFFFFF MUL NOT AND SWAP1 DUP4 PUSH20 0xFFFFFFFFFFFFFFFFFFFFFFFFFFFFFFFFFFFFFFFF AND MUL OR SWAP1 SSTORE POP DUP1 DUP3 PUSH20 0xFFFFFFFFFFFFFFFFFFFFFFFFFFFFFFFFFFFFFFFF AND DUP5 PUSH20 0xFFFFFFFFFFFFFFFFFFFFFFFFFFFFFFFFFFFFFFFF AND PUSH32 0xDDF252AD1BE2C89B69C2B068FC378DAA952BA7F163C4A11628F55A4DF523B3EF PUSH1 0x40 MLOAD PUSH1 0x40 MLOAD DUP1 SWAP2 SUB SWAP1 LOG4 PUSH2 0x1567 DUP4 DUP4 DUP4 PUSH2 0x186C JUMP JUMPDEST POP POP POP JUMP JUMPDEST DUP2 PUSH20 0xFFFFFFFFFFFFFFFFFFFFFFFFFFFFFFFFFFFFFFFF AND DUP4 PUSH20 0xFFFFFFFFFFFFFFFFFFFFFFFFFFFFFFFFFFFFFFFF AND EQ ISZERO PUSH2 0x15DB JUMPI PUSH1 0x40 MLOAD PUSH32 0x8C379A000000000000000000000000000000000000000000000000000000000 DUP2 MSTORE PUSH1 0x4 ADD PUSH2 0x15D2 SWAP1 PUSH2 0x2606 JUMP JUMPDEST PUSH1 0x40 MLOAD DUP1 SWAP2 SUB SWAP1 REVERT JUMPDEST DUP1 PUSH1 0x5 PUSH1 0x0 DUP6 PUSH20 0xFFFFFFFFFFFFFFFFFFFFFFFFFFFFFFFFFFFFFFFF AND PUSH20 0xFFFFFFFFFFFFFFFFFFFFFFFFFFFFFFFFFFFFFFFF AND DUP2 MSTORE PUSH1 0x20 ADD SWAP1 DUP2 MSTORE PUSH1 0x20 ADD PUSH1 0x0 KECCAK256 PUSH1 0x0 DUP5 PUSH20 0xFFFFFFFFFFFFFFFFFFFFFFFFFFFFFFFFFFFFFFFF AND PUSH20 0xFFFFFFFFFFFFFFFFFFFFFFFFFFFFFFFFFFFFFFFF AND DUP2 MSTORE PUSH1 0x20 ADD SWAP1 DUP2 MSTORE PUSH1 0x20 ADD PUSH1 0x0 KECCAK256 PUSH1 0x0 PUSH2 0x100 EXP DUP2 SLOAD DUP2 PUSH1 0xFF MUL NOT AND SWAP1 DUP4 ISZERO ISZERO MUL OR SWAP1 SSTORE POP DUP2 PUSH20 0xFFFFFFFFFFFFFFFFFFFFFFFFFFFFFFFFFFFFFFFF AND DUP4 PUSH20 0xFFFFFFFFFFFFFFFFFFFFFFFFFFFFFFFFFFFFFFFF AND PUSH32 0x17307EAB39AB6107E8899845AD3D59BD9653F200F220920489CA2B5937696C31 DUP4 PUSH1 0x40 MLOAD PUSH2 0x16CC SWAP2 SWAP1 PUSH2 0x2516 JUMP JUMPDEST PUSH1 0x40 MLOAD DUP1 SWAP2 SUB SWAP1 LOG3 POP POP POP JUMP JUMPDEST PUSH2 0x16E4 DUP5 DUP5 DUP5 PUSH2 0x1305 JUMP JUMPDEST PUSH2 0x16F0 DUP5 DUP5 DUP5 DUP5 PUSH2 0x1871 JUMP JUMPDEST PUSH2 0x172F JUMPI PUSH1 0x40 MLOAD PUSH32 0x8C379A000000000000000000000000000000000000000000000000000000000 DUP2 MSTORE PUSH1 0x4 ADD PUSH2 0x1726 SWAP1 PUSH2 0x25A6 JUMP JUMPDEST PUSH1 0x40 MLOAD DUP1 SWAP2 SUB SWAP1 REVERT JUMPDEST POP POP POP POP JUMP JUMPDEST PUSH1 0x60 PUSH1 0x40 MLOAD DUP1 PUSH1 0x20 ADD PUSH1 0x40 MSTORE DUP1 PUSH1 0x0 DUP2 MSTORE POP SWAP1 POP SWAP1 JUMP JUMPDEST PUSH1 0x60 PUSH2 0x1757 DUP3 PUSH2 0xFBE JUMP JUMPDEST PUSH2 0x1796 JUMPI PUSH1 0x40 MLOAD PUSH32 0x8C379A000000000000000000000000000000000000000000000000000000000 DUP2 MSTORE PUSH1 0x4 ADD PUSH2 0x178D SWAP1 PUSH2 0x2726 JUMP JUMPDEST PUSH1 0x40 MLOAD DUP1 SWAP2 SUB SWAP1 REVERT JUMPDEST PUSH1 0x0 PUSH2 0x17A0 PUSH2 0x1735 JUMP JUMPDEST SWAP1 POP PUSH1 0x0 DUP2 MLOAD GT PUSH2 0x17C0 JUMPI PUSH1 0x40 MLOAD DUP1 PUSH1 0x20 ADD PUSH1 0x40 MSTORE DUP1 PUSH1 0x0 DUP2 MSTORE POP PUSH2 0x17EB JUMP JUMPDEST DUP1 PUSH2 0x17CA DUP5 PUSH2 0x1A08 JUMP JUMPDEST PUSH1 0x40 MLOAD PUSH1 0x20 ADD PUSH2 0x17DB SWAP3 SWAP2 SWAP1 PUSH2 0x2447 JUMP JUMPDEST PUSH1 0x40 MLOAD PUSH1 0x20 DUP2 DUP4 SUB SUB DUP2 MSTORE SWAP1 PUSH1 0x40 MSTORE JUMPDEST SWAP2 POP POP SWAP2 SWAP1 POP JUMP JUMPDEST PUSH2 0x17FC DUP3 PUSH2 0xFBE JUMP JUMPDEST PUSH2 0x183B JUMPI PUSH1 0x40 MLOAD PUSH32 0x8C379A000000000000000000000000000000000000000000000000000000000 DUP2 MSTORE PUSH1 0x4 ADD PUSH2 0x1832 SWAP1 PUSH2 0x26A6 JUMP JUMPDEST PUSH1 0x40 MLOAD DUP1 SWAP2 SUB SWAP1 REVERT JUMPDEST DUP1 PUSH1 0x6 PUSH1 0x0 DUP5 DUP2 MSTORE PUSH1 0x20 ADD SWAP1 DUP2 MSTORE PUSH1 0x20 ADD PUSH1 0x0 KECCAK256 SWAP1 DUP1 MLOAD SWAP1 PUSH1 0x20 ADD SWAP1 PUSH2 0x1862 SWAP3 SWAP2 SWAP1 PUSH2 0x1BAE JUMP JUMPDEST POP POP POP JUMP JUMPDEST POP POP POP JUMP JUMPDEST POP POP POP JUMP JUMPDEST PUSH1 0x0 PUSH2 0x1892 DUP5 PUSH20 0xFFFFFFFFFFFFFFFFFFFFFFFFFFFFFFFFFFFFFFFF AND PUSH2 0x1B69 JUMP JUMPDEST ISZERO PUSH2 0x19FB JUMPI DUP4 PUSH20 0xFFFFFFFFFFFFFFFFFFFFFFFFFFFFFFFFFFFFFFFF AND PUSH4 0x150B7A02 PUSH2 0x18BB PUSH2 0x102A JUMP JUMPDEST DUP8 DUP7 DUP7 PUSH1 0x40 MLOAD DUP6 PUSH4 0xFFFFFFFF AND PUSH1 0xE0 SHL DUP2 MSTORE PUSH1 0x4 ADD PUSH2 0x18DD SWAP5 SWAP4 SWAP3 SWAP2 SWAP1 PUSH2 0x24AF JUMP JUMPDEST PUSH1 0x20 PUSH1 0x40 MLOAD DUP1 DUP4 SUB DUP2 PUSH1 0x0 DUP8 DUP1 EXTCODESIZE ISZERO DUP1 ISZERO PUSH2 0x18F7 JUMPI PUSH1 0x0 DUP1 REVERT JUMPDEST POP GAS CALL SWAP3 POP POP POP DUP1 ISZERO PUSH2 0x1928 JUMPI POP PUSH1 0x40 MLOAD RETURNDATASIZE PUSH1 0x1F NOT PUSH1 0x1F DUP3 ADD AND DUP3 ADD DUP1 PUSH1 0x40 MSTORE POP DUP2 ADD SWAP1 PUSH2 0x1925 SWAP2 SWAP1 PUSH2 0x1FCD JUMP JUMPDEST PUSH1 0x1 JUMPDEST PUSH2 0x19AB JUMPI RETURNDATASIZE DUP1 PUSH1 0x0 DUP2 EQ PUSH2 0x1958 JUMPI PUSH1 0x40 MLOAD SWAP2 POP PUSH1 0x1F NOT PUSH1 0x3F RETURNDATASIZE ADD AND DUP3 ADD PUSH1 0x40 MSTORE RETURNDATASIZE DUP3 MSTORE RETURNDATASIZE PUSH1 0x0 PUSH1 0x20 DUP5 ADD RETURNDATACOPY PUSH2 0x195D JUMP JUMPDEST PUSH1 0x60 SWAP2 POP JUMPDEST POP PUSH1 0x0 DUP2 MLOAD EQ ISZERO PUSH2 0x19A3 JUMPI PUSH1 0x40 MLOAD PUSH32 0x8C379A000000000000000000000000000000000000000000000000000000000 DUP2 MSTORE PUSH1 0x4 ADD PUSH2 0x199A SWAP1 PUSH2 0x25A6 JUMP JUMPDEST PUSH1 0x40 MLOAD DUP1 SWAP2 SUB SWAP1 REVERT JUMPDEST DUP1 MLOAD DUP2 PUSH1 0x20 ADD REVERT JUMPDEST PUSH4 0x150B7A02 PUSH1 0xE0 SHL PUSH28 0xFFFFFFFFFFFFFFFFFFFFFFFFFFFFFFFFFFFFFFFFFFFFFFFFFFFFFFFF NOT AND DUP2 PUSH28 0xFFFFFFFFFFFFFFFFFFFFFFFFFFFFFFFFFFFFFFFFFFFFFFFFFFFFFFFF NOT AND EQ SWAP2 POP POP PUSH2 0x1A00 JUMP JUMPDEST PUSH1 0x1 SWAP1 POP JUMPDEST SWAP5 SWAP4 POP POP POP POP JUMP JUMPDEST PUSH1 0x60 PUSH1 0x0 DUP3 EQ ISZERO PUSH2 0x1A50 JUMPI PUSH1 0x40 MLOAD DUP1 PUSH1 0x40 ADD PUSH1 0x40 MSTORE DUP1 PUSH1 0x1 DUP2 MSTORE PUSH1 0x20 ADD PUSH32 0x3000000000000000000000000000000000000000000000000000000000000000 DUP2 MSTORE POP SWAP1 POP PUSH2 0x1B64 JUMP JUMPDEST PUSH1 0x0 DUP3 SWAP1 POP PUSH1 0x0 JUMPDEST PUSH1 0x0 DUP3 EQ PUSH2 0x1A82 JUMPI DUP1 DUP1 PUSH2 0x1A6B SWAP1 PUSH2 0x2AA3 JUMP JUMPDEST SWAP2 POP POP PUSH1 0xA DUP3 PUSH2 0x1A7B SWAP2 SWAP1 PUSH2 0x28E9 JUMP JUMPDEST SWAP2 POP PUSH2 0x1A58 JUMP JUMPDEST PUSH1 0x0 DUP2 PUSH8 0xFFFFFFFFFFFFFFFF DUP2 GT ISZERO PUSH2 0x1A9E JUMPI PUSH2 0x1A9D PUSH2 0x2BD9 JUMP JUMPDEST JUMPDEST PUSH1 0x40 MLOAD SWAP1 DUP1 DUP3 MSTORE DUP1 PUSH1 0x1F ADD PUSH1 0x1F NOT AND PUSH1 0x20 ADD DUP3 ADD PUSH1 0x40 MSTORE DUP1 ISZERO PUSH2 0x1AD0 JUMPI DUP2 PUSH1 0x20 ADD PUSH1 0x1 DUP3 MUL DUP1 CALLDATASIZE DUP4 CALLDATACOPY DUP1 DUP3 ADD SWAP2 POP POP SWAP1 POP JUMPDEST POP SWAP1 POP JUMPDEST PUSH1 0x0 DUP6 EQ PUSH2 0x1B5D JUMPI PUSH1 0x1 DUP3 PUSH2 0x1AE9 SWAP2 SWAP1 PUSH2 0x291A JUMP JUMPDEST SWAP2 POP PUSH1 0xA DUP6 PUSH2 0x1AF8 SWAP2 SWAP1 PUSH2 0x2AEC JUMP JUMPDEST PUSH1 0x30 PUSH2 0x1B04 SWAP2 SWAP1 PUSH2 0x2893 JUMP JUMPDEST PUSH1 0xF8 SHL DUP2 DUP4 DUP2 MLOAD DUP2 LT PUSH2 0x1B1A JUMPI PUSH2 0x1B19 PUSH2 0x2BAA JUMP JUMPDEST JUMPDEST PUSH1 0x20 ADD ADD SWAP1 PUSH31 0xFFFFFFFFFFFFFFFFFFFFFFFFFFFFFFFFFFFFFFFFFFFFFFFFFFFFFFFFFFFFFF NOT AND SWAP1 DUP2 PUSH1 0x0 BYTE SWAP1 MSTORE8 POP PUSH1 0xA DUP6 PUSH2 0x1B56 SWAP2 SWAP1 PUSH2 0x28E9 JUMP JUMPDEST SWAP5 POP PUSH2 0x1AD4 JUMP JUMPDEST DUP1 SWAP4 POP POP POP POP JUMPDEST SWAP2 SWAP1 POP JUMP JUMPDEST PUSH1 0x0 DUP1 DUP3 PUSH20 0xFFFFFFFFFFFFFFFFFFFFFFFFFFFFFFFFFFFFFFFF AND EXTCODESIZE GT SWAP1 POP SWAP2 SWAP1 POP JUMP JUMPDEST PUSH1 0x40 MLOAD DUP1 PUSH1 0x60 ADD PUSH1 0x40 MSTORE DUP1 PUSH1 0x3 SWAP1 PUSH1 0x20 DUP3 MUL DUP1 CALLDATASIZE DUP4 CALLDATACOPY DUP1 DUP3 ADD SWAP2 POP POP SWAP1 POP POP SWAP1 JUMP JUMPDEST DUP3 DUP1 SLOAD PUSH2 0x1BBA SWAP1 PUSH2 0x2A40 JUMP JUMPDEST SWAP1 PUSH1 0x0 MSTORE PUSH1 0x20 PUSH1 0x0 KECCAK256 SWAP1 PUSH1 0x1F ADD PUSH1 0x20 SWAP1 DIV DUP2 ADD SWAP3 DUP3 PUSH2 0x1BDC JUMPI PUSH1 0x0 DUP6 SSTORE PUSH2 0x1C23 JUMP JUMPDEST DUP3 PUSH1 0x1F LT PUSH2 0x1BF5 JUMPI DUP1 MLOAD PUSH1 0xFF NOT AND DUP4 DUP1 ADD OR DUP6 SSTORE PUSH2 0x1C23 JUMP JUMPDEST DUP3 DUP1 ADD PUSH1 0x1 ADD DUP6 SSTORE DUP3 ISZERO PUSH2 0x1C23 JUMPI SWAP2 DUP3 ADD JUMPDEST DUP3 DUP2 GT ISZERO PUSH2 0x1C22 JUMPI DUP3 MLOAD DUP3 SSTORE SWAP2 PUSH1 0x20 ADD SWAP2 SWAP1 PUSH1 0x1 ADD SWAP1 PUSH2 0x1C07 JUMP JUMPDEST JUMPDEST POP SWAP1 POP PUSH2 0x1C30 SWAP2 SWAP1 PUSH2 0x1C34 JUMP JUMPDEST POP SWAP1 JUMP JUMPDEST JUMPDEST DUP1 DUP3 GT ISZERO PUSH2 0x1C4D JUMPI PUSH1 0x0 DUP2 PUSH1 0x0 SWAP1 SSTORE POP PUSH1 0x1 ADD PUSH2 0x1C35 JUMP JUMPDEST POP SWAP1 JUMP JUMPDEST PUSH1 0x0 PUSH2 0x1C64 PUSH2 0x1C5F DUP5 PUSH2 0x27C6 JUMP JUMPDEST PUSH2 0x27A1 JUMP JUMPDEST SWAP1 POP DUP1 DUP4 DUP3 MSTORE PUSH1 0x20 DUP3 ADD SWAP1 POP DUP3 DUP6 PUSH1 0x20 DUP7 MUL DUP3 ADD GT ISZERO PUSH2 0x1C87 JUMPI PUSH2 0x1C86 PUSH2 0x2C0D JUMP JUMPDEST JUMPDEST PUSH1 0x0 JUMPDEST DUP6 DUP2 LT ISZERO PUSH2 0x1CB7 JUMPI DUP2 PUSH2 0x1C9D DUP9 DUP3 PUSH2 0x1DB3 JUMP JUMPDEST DUP5 MSTORE PUSH1 0x20 DUP5 ADD SWAP4 POP PUSH1 0x20 DUP4 ADD SWAP3 POP POP PUSH1 0x1 DUP2 ADD SWAP1 POP PUSH2 0x1C8A JUMP JUMPDEST POP POP POP SWAP4 SWAP3 POP POP POP JUMP JUMPDEST PUSH1 0x0 PUSH2 0x1CD4 PUSH2 0x1CCF DUP5 PUSH2 0x27F2 JUMP JUMPDEST PUSH2 0x27A1 JUMP JUMPDEST SWAP1 POP DUP3 DUP2 MSTORE PUSH1 0x20 DUP2 ADD DUP5 DUP5 DUP5 ADD GT ISZERO PUSH2 0x1CF0 JUMPI PUSH2 0x1CEF PUSH2 0x2C12 JUMP JUMPDEST JUMPDEST PUSH2 0x1CFB DUP5 DUP3 DUP6 PUSH2 0x29FE JUMP JUMPDEST POP SWAP4 SWAP3 POP POP POP JUMP JUMPDEST PUSH1 0x0 DUP2 CALLDATALOAD SWAP1 POP PUSH2 0x1D12 DUP2 PUSH2 0x30AD JUMP JUMPDEST SWAP3 SWAP2 POP POP JUMP JUMPDEST PUSH1 0x0 DUP3 PUSH1 0x1F DUP4 ADD SLT PUSH2 0x1D2D JUMPI PUSH2 0x1D2C PUSH2 0x2C08 JUMP JUMPDEST JUMPDEST DUP2 CALLDATALOAD PUSH2 0x1D3D DUP5 DUP3 PUSH1 0x20 DUP7 ADD PUSH2 0x1C51 JUMP JUMPDEST SWAP2 POP POP SWAP3 SWAP2 POP POP JUMP JUMPDEST PUSH1 0x0 DUP2 CALLDATALOAD SWAP1 POP PUSH2 0x1D55 DUP2 PUSH2 0x30C4 JUMP JUMPDEST SWAP3 SWAP2 POP POP JUMP JUMPDEST PUSH1 0x0 DUP2 CALLDATALOAD SWAP1 POP PUSH2 0x1D6A DUP2 PUSH2 0x30DB JUMP JUMPDEST SWAP3 SWAP2 POP POP JUMP JUMPDEST PUSH1 0x0 DUP2 MLOAD SWAP1 POP PUSH2 0x1D7F DUP2 PUSH2 0x30DB JUMP JUMPDEST SWAP3 SWAP2 POP POP JUMP JUMPDEST PUSH1 0x0 DUP3 PUSH1 0x1F DUP4 ADD SLT PUSH2 0x1D9A JUMPI PUSH2 0x1D99 PUSH2 0x2C08 JUMP JUMPDEST JUMPDEST DUP2 CALLDATALOAD PUSH2 0x1DAA DUP5 DUP3 PUSH1 0x20 DUP7 ADD PUSH2 0x1CC1 JUMP JUMPDEST SWAP2 POP POP SWAP3 SWAP2 POP POP JUMP JUMPDEST PUSH1 0x0 DUP2 CALLDATALOAD SWAP1 POP PUSH2 0x1DC2 DUP2 PUSH2 0x30F2 JUMP JUMPDEST SWAP3 SWAP2 POP POP JUMP JUMPDEST PUSH1 0x0 DUP2 MLOAD SWAP1 POP PUSH2 0x1DD7 DUP2 PUSH2 0x30F2 JUMP JUMPDEST SWAP3 SWAP2 POP POP JUMP JUMPDEST PUSH1 0x0 PUSH1 0x20 DUP3 DUP5 SUB SLT ISZERO PUSH2 0x1DF3 JUMPI PUSH2 0x1DF2 PUSH2 0x2C1C JUMP JUMPDEST JUMPDEST PUSH1 0x0 PUSH2 0x1E01 DUP5 DUP3 DUP6 ADD PUSH2 0x1D03 JUMP JUMPDEST SWAP2 POP POP SWAP3 SWAP2 POP POP JUMP JUMPDEST PUSH1 0x0 DUP1 PUSH1 0x40 DUP4 DUP6 SUB SLT ISZERO PUSH2 0x1E21 JUMPI PUSH2 0x1E20 PUSH2 0x2C1C JUMP JUMPDEST JUMPDEST PUSH1 0x0 PUSH2 0x1E2F DUP6 DUP3 DUP7 ADD PUSH2 0x1D03 JUMP JUMPDEST SWAP3 POP POP PUSH1 0x20 PUSH2 0x1E40 DUP6 DUP3 DUP7 ADD PUSH2 0x1D03 JUMP JUMPDEST SWAP2 POP POP SWAP3 POP SWAP3 SWAP1 POP JUMP JUMPDEST PUSH1 0x0 DUP1 PUSH1 0x0 PUSH1 0x60 DUP5 DUP7 SUB SLT ISZERO PUSH2 0x1E63 JUMPI PUSH2 0x1E62 PUSH2 0x2C1C JUMP JUMPDEST JUMPDEST PUSH1 0x0 PUSH2 0x1E71 DUP7 DUP3 DUP8 ADD PUSH2 0x1D03 JUMP JUMPDEST SWAP4 POP POP PUSH1 0x20 PUSH2 0x1E82 DUP7 DUP3 DUP8 ADD PUSH2 0x1D03 JUMP JUMPDEST SWAP3 POP POP PUSH1 0x40 PUSH2 0x1E93 DUP7 DUP3 DUP8 ADD PUSH2 0x1DB3 JUMP JUMPDEST SWAP2 POP POP SWAP3 POP SWAP3 POP SWAP3 JUMP JUMPDEST PUSH1 0x0 DUP1 PUSH1 0x0 DUP1 PUSH1 0x80 DUP6 DUP8 SUB SLT ISZERO PUSH2 0x1EB7 JUMPI PUSH2 0x1EB6 PUSH2 0x2C1C JUMP JUMPDEST JUMPDEST PUSH1 0x0 PUSH2 0x1EC5 DUP8 DUP3 DUP9 ADD PUSH2 0x1D03 JUMP JUMPDEST SWAP5 POP POP PUSH1 0x20 PUSH2 0x1ED6 DUP8 DUP3 DUP9 ADD PUSH2 0x1D03 JUMP JUMPDEST SWAP4 POP POP PUSH1 0x40 PUSH2 0x1EE7 DUP8 DUP3 DUP9 ADD PUSH2 0x1DB3 JUMP JUMPDEST SWAP3 POP POP PUSH1 0x60 DUP6 ADD CALLDATALOAD PUSH8 0xFFFFFFFFFFFFFFFF DUP2 GT ISZERO PUSH2 0x1F08 JUMPI PUSH2 0x1F07 PUSH2 0x2C17 JUMP JUMPDEST JUMPDEST PUSH2 0x1F14 DUP8 DUP3 DUP9 ADD PUSH2 0x1D85 JUMP JUMPDEST SWAP2 POP POP SWAP3 SWAP6 SWAP2 SWAP5 POP SWAP3 POP JUMP JUMPDEST PUSH1 0x0 DUP1 PUSH1 0x40 DUP4 DUP6 SUB SLT ISZERO PUSH2 0x1F37 JUMPI PUSH2 0x1F36 PUSH2 0x2C1C JUMP JUMPDEST JUMPDEST PUSH1 0x0 PUSH2 0x1F45 DUP6 DUP3 DUP7 ADD PUSH2 0x1D03 JUMP JUMPDEST SWAP3 POP POP PUSH1 0x20 PUSH2 0x1F56 DUP6 DUP3 DUP7 ADD PUSH2 0x1D46 JUMP JUMPDEST SWAP2 POP POP SWAP3 POP SWAP3 SWAP1 POP JUMP JUMPDEST PUSH1 0x0 DUP1 PUSH1 0x40 DUP4 DUP6 SUB SLT ISZERO PUSH2 0x1F77 JUMPI PUSH2 0x1F76 PUSH2 0x2C1C JUMP JUMPDEST JUMPDEST PUSH1 0x0 PUSH2 0x1F85 DUP6 DUP3 DUP7 ADD PUSH2 0x1D03 JUMP JUMPDEST SWAP3 POP POP PUSH1 0x20 PUSH2 0x1F96 DUP6 DUP3 DUP7 ADD PUSH2 0x1DB3 JUMP JUMPDEST SWAP2 POP POP SWAP3 POP SWAP3 SWAP1 POP JUMP JUMPDEST PUSH1 0x0 PUSH1 0x20 DUP3 DUP5 SUB SLT ISZERO PUSH2 0x1FB6 JUMPI PUSH2 0x1FB5 PUSH2 0x2C1C JUMP JUMPDEST JUMPDEST PUSH1 0x0 PUSH2 0x1FC4 DUP5 DUP3 DUP6 ADD PUSH2 0x1D5B JUMP JUMPDEST SWAP2 POP POP SWAP3 SWAP2 POP POP JUMP JUMPDEST PUSH1 0x0 PUSH1 0x20 DUP3 DUP5 SUB SLT ISZERO PUSH2 0x1FE3 JUMPI PUSH2 0x1FE2 PUSH2 0x2C1C JUMP JUMPDEST JUMPDEST PUSH1 0x0 PUSH2 0x1FF1 DUP5 DUP3 DUP6 ADD PUSH2 0x1D70 JUMP JUMPDEST SWAP2 POP POP SWAP3 SWAP2 POP POP JUMP JUMPDEST PUSH1 0x0 PUSH1 0x20 DUP3 DUP5 SUB SLT ISZERO PUSH2 0x2010 JUMPI PUSH2 0x200F PUSH2 0x2C1C JUMP JUMPDEST JUMPDEST PUSH1 0x0 PUSH2 0x201E DUP5 DUP3 DUP6 ADD PUSH2 0x1DB3 JUMP JUMPDEST SWAP2 POP POP SWAP3 SWAP2 POP POP JUMP JUMPDEST PUSH1 0x0 PUSH1 0x20 DUP3 DUP5 SUB SLT ISZERO PUSH2 0x203D JUMPI PUSH2 0x203C PUSH2 0x2C1C JUMP JUMPDEST JUMPDEST PUSH1 0x0 PUSH2 0x204B DUP5 DUP3 DUP6 ADD PUSH2 0x1DC8 JUMP JUMPDEST SWAP2 POP POP SWAP3 SWAP2 POP POP JUMP JUMPDEST PUSH1 0x0 DUP1 PUSH1 0x40 DUP4 DUP6 SUB SLT ISZERO PUSH2 0x206B JUMPI PUSH2 0x206A PUSH2 0x2C1C JUMP JUMPDEST JUMPDEST PUSH1 0x0 PUSH2 0x2079 DUP6 DUP3 DUP7 ADD PUSH2 0x1DB3 JUMP JUMPDEST SWAP3 POP POP PUSH1 0x20 DUP4 ADD CALLDATALOAD PUSH8 0xFFFFFFFFFFFFFFFF DUP2 GT ISZERO PUSH2 0x209A JUMPI PUSH2 0x2099 PUSH2 0x2C17 JUMP JUMPDEST JUMPDEST PUSH2 0x20A6 DUP6 DUP3 DUP7 ADD PUSH2 0x1D18 JUMP JUMPDEST SWAP2 POP POP SWAP3 POP SWAP3 SWAP1 POP JUMP JUMPDEST PUSH1 0x0 PUSH2 0x20BC DUP4 DUP4 PUSH2 0x240B JUMP JUMPDEST PUSH1 0x20 DUP4 ADD SWAP1 POP SWAP3 SWAP2 POP POP JUMP JUMPDEST PUSH2 0x20D1 DUP2 PUSH2 0x294E JUMP JUMPDEST DUP3 MSTORE POP POP JUMP JUMPDEST PUSH2 0x20E0 DUP2 PUSH2 0x282D JUMP JUMPDEST PUSH2 0x20EA DUP2 DUP5 PUSH2 0x285B JUMP JUMPDEST SWAP3 POP PUSH2 0x20F5 DUP3 PUSH2 0x2823 JUMP JUMPDEST DUP1 PUSH1 0x0 JUMPDEST DUP4 DUP2 LT ISZERO PUSH2 0x2126 JUMPI DUP2 MLOAD PUSH2 0x210D DUP8 DUP3 PUSH2 0x20B0 JUMP JUMPDEST SWAP7 POP PUSH2 0x2118 DUP4 PUSH2 0x284E JUMP JUMPDEST SWAP3 POP POP PUSH1 0x1 DUP2 ADD SWAP1 POP PUSH2 0x20F9 JUMP JUMPDEST POP POP POP POP POP POP JUMP JUMPDEST PUSH2 0x2137 DUP2 PUSH2 0x2960 JUMP JUMPDEST DUP3 MSTORE POP POP JUMP JUMPDEST PUSH2 0x2146 DUP2 PUSH2 0x296C JUMP JUMPDEST DUP3 MSTORE POP POP JUMP JUMPDEST PUSH1 0x0 PUSH2 0x2157 DUP3 PUSH2 0x2838 JUMP JUMPDEST PUSH2 0x2161 DUP2 DUP6 PUSH2 0x2866 JUMP JUMPDEST SWAP4 POP PUSH2 0x2171 DUP2 DUP6 PUSH1 0x20 DUP7 ADD PUSH2 0x2A0D JUMP JUMPDEST PUSH2 0x217A DUP2 PUSH2 0x2C21 JUMP JUMPDEST DUP5 ADD SWAP2 POP POP SWAP3 SWAP2 POP POP JUMP JUMPDEST PUSH1 0x0 PUSH2 0x2190 DUP3 PUSH2 0x2843 JUMP JUMPDEST PUSH2 0x219A DUP2 DUP6 PUSH2 0x2877 JUMP JUMPDEST SWAP4 POP PUSH2 0x21AA DUP2 DUP6 PUSH1 0x20 DUP7 ADD PUSH2 0x2A0D JUMP JUMPDEST PUSH2 0x21B3 DUP2 PUSH2 0x2C21 JUMP JUMPDEST DUP5 ADD SWAP2 POP POP SWAP3 SWAP2 POP POP JUMP JUMPDEST PUSH1 0x0 PUSH2 0x21C9 DUP3 PUSH2 0x2843 JUMP JUMPDEST PUSH2 0x21D3 DUP2 DUP6 PUSH2 0x2888 JUMP JUMPDEST SWAP4 POP PUSH2 0x21E3 DUP2 DUP6 PUSH1 0x20 DUP7 ADD PUSH2 0x2A0D JUMP JUMPDEST DUP1 DUP5 ADD SWAP2 POP POP SWAP3 SWAP2 POP POP JUMP JUMPDEST PUSH1 0x0 PUSH2 0x21FC PUSH1 0x32 DUP4 PUSH2 0x2877 JUMP JUMPDEST SWAP2 POP PUSH2 0x2207 DUP3 PUSH2 0x2C32 JUMP JUMPDEST PUSH1 0x40 DUP3 ADD SWAP1 POP SWAP2 SWAP1 POP JUMP JUMPDEST PUSH1 0x0 PUSH2 0x221F PUSH1 0x25 DUP4 PUSH2 0x2877 JUMP JUMPDEST SWAP2 POP PUSH2 0x222A DUP3 PUSH2 0x2C81 JUMP JUMPDEST PUSH1 0x40 DUP3 ADD SWAP1 POP SWAP2 SWAP1 POP JUMP JUMPDEST PUSH1 0x0 PUSH2 0x2242 PUSH1 0x24 DUP4 PUSH2 0x2877 JUMP JUMPDEST SWAP2 POP PUSH2 0x224D DUP3 PUSH2 0x2CD0 JUMP JUMPDEST PUSH1 0x40 DUP3 ADD SWAP1 POP SWAP2 SWAP1 POP JUMP JUMPDEST PUSH1 0x0 PUSH2 0x2265 PUSH1 0x19 DUP4 PUSH2 0x2877 JUMP JUMPDEST SWAP2 POP PUSH2 0x2270 DUP3 PUSH2 0x2D1F JUMP JUMPDEST PUSH1 0x20 DUP3 ADD SWAP1 POP SWAP2 SWAP1 POP JUMP JUMPDEST PUSH1 0x0 PUSH2 0x2288 PUSH1 0x2C DUP4 PUSH2 0x2877 JUMP JUMPDEST SWAP2 POP PUSH2 0x2293 DUP3 PUSH2 0x2D48 JUMP JUMPDEST PUSH1 0x40 DUP3 ADD SWAP1 POP SWAP2 SWAP1 POP JUMP JUMPDEST PUSH1 0x0 PUSH2 0x22AB PUSH1 0x38 DUP4 PUSH2 0x2877 JUMP JUMPDEST SWAP2 POP PUSH2 0x22B6 DUP3 PUSH2 0x2D97 JUMP JUMPDEST PUSH1 0x40 DUP3 ADD SWAP1 POP SWAP2 SWAP1 POP JUMP JUMPDEST PUSH1 0x0 PUSH2 0x22CE PUSH1 0x2A DUP4 PUSH2 0x2877 JUMP JUMPDEST SWAP2 POP PUSH2 0x22D9 DUP3 PUSH2 0x2DE6 JUMP JUMPDEST PUSH1 0x40 DUP3 ADD SWAP1 POP SWAP2 SWAP1 POP JUMP JUMPDEST PUSH1 0x0 PUSH2 0x22F1 PUSH1 0x29 DUP4 PUSH2 0x2877 JUMP JUMPDEST SWAP2 POP PUSH2 0x22FC DUP3 PUSH2 0x2E35 JUMP JUMPDEST PUSH1 0x40 DUP3 ADD SWAP1 POP SWAP2 SWAP1 POP JUMP JUMPDEST PUSH1 0x0 PUSH2 0x2314 PUSH1 0x2E DUP4 PUSH2 0x2877 JUMP JUMPDEST SWAP2 POP PUSH2 0x231F DUP3 PUSH2 0x2E84 JUMP JUMPDEST PUSH1 0x40 DUP3 ADD SWAP1 POP SWAP2 SWAP1 POP JUMP JUMPDEST PUSH1 0x0 PUSH2 0x2337 PUSH1 0x31 DUP4 PUSH2 0x2877 JUMP JUMPDEST SWAP2 POP PUSH2 0x2342 DUP3 PUSH2 0x2ED3 JUMP JUMPDEST PUSH1 0x40 DUP3 ADD SWAP1 POP SWAP2 SWAP1 POP JUMP JUMPDEST PUSH1 0x0 PUSH2 0x235A PUSH1 0x24 DUP4 PUSH2 0x2877 JUMP JUMPDEST SWAP2 POP PUSH2 0x2365 DUP3 PUSH2 0x2F22 JUMP JUMPDEST PUSH1 0x40 DUP3 ADD SWAP1 POP SWAP2 SWAP1 POP JUMP JUMPDEST PUSH1 0x0 PUSH2 0x237D PUSH1 0x2C DUP4 PUSH2 0x2877 JUMP JUMPDEST SWAP2 POP PUSH2 0x2388 DUP3 PUSH2 0x2F71 JUMP JUMPDEST PUSH1 0x40 DUP3 ADD SWAP1 POP SWAP2 SWAP1 POP JUMP JUMPDEST PUSH1 0x0 PUSH2 0x23A0 PUSH1 0x2F DUP4 PUSH2 0x2877 JUMP JUMPDEST SWAP2 POP PUSH2 0x23AB DUP3 PUSH2 0x2FC0 JUMP JUMPDEST PUSH1 0x40 DUP3 ADD SWAP1 POP SWAP2 SWAP1 POP JUMP JUMPDEST PUSH1 0x0 PUSH2 0x23C3 PUSH1 0x21 DUP4 PUSH2 0x2877 JUMP JUMPDEST SWAP2 POP PUSH2 0x23CE DUP3 PUSH2 0x300F JUMP JUMPDEST PUSH1 0x40 DUP3 ADD SWAP1 POP SWAP2 SWAP1 POP JUMP JUMPDEST PUSH1 0x0 PUSH2 0x23E6 PUSH1 0x31 DUP4 PUSH2 0x2877 JUMP JUMPDEST SWAP2 POP PUSH2 0x23F1 DUP3 PUSH2 0x305E JUMP JUMPDEST PUSH1 0x40 DUP3 ADD SWAP1 POP SWAP2 SWAP1 POP JUMP JUMPDEST PUSH2 0x2405 DUP2 PUSH2 0x29A2 JUMP JUMPDEST DUP3 MSTORE POP POP JUMP JUMPDEST PUSH2 0x2414 DUP2 PUSH2 0x29D0 JUMP JUMPDEST DUP3 MSTORE POP POP JUMP JUMPDEST PUSH2 0x2423 DUP2 PUSH2 0x29D0 JUMP JUMPDEST DUP3 MSTORE POP POP JUMP JUMPDEST PUSH2 0x2432 DUP2 PUSH2 0x29DA JUMP JUMPDEST DUP3 MSTORE POP POP JUMP JUMPDEST PUSH2 0x2441 DUP2 PUSH2 0x29EA JUMP JUMPDEST DUP3 MSTORE POP POP JUMP JUMPDEST PUSH1 0x0 PUSH2 0x2453 DUP3 DUP6 PUSH2 0x21BE JUMP JUMPDEST SWAP2 POP PUSH2 0x245F DUP3 DUP5 PUSH2 0x21BE JUMP JUMPDEST SWAP2 POP DUP2 SWAP1 POP SWAP4 SWAP3 POP POP POP JUMP JUMPDEST PUSH1 0x0 PUSH1 0x20 DUP3 ADD SWAP1 POP PUSH2 0x2480 PUSH1 0x0 DUP4 ADD DUP5 PUSH2 0x20C8 JUMP JUMPDEST SWAP3 SWAP2 POP POP JUMP JUMPDEST PUSH1 0x0 PUSH1 0x40 DUP3 ADD SWAP1 POP PUSH2 0x249B PUSH1 0x0 DUP4 ADD DUP6 PUSH2 0x20C8 JUMP JUMPDEST PUSH2 0x24A8 PUSH1 0x20 DUP4 ADD DUP5 PUSH2 0x20C8 JUMP JUMPDEST SWAP4 SWAP3 POP POP POP JUMP JUMPDEST PUSH1 0x0 PUSH1 0x80 DUP3 ADD SWAP1 POP PUSH2 0x24C4 PUSH1 0x0 DUP4 ADD DUP8 PUSH2 0x20C8 JUMP JUMPDEST PUSH2 0x24D1 PUSH1 0x20 DUP4 ADD DUP7 PUSH2 0x20C8 JUMP JUMPDEST PUSH2 0x24DE PUSH1 0x40 DUP4 ADD DUP6 PUSH2 0x241A JUMP JUMPDEST DUP2 DUP2 SUB PUSH1 0x60 DUP4 ADD MSTORE PUSH2 0x24F0 DUP2 DUP5 PUSH2 0x214C JUMP JUMPDEST SWAP1 POP SWAP6 SWAP5 POP POP POP POP POP JUMP JUMPDEST PUSH1 0x0 PUSH1 0x60 DUP3 ADD SWAP1 POP PUSH2 0x2510 PUSH1 0x0 DUP4 ADD DUP5 PUSH2 0x20D7 JUMP JUMPDEST SWAP3 SWAP2 POP POP JUMP JUMPDEST PUSH1 0x0 PUSH1 0x20 DUP3 ADD SWAP1 POP PUSH2 0x252B PUSH1 0x0 DUP4 ADD DUP5 PUSH2 0x212E JUMP JUMPDEST SWAP3 SWAP2 POP POP JUMP JUMPDEST PUSH1 0x0 PUSH1 0xA0 DUP3 ADD SWAP1 POP PUSH2 0x2546 PUSH1 0x0 DUP4 ADD DUP9 PUSH2 0x213D JUMP JUMPDEST PUSH2 0x2553 PUSH1 0x20 DUP4 ADD DUP8 PUSH2 0x2438 JUMP JUMPDEST PUSH2 0x2560 PUSH1 0x40 DUP4 ADD DUP7 PUSH2 0x23FC JUMP JUMPDEST PUSH2 0x256D PUSH1 0x60 DUP4 ADD DUP6 PUSH2 0x2429 JUMP JUMPDEST PUSH2 0x257A PUSH1 0x80 DUP4 ADD DUP5 PUSH2 0x2429 JUMP JUMPDEST SWAP7 SWAP6 POP POP POP POP POP POP JUMP JUMPDEST PUSH1 0x0 PUSH1 0x20 DUP3 ADD SWAP1 POP DUP2 DUP2 SUB PUSH1 0x0 DUP4 ADD MSTORE PUSH2 0x259E DUP2 DUP5 PUSH2 0x2185 JUMP JUMPDEST SWAP1 POP SWAP3 SWAP2 POP POP JUMP JUMPDEST PUSH1 0x0 PUSH1 0x20 DUP3 ADD SWAP1 POP DUP2 DUP2 SUB PUSH1 0x0 DUP4 ADD MSTORE PUSH2 0x25BF DUP2 PUSH2 0x21EF JUMP JUMPDEST SWAP1 POP SWAP2 SWAP1 POP JUMP JUMPDEST PUSH1 0x0 PUSH1 0x20 DUP3 ADD SWAP1 POP DUP2 DUP2 SUB PUSH1 0x0 DUP4 ADD MSTORE PUSH2 0x25DF DUP2 PUSH2 0x2212 JUMP JUMPDEST SWAP1 POP SWAP2 SWAP1 POP JUMP JUMPDEST PUSH1 0x0 PUSH1 0x20 DUP3 ADD SWAP1 POP DUP2 DUP2 SUB PUSH1 0x0 DUP4 ADD MSTORE PUSH2 0x25FF DUP2 PUSH2 0x2235 JUMP JUMPDEST SWAP1 POP SWAP2 SWAP1 POP JUMP JUMPDEST PUSH1 0x0 PUSH1 0x20 DUP3 ADD SWAP1 POP DUP2 DUP2 SUB PUSH1 0x0 DUP4 ADD MSTORE PUSH2 0x261F DUP2 PUSH2 0x2258 JUMP JUMPDEST SWAP1 POP SWAP2 SWAP1 POP JUMP JUMPDEST PUSH1 0x0 PUSH1 0x20 DUP3 ADD SWAP1 POP DUP2 DUP2 SUB PUSH1 0x0 DUP4 ADD MSTORE PUSH2 0x263F DUP2 PUSH2 0x227B JUMP JUMPDEST SWAP1 POP SWAP2 SWAP1 POP JUMP JUMPDEST PUSH1 0x0 PUSH1 0x20 DUP3 ADD SWAP1 POP DUP2 DUP2 SUB PUSH1 0x0 DUP4 ADD MSTORE PUSH2 0x265F DUP2 PUSH2 0x229E JUMP JUMPDEST SWAP1 POP SWAP2 SWAP1 POP JUMP JUMPDEST PUSH1 0x0 PUSH1 0x20 DUP3 ADD SWAP1 POP DUP2 DUP2 SUB PUSH1 0x0 DUP4 ADD MSTORE PUSH2 0x267F DUP2 PUSH2 0x22C1 JUMP JUMPDEST SWAP1 POP SWAP2 SWAP1 POP JUMP JUMPDEST PUSH1 0x0 PUSH1 0x20 DUP3 ADD SWAP1 POP DUP2 DUP2 SUB PUSH1 0x0 DUP4 ADD MSTORE PUSH2 0x269F DUP2 PUSH2 0x22E4 JUMP JUMPDEST SWAP1 POP SWAP2 SWAP1 POP JUMP JUMPDEST PUSH1 0x0 PUSH1 0x20 DUP3 ADD SWAP1 POP DUP2 DUP2 SUB PUSH1 0x0 DUP4 ADD MSTORE PUSH2 0x26BF DUP2 PUSH2 0x2307 JUMP JUMPDEST SWAP1 POP SWAP2 SWAP1 POP JUMP JUMPDEST PUSH1 0x0 PUSH1 0x20 DUP3 ADD SWAP1 POP DUP2 DUP2 SUB PUSH1 0x0 DUP4 ADD MSTORE PUSH2 0x26DF DUP2 PUSH2 0x232A JUMP JUMPDEST SWAP1 POP SWAP2 SWAP1 POP JUMP JUMPDEST PUSH1 0x0 PUSH1 0x20 DUP3 ADD SWAP1 POP DUP2 DUP2 SUB PUSH1 0x0 DUP4 ADD MSTORE PUSH2 0x26FF DUP2 PUSH2 0x234D JUMP JUMPDEST SWAP1 POP SWAP2 SWAP1 POP JUMP JUMPDEST PUSH1 0x0 PUSH1 0x20 DUP3 ADD SWAP1 POP DUP2 DUP2 SUB PUSH1 0x0 DUP4 ADD MSTORE PUSH2 0x271F DUP2 PUSH2 0x2370 JUMP JUMPDEST SWAP1 POP SWAP2 SWAP1 POP JUMP JUMPDEST PUSH1 0x0 PUSH1 0x20 DUP3 ADD SWAP1 POP DUP2 DUP2 SUB PUSH1 0x0 DUP4 ADD MSTORE PUSH2 0x273F DUP2 PUSH2 0x2393 JUMP JUMPDEST SWAP1 POP SWAP2 SWAP1 POP JUMP JUMPDEST PUSH1 0x0 PUSH1 0x20 DUP3 ADD SWAP1 POP DUP2 DUP2 SUB PUSH1 0x0 DUP4 ADD MSTORE PUSH2 0x275F DUP2 PUSH2 0x23B6 JUMP JUMPDEST SWAP1 POP SWAP2 SWAP1 POP JUMP JUMPDEST PUSH1 0x0 PUSH1 0x20 DUP3 ADD SWAP1 POP DUP2 DUP2 SUB PUSH1 0x0 DUP4 ADD MSTORE PUSH2 0x277F DUP2 PUSH2 0x23D9 JUMP JUMPDEST SWAP1 POP SWAP2 SWAP1 POP JUMP JUMPDEST PUSH1 0x0 PUSH1 0x20 DUP3 ADD SWAP1 POP PUSH2 0x279B PUSH1 0x0 DUP4 ADD DUP5 PUSH2 0x241A JUMP JUMPDEST SWAP3 SWAP2 POP POP JUMP JUMPDEST PUSH1 0x0 PUSH2 0x27AB PUSH2 0x27BC JUMP JUMPDEST SWAP1 POP PUSH2 0x27B7 DUP3 DUP3 PUSH2 0x2A72 JUMP JUMPDEST SWAP2 SWAP1 POP JUMP JUMPDEST PUSH1 0x0 PUSH1 0x40 MLOAD SWAP1 POP SWAP1 JUMP JUMPDEST PUSH1 0x0 PUSH8 0xFFFFFFFFFFFFFFFF DUP3 GT ISZERO PUSH2 0x27E1 JUMPI PUSH2 0x27E0 PUSH2 0x2BD9 JUMP JUMPDEST JUMPDEST PUSH1 0x20 DUP3 MUL SWAP1 POP PUSH1 0x20 DUP2 ADD SWAP1 POP SWAP2 SWAP1 POP JUMP JUMPDEST PUSH1 0x0 PUSH8 0xFFFFFFFFFFFFFFFF DUP3 GT ISZERO PUSH2 0x280D JUMPI PUSH2 0x280C PUSH2 0x2BD9 JUMP JUMPDEST JUMPDEST PUSH2 0x2816 DUP3 PUSH2 0x2C21 JUMP JUMPDEST SWAP1 POP PUSH1 0x20 DUP2 ADD SWAP1 POP SWAP2 SWAP1 POP JUMP JUMPDEST PUSH1 0x0 DUP2 SWAP1 POP SWAP2 SWAP1 POP JUMP JUMPDEST PUSH1 0x0 PUSH1 0x3 SWAP1 POP SWAP2 SWAP1 POP JUMP JUMPDEST PUSH1 0x0 DUP2 MLOAD SWAP1 POP SWAP2 SWAP1 POP JUMP JUMPDEST PUSH1 0x0 DUP2 MLOAD SWAP1 POP SWAP2 SWAP1 POP JUMP JUMPDEST PUSH1 0x0 PUSH1 0x20 DUP3 ADD SWAP1 POP SWAP2 SWAP1 POP JUMP JUMPDEST PUSH1 0x0 DUP2 SWAP1 POP SWAP3 SWAP2 POP POP JUMP JUMPDEST PUSH1 0x0 DUP3 DUP3 MSTORE PUSH1 0x20 DUP3 ADD SWAP1 POP SWAP3 SWAP2 POP POP JUMP JUMPDEST PUSH1 0x0 DUP3 DUP3 MSTORE PUSH1 0x20 DUP3 ADD SWAP1 POP SWAP3 SWAP2 POP POP JUMP JUMPDEST PUSH1 0x0 DUP2 SWAP1 POP SWAP3 SWAP2 POP POP JUMP JUMPDEST PUSH1 0x0 PUSH2 0x289E DUP3 PUSH2 0x29D0 JUMP JUMPDEST SWAP2 POP PUSH2 0x28A9 DUP4 PUSH2 0x29D0 JUMP JUMPDEST SWAP3 POP DUP3 PUSH32 0xFFFFFFFFFFFFFFFFFFFFFFFFFFFFFFFFFFFFFFFFFFFFFFFFFFFFFFFFFFFFFFFF SUB DUP3 GT ISZERO PUSH2 0x28DE JUMPI PUSH2 0x28DD PUSH2 0x2B1D JUMP JUMPDEST JUMPDEST DUP3 DUP3 ADD SWAP1 POP SWAP3 SWAP2 POP POP JUMP JUMPDEST PUSH1 0x0 PUSH2 0x28F4 DUP3 PUSH2 0x29D0 JUMP JUMPDEST SWAP2 POP PUSH2 0x28FF DUP4 PUSH2 0x29D0 JUMP JUMPDEST SWAP3 POP DUP3 PUSH2 0x290F JUMPI PUSH2 0x290E PUSH2 0x2B4C JUMP JUMPDEST JUMPDEST DUP3 DUP3 DIV SWAP1 POP SWAP3 SWAP2 POP POP JUMP JUMPDEST PUSH1 0x0 PUSH2 0x2925 DUP3 PUSH2 0x29D0 JUMP JUMPDEST SWAP2 POP PUSH2 0x2930 DUP4 PUSH2 0x29D0 JUMP JUMPDEST SWAP3 POP DUP3 DUP3 LT ISZERO PUSH2 0x2943 JUMPI PUSH2 0x2942 PUSH2 0x2B1D JUMP JUMPDEST JUMPDEST DUP3 DUP3 SUB SWAP1 POP SWAP3 SWAP2 POP POP JUMP JUMPDEST PUSH1 0x0 PUSH2 0x2959 DUP3 PUSH2 0x29B0 JUMP JUMPDEST SWAP1 POP SWAP2 SWAP1 POP JUMP JUMPDEST PUSH1 0x0 DUP2 ISZERO ISZERO SWAP1 POP SWAP2 SWAP1 POP JUMP JUMPDEST PUSH1 0x0 DUP2 SWAP1 POP SWAP2 SWAP1 POP JUMP JUMPDEST PUSH1 0x0 PUSH32 0xFFFFFFFF00000000000000000000000000000000000000000000000000000000 DUP3 AND SWAP1 POP SWAP2 SWAP1 POP JUMP JUMPDEST PUSH1 0x0 PUSH2 0xFFFF DUP3 AND SWAP1 POP SWAP2 SWAP1 POP JUMP JUMPDEST PUSH1 0x0 PUSH20 0xFFFFFFFFFFFFFFFFFFFFFFFFFFFFFFFFFFFFFFFF DUP3 AND SWAP1 POP SWAP2 SWAP1 POP JUMP JUMPDEST PUSH1 0x0 DUP2 SWAP1 POP SWAP2 SWAP1 POP JUMP JUMPDEST PUSH1 0x0 PUSH4 0xFFFFFFFF DUP3 AND SWAP1 POP SWAP2 SWAP1 POP JUMP JUMPDEST PUSH1 0x0 PUSH8 0xFFFFFFFFFFFFFFFF DUP3 AND SWAP1 POP SWAP2 SWAP1 POP JUMP JUMPDEST DUP3 DUP2 DUP4 CALLDATACOPY PUSH1 0x0 DUP4 DUP4 ADD MSTORE POP POP POP JUMP JUMPDEST PUSH1 0x0 JUMPDEST DUP4 DUP2 LT ISZERO PUSH2 0x2A2B JUMPI DUP1 DUP3 ADD MLOAD DUP2 DUP5 ADD MSTORE PUSH1 0x20 DUP2 ADD SWAP1 POP PUSH2 0x2A10 JUMP JUMPDEST DUP4 DUP2 GT ISZERO PUSH2 0x2A3A JUMPI PUSH1 0x0 DUP5 DUP5 ADD MSTORE JUMPDEST POP POP POP POP JUMP JUMPDEST PUSH1 0x0 PUSH1 0x2 DUP3 DIV SWAP1 POP PUSH1 0x1 DUP3 AND DUP1 PUSH2 0x2A58 JUMPI PUSH1 0x7F DUP3 AND SWAP2 POP JUMPDEST PUSH1 0x20 DUP3 LT DUP2 EQ ISZERO PUSH2 0x2A6C JUMPI PUSH2 0x2A6B PUSH2 0x2B7B JUMP JUMPDEST JUMPDEST POP SWAP2 SWAP1 POP JUMP JUMPDEST PUSH2 0x2A7B DUP3 PUSH2 0x2C21 JUMP JUMPDEST DUP2 ADD DUP2 DUP2 LT PUSH8 0xFFFFFFFFFFFFFFFF DUP3 GT OR ISZERO PUSH2 0x2A9A JUMPI PUSH2 0x2A99 PUSH2 0x2BD9 JUMP JUMPDEST JUMPDEST DUP1 PUSH1 0x40 MSTORE POP POP POP JUMP JUMPDEST PUSH1 0x0 PUSH2 0x2AAE DUP3 PUSH2 0x29D0 JUMP JUMPDEST SWAP2 POP PUSH32 0xFFFFFFFFFFFFFFFFFFFFFFFFFFFFFFFFFFFFFFFFFFFFFFFFFFFFFFFFFFFFFFFF DUP3 EQ ISZERO PUSH2 0x2AE1 JUMPI PUSH2 0x2AE0 PUSH2 0x2B1D JUMP JUMPDEST JUMPDEST PUSH1 0x1 DUP3 ADD SWAP1 POP SWAP2 SWAP1 POP JUMP JUMPDEST PUSH1 0x0 PUSH2 0x2AF7 DUP3 PUSH2 0x29D0 JUMP JUMPDEST SWAP2 POP PUSH2 0x2B02 DUP4 PUSH2 0x29D0 JUMP JUMPDEST SWAP3 POP DUP3 PUSH2 0x2B12 JUMPI PUSH2 0x2B11 PUSH2 0x2B4C JUMP JUMPDEST JUMPDEST DUP3 DUP3 MOD SWAP1 POP SWAP3 SWAP2 POP POP JUMP JUMPDEST PUSH32 0x4E487B7100000000000000000000000000000000000000000000000000000000 PUSH1 0x0 MSTORE PUSH1 0x11 PUSH1 0x4 MSTORE PUSH1 0x24 PUSH1 0x0 REVERT JUMPDEST PUSH32 0x4E487B7100000000000000000000000000000000000000000000000000000000 PUSH1 0x0 MSTORE PUSH1 0x12 PUSH1 0x4 MSTORE PUSH1 0x24 PUSH1 0x0 REVERT JUMPDEST PUSH32 0x4E487B7100000000000000000000000000000000000000000000000000000000 PUSH1 0x0 MSTORE PUSH1 0x22 PUSH1 0x4 MSTORE PUSH1 0x24 PUSH1 0x0 REVERT JUMPDEST PUSH32 0x4E487B7100000000000000000000000000000000000000000000000000000000 PUSH1 0x0 MSTORE PUSH1 0x32 PUSH1 0x4 MSTORE PUSH1 0x24 PUSH1 0x0 REVERT JUMPDEST PUSH32 0x4E487B7100000000000000000000000000000000000000000000000000000000 PUSH1 0x0 MSTORE PUSH1 0x41 PUSH1 0x4 MSTORE PUSH1 0x24 PUSH1 0x0 REVERT JUMPDEST PUSH1 0x0 DUP1 REVERT JUMPDEST PUSH1 0x0 DUP1 REVERT JUMPDEST PUSH1 0x0 DUP1 REVERT JUMPDEST PUSH1 0x0 DUP1 REVERT JUMPDEST PUSH1 0x0 DUP1 REVERT JUMPDEST PUSH1 0x0 PUSH1 0x1F NOT PUSH1 0x1F DUP4 ADD AND SWAP1 POP SWAP2 SWAP1 POP JUMP JUMPDEST PUSH32 0x4552433732313A207472616E7366657220746F206E6F6E204552433732315265 PUSH1 0x0 DUP3 ADD MSTORE PUSH32 0x63656976657220696D706C656D656E7465720000000000000000000000000000 PUSH1 0x20 DUP3 ADD MSTORE POP JUMP JUMPDEST PUSH32 0x4552433732313A207472616E736665722066726F6D20696E636F727265637420 PUSH1 0x0 DUP3 ADD MSTORE PUSH32 0x6F776E6572000000000000000000000000000000000000000000000000000000 PUSH1 0x20 DUP3 ADD MSTORE POP JUMP JUMPDEST PUSH32 0x4552433732313A207472616E7366657220746F20746865207A65726F20616464 PUSH1 0x0 DUP3 ADD MSTORE PUSH32 0x7265737300000000000000000000000000000000000000000000000000000000 PUSH1 0x20 DUP3 ADD MSTORE POP JUMP JUMPDEST PUSH32 0x4552433732313A20617070726F766520746F2063616C6C657200000000000000 PUSH1 0x0 DUP3 ADD MSTORE POP JUMP JUMPDEST PUSH32 0x4552433732313A206F70657261746F7220717565727920666F72206E6F6E6578 PUSH1 0x0 DUP3 ADD MSTORE PUSH32 0x697374656E7420746F6B656E0000000000000000000000000000000000000000 PUSH1 0x20 DUP3 ADD MSTORE POP JUMP JUMPDEST PUSH32 0x4552433732313A20617070726F76652063616C6C6572206973206E6F74206F77 PUSH1 0x0 DUP3 ADD MSTORE PUSH32 0x6E6572206E6F7220617070726F76656420666F7220616C6C0000000000000000 PUSH1 0x20 DUP3 ADD MSTORE POP JUMP JUMPDEST PUSH32 0x4552433732313A2062616C616E636520717565727920666F7220746865207A65 PUSH1 0x0 DUP3 ADD MSTORE PUSH32 0x726F206164647265737300000000000000000000000000000000000000000000 PUSH1 0x20 DUP3 ADD MSTORE POP JUMP JUMPDEST PUSH32 0x4552433732313A206F776E657220717565727920666F72206E6F6E6578697374 PUSH1 0x0 DUP3 ADD MSTORE PUSH32 0x656E7420746F6B656E0000000000000000000000000000000000000000000000 PUSH1 0x20 DUP3 ADD MSTORE POP JUMP JUMPDEST PUSH32 0x45524337323155524953746F726167653A2055524920736574206F66206E6F6E PUSH1 0x0 DUP3 ADD MSTORE PUSH32 0x6578697374656E7420746F6B656E000000000000000000000000000000000000 PUSH1 0x20 DUP3 ADD MSTORE POP JUMP JUMPDEST PUSH32 0x45524337323155524953746F726167653A2055524920717565727920666F7220 PUSH1 0x0 DUP3 ADD MSTORE PUSH32 0x6E6F6E6578697374656E7420746F6B656E000000000000000000000000000000 PUSH1 0x20 DUP3 ADD MSTORE POP JUMP JUMPDEST PUSH32 0x4E65656420746F2062652061206F776E657220746F207265717565737420646F PUSH1 0x0 DUP3 ADD MSTORE PUSH32 0x6767696500000000000000000000000000000000000000000000000000000000 PUSH1 0x20 DUP3 ADD MSTORE POP JUMP JUMPDEST PUSH32 0x4552433732313A20617070726F76656420717565727920666F72206E6F6E6578 PUSH1 0x0 DUP3 ADD MSTORE PUSH32 0x697374656E7420746F6B656E0000000000000000000000000000000000000000 PUSH1 0x20 DUP3 ADD MSTORE POP JUMP JUMPDEST PUSH32 0x4552433732314D657461646174613A2055524920717565727920666F72206E6F PUSH1 0x0 DUP3 ADD MSTORE PUSH32 0x6E6578697374656E7420746F6B656E0000000000000000000000000000000000 PUSH1 0x20 DUP3 ADD MSTORE POP JUMP JUMPDEST PUSH32 0x4552433732313A20617070726F76616C20746F2063757272656E74206F776E65 PUSH1 0x0 DUP3 ADD MSTORE PUSH32 0x7200000000000000000000000000000000000000000000000000000000000000 PUSH1 0x20 DUP3 ADD MSTORE POP JUMP JUMPDEST PUSH32 0x4552433732313A207472616E736665722063616C6C6572206973206E6F74206F PUSH1 0x0 DUP3 ADD MSTORE PUSH32 0x776E6572206E6F7220617070726F766564000000000000000000000000000000 PUSH1 0x20 DUP3 ADD MSTORE POP JUMP JUMPDEST PUSH2 0x30B6 DUP2 PUSH2 0x294E JUMP JUMPDEST DUP2 EQ PUSH2 0x30C1 JUMPI PUSH1 0x0 DUP1 REVERT JUMPDEST POP JUMP JUMPDEST PUSH2 0x30CD DUP2 PUSH2 0x2960 JUMP JUMPDEST DUP2 EQ PUSH2 0x30D8 JUMPI PUSH1 0x0 DUP1 REVERT JUMPDEST POP JUMP JUMPDEST PUSH2 0x30E4 DUP2 PUSH2 0x2976 JUMP JUMPDEST DUP2 EQ PUSH2 0x30EF JUMPI PUSH1 0x0 DUP1 REVERT JUMPDEST POP JUMP JUMPDEST PUSH2 0x30FB DUP2 PUSH2 0x29D0 JUMP JUMPDEST DUP2 EQ PUSH2 0x3106 JUMPI PUSH1 0x0 DUP1 REVERT JUMPDEST POP JUMP INVALID LOG2 PUSH5 0x6970667358 0x22 SLT KECCAK256 0xE1 0xA8 PUSH6 0xE731E9DDC0C2 REVERT 0x4D CREATE2 PUSH16 0x15D0E5C451E424D8AF403D7404167272 0x5E 0x5D DUP14 PUSH5 0x736F6C6343 STOP ADDMOD SMOD STOP CALLER "
        },
        "gasEstimates": {
          "creation": {
            "codeDepositCost": "2521400",
            "executionCost": "infinite",
            "totalCost": "infinite"
          },
          "external": {
            "approve(address,uint256)": "infinite",
            "balanceOf(address)": "2924",
            "getApproved(uint256)": "5228",
            "getBreedWithModdedRng(uint256)": "infinite",
            "getChanceArray()": "infinite",
            "isApprovedForAll(address,address)": "infinite",
            "name()": "infinite",
            "ownerOf(uint256)": "3000",
            "rawFulfillRandomWords(uint256,uint256[])": "infinite",
            "requestDoggie()": "infinite",
            "s_randomsWords(uint256)": "infinite",
            "safeTransferFrom(address,address,uint256)": "infinite",
            "safeTransferFrom(address,address,uint256,bytes)": "infinite",
            "setApprovalForAll(address,bool)": "infinite",
            "supportsInterface(bytes4)": "797",
            "symbol()": "infinite",
            "tokenURI(uint256)": "infinite",
            "transferFrom(address,address,uint256)": "infinite"
          },
          "internal": {
            "fulfillRandomWords(uint256,uint256[] memory)": "infinite"
          }
        },
        "methodIdentifiers": {
          "approve(address,uint256)": "095ea7b3",
          "balanceOf(address)": "70a08231",
          "getApproved(uint256)": "081812fc",
          "getBreedWithModdedRng(uint256)": "a090dc31",
          "getChanceArray()": "5dacf5f4",
          "isApprovedForAll(address,address)": "e985e9c5",
          "name()": "06fdde03",
          "ownerOf(uint256)": "6352211e",
          "rawFulfillRandomWords(uint256,uint256[])": "1fe543e3",
          "requestDoggie()": "1801cc8a",
          "s_randomsWords(uint256)": "a3ef6457",
          "safeTransferFrom(address,address,uint256)": "42842e0e",
          "safeTransferFrom(address,address,uint256,bytes)": "b88d4fde",
          "setApprovalForAll(address,bool)": "a22cb465",
          "supportsInterface(bytes4)": "01ffc9a7",
          "symbol()": "95d89b41",
          "tokenURI(uint256)": "c87b56dd",
          "transferFrom(address,address,uint256)": "23b872dd"
        }
      },
      "storageLayout": {
        "storage": [
          {
            "astId": 172,
            "contract": "contracts/RandomIpfsNFT.sol:RandomIpfsNFT",
            "label": "_name",
            "offset": 0,
            "slot": "0",
            "type": "t_string_storage"
          },
          {
            "astId": 174,
            "contract": "contracts/RandomIpfsNFT.sol:RandomIpfsNFT",
            "label": "_symbol",
            "offset": 0,
            "slot": "1",
            "type": "t_string_storage"
          },
          {
            "astId": 178,
            "contract": "contracts/RandomIpfsNFT.sol:RandomIpfsNFT",
            "label": "_owners",
            "offset": 0,
            "slot": "2",
            "type": "t_mapping(t_uint256,t_address)"
          },
          {
            "astId": 182,
            "contract": "contracts/RandomIpfsNFT.sol:RandomIpfsNFT",
            "label": "_balances",
            "offset": 0,
            "slot": "3",
            "type": "t_mapping(t_address,t_uint256)"
          },
          {
            "astId": 186,
            "contract": "contracts/RandomIpfsNFT.sol:RandomIpfsNFT",
            "label": "_tokenApprovals",
            "offset": 0,
            "slot": "4",
            "type": "t_mapping(t_uint256,t_address)"
          },
          {
            "astId": 192,
            "contract": "contracts/RandomIpfsNFT.sol:RandomIpfsNFT",
            "label": "_operatorApprovals",
            "offset": 0,
            "slot": "5",
            "type": "t_mapping(t_address,t_mapping(t_address,t_bool))"
          },
          {
            "astId": 1159,
            "contract": "contracts/RandomIpfsNFT.sol:RandomIpfsNFT",
            "label": "_tokenURIs",
            "offset": 0,
            "slot": "6",
            "type": "t_mapping(t_uint256,t_string_storage)"
          },
          {
            "astId": 1886,
            "contract": "contracts/RandomIpfsNFT.sol:RandomIpfsNFT",
            "label": "s_owner",
            "offset": 0,
            "slot": "7",
            "type": "t_address"
          },
          {
            "astId": 1889,
            "contract": "contracts/RandomIpfsNFT.sol:RandomIpfsNFT",
            "label": "s_randomsWords",
            "offset": 0,
            "slot": "8",
            "type": "t_array(t_uint256)dyn_storage"
          },
          {
            "astId": 1893,
            "contract": "contracts/RandomIpfsNFT.sol:RandomIpfsNFT",
            "label": "s_requestIdToSender",
            "offset": 0,
            "slot": "9",
            "type": "t_mapping(t_uint256,t_address)"
          },
          {
            "astId": 1895,
            "contract": "contracts/RandomIpfsNFT.sol:RandomIpfsNFT",
            "label": "s_tokenCounter",
            "offset": 0,
            "slot": "10",
            "type": "t_uint256"
          },
          {
            "astId": 1899,
            "contract": "contracts/RandomIpfsNFT.sol:RandomIpfsNFT",
            "label": "s_dogTokensUri",
            "offset": 0,
            "slot": "11",
            "type": "t_array(t_string_storage)3_storage"
          }
        ],
        "types": {
          "t_address": {
            "encoding": "inplace",
            "label": "address",
            "numberOfBytes": "20"
          },
          "t_array(t_string_storage)3_storage": {
            "base": "t_string_storage",
            "encoding": "inplace",
            "label": "string[3]",
            "numberOfBytes": "96"
          },
          "t_array(t_uint256)dyn_storage": {
            "base": "t_uint256",
            "encoding": "dynamic_array",
            "label": "uint256[]",
            "numberOfBytes": "32"
          },
          "t_bool": {
            "encoding": "inplace",
            "label": "bool",
            "numberOfBytes": "1"
          },
          "t_mapping(t_address,t_bool)": {
            "encoding": "mapping",
            "key": "t_address",
            "label": "mapping(address => bool)",
            "numberOfBytes": "32",
            "value": "t_bool"
          },
          "t_mapping(t_address,t_mapping(t_address,t_bool))": {
            "encoding": "mapping",
            "key": "t_address",
            "label": "mapping(address => mapping(address => bool))",
            "numberOfBytes": "32",
            "value": "t_mapping(t_address,t_bool)"
          },
          "t_mapping(t_address,t_uint256)": {
            "encoding": "mapping",
            "key": "t_address",
            "label": "mapping(address => uint256)",
            "numberOfBytes": "32",
            "value": "t_uint256"
          },
          "t_mapping(t_uint256,t_address)": {
            "encoding": "mapping",
            "key": "t_uint256",
            "label": "mapping(uint256 => address)",
            "numberOfBytes": "32",
            "value": "t_address"
          },
          "t_mapping(t_uint256,t_string_storage)": {
            "encoding": "mapping",
            "key": "t_uint256",
            "label": "mapping(uint256 => string)",
            "numberOfBytes": "32",
            "value": "t_string_storage"
          },
          "t_string_storage": {
            "encoding": "bytes",
            "label": "string",
            "numberOfBytes": "32"
          },
          "t_uint256": {
            "encoding": "inplace",
            "label": "uint256",
            "numberOfBytes": "32"
          }
        }
      },
      "userdoc": {
        "kind": "user",
        "methods": {},
        "version": 1
      }
    }
  }
}