{
  "_format": "hh-sol-artifact-1",
  "contractName": "RandomIpfsNFT",
  "sourceName": "contracts/RandomIpfsNFT.sol",
  "abi": [
    {
      "inputs": [
        {
          "internalType": "address",
          "name": "vrfCoordinatorV2",
          "type": "address"
        },
        {
          "internalType": "bytes32",
          "name": "gasLaneKeyHash",
          "type": "bytes32"
        },
        {
          "internalType": "uint64",
          "name": "subscriptionId",
          "type": "uint64"
        },
        {
          "internalType": "uint32",
          "name": "callbackGasLimit",
          "type": "uint32"
        },
        {
          "internalType": "string[3]",
          "name": "dogTokensUri",
          "type": "string[3]"
        }
      ],
      "stateMutability": "nonpayable",
      "type": "constructor"
    },
    {
      "inputs": [
        {
          "internalType": "address",
          "name": "have",
          "type": "address"
        },
        {
          "internalType": "address",
          "name": "want",
          "type": "address"
        }
      ],
      "name": "OnlyCoordinatorCanFulfill",
      "type": "error"
    },
    {
      "anonymous": false,
      "inputs": [
        {
          "indexed": true,
          "internalType": "address",
          "name": "owner",
          "type": "address"
        },
        {
          "indexed": true,
          "internalType": "address",
          "name": "approved",
          "type": "address"
        },
        {
          "indexed": true,
          "internalType": "uint256",
          "name": "tokenId",
          "type": "uint256"
        }
      ],
      "name": "Approval",
      "type": "event"
    },
    {
      "anonymous": false,
      "inputs": [
        {
          "indexed": true,
          "internalType": "address",
          "name": "owner",
          "type": "address"
        },
        {
          "indexed": true,
          "internalType": "address",
          "name": "operator",
          "type": "address"
        },
        {
          "indexed": false,
          "internalType": "bool",
          "name": "approved",
          "type": "bool"
        }
      ],
      "name": "ApprovalForAll",
      "type": "event"
    },
    {
      "anonymous": false,
      "inputs": [
        {
          "indexed": true,
          "internalType": "address",
          "name": "from",
          "type": "address"
        },
        {
          "indexed": true,
          "internalType": "address",
          "name": "to",
          "type": "address"
        },
        {
          "indexed": true,
          "internalType": "uint256",
          "name": "tokenId",
          "type": "uint256"
        }
      ],
      "name": "Transfer",
      "type": "event"
    },
    {
      "inputs": [
        {
          "internalType": "address",
          "name": "to",
          "type": "address"
        },
        {
          "internalType": "uint256",
          "name": "tokenId",
          "type": "uint256"
        }
      ],
      "name": "approve",
      "outputs": [],
      "stateMutability": "nonpayable",
      "type": "function"
    },
    {
      "inputs": [
        {
          "internalType": "address",
          "name": "owner",
          "type": "address"
        }
      ],
      "name": "balanceOf",
      "outputs": [
        {
          "internalType": "uint256",
          "name": "",
          "type": "uint256"
        }
      ],
      "stateMutability": "view",
      "type": "function"
    },
    {
      "inputs": [
        {
          "internalType": "uint256",
          "name": "tokenId",
          "type": "uint256"
        }
      ],
      "name": "getApproved",
      "outputs": [
        {
          "internalType": "address",
          "name": "",
          "type": "address"
        }
      ],
      "stateMutability": "view",
      "type": "function"
    },
    {
      "inputs": [
        {
          "internalType": "uint256",
          "name": "moddedRng",
          "type": "uint256"
        }
      ],
      "name": "getBreedWithModdedRng",
      "outputs": [
        {
          "internalType": "uint256",
          "name": "",
          "type": "uint256"
        }
      ],
      "stateMutability": "pure",
      "type": "function"
    },
    {
      "inputs": [],
      "name": "getChanceArray",
      "outputs": [
        {
          "internalType": "uint256[3]",
          "name": "",
          "type": "uint256[3]"
        }
      ],
      "stateMutability": "pure",
      "type": "function"
    },
    {
      "inputs": [
        {
          "internalType": "address",
          "name": "owner",
          "type": "address"
        },
        {
          "internalType": "address",
          "name": "operator",
          "type": "address"
        }
      ],
      "name": "isApprovedForAll",
      "outputs": [
        {
          "internalType": "bool",
          "name": "",
          "type": "bool"
        }
      ],
      "stateMutability": "view",
      "type": "function"
    },
    {
      "inputs": [],
      "name": "name",
      "outputs": [
        {
          "internalType": "string",
          "name": "",
          "type": "string"
        }
      ],
      "stateMutability": "view",
      "type": "function"
    },
    {
      "inputs": [
        {
          "internalType": "uint256",
          "name": "tokenId",
          "type": "uint256"
        }
      ],
      "name": "ownerOf",
      "outputs": [
        {
          "internalType": "address",
          "name": "",
          "type": "address"
        }
      ],
      "stateMutability": "view",
      "type": "function"
    },
    {
      "inputs": [
        {
          "internalType": "uint256",
          "name": "requestId",
          "type": "uint256"
        },
        {
          "internalType": "uint256[]",
          "name": "randomWords",
          "type": "uint256[]"
        }
      ],
      "name": "rawFulfillRandomWords",
      "outputs": [],
      "stateMutability": "nonpayable",
      "type": "function"
    },
    {
      "inputs": [],
      "name": "requestDoggie",
      "outputs": [
        {
          "internalType": "uint256",
          "name": "requestId",
          "type": "uint256"
        }
      ],
      "stateMutability": "nonpayable",
      "type": "function"
    },
    {
      "inputs": [
        {
          "internalType": "uint256",
          "name": "",
          "type": "uint256"
        }
      ],
      "name": "s_randomsWords",
      "outputs": [
        {
          "internalType": "uint256",
          "name": "",
          "type": "uint256"
        }
      ],
      "stateMutability": "view",
      "type": "function"
    },
    {
      "inputs": [
        {
          "internalType": "address",
          "name": "from",
          "type": "address"
        },
        {
          "internalType": "address",
          "name": "to",
          "type": "address"
        },
        {
          "internalType": "uint256",
          "name": "tokenId",
          "type": "uint256"
        }
      ],
      "name": "safeTransferFrom",
      "outputs": [],
      "stateMutability": "nonpayable",
      "type": "function"
    },
    {
      "inputs": [
        {
          "internalType": "address",
          "name": "from",
          "type": "address"
        },
        {
          "internalType": "address",
          "name": "to",
          "type": "address"
        },
        {
          "internalType": "uint256",
          "name": "tokenId",
          "type": "uint256"
        },
        {
          "internalType": "bytes",
          "name": "_data",
          "type": "bytes"
        }
      ],
      "name": "safeTransferFrom",
      "outputs": [],
      "stateMutability": "nonpayable",
      "type": "function"
    },
    {
      "inputs": [
        {
          "internalType": "address",
          "name": "operator",
          "type": "address"
        },
        {
          "internalType": "bool",
          "name": "approved",
          "type": "bool"
        }
      ],
      "name": "setApprovalForAll",
      "outputs": [],
      "stateMutability": "nonpayable",
      "type": "function"
    },
    {
      "inputs": [
        {
          "internalType": "bytes4",
          "name": "interfaceId",
          "type": "bytes4"
        }
      ],
      "name": "supportsInterface",
      "outputs": [
        {
          "internalType": "bool",
          "name": "",
          "type": "bool"
        }
      ],
      "stateMutability": "view",
      "type": "function"
    },
    {
      "inputs": [],
      "name": "symbol",
      "outputs": [
        {
          "internalType": "string",
          "name": "",
          "type": "string"
        }
      ],
      "stateMutability": "view",
      "type": "function"
    },
    {
      "inputs": [
        {
          "internalType": "uint256",
          "name": "tokenId",
          "type": "uint256"
        }
      ],
      "name": "tokenURI",
      "outputs": [
        {
          "internalType": "string",
          "name": "",
          "type": "string"
        }
      ],
      "stateMutability": "view",
      "type": "function"
    },
    {
      "inputs": [
        {
          "internalType": "address",
          "name": "from",
          "type": "address"
        },
        {
          "internalType": "address",
          "name": "to",
          "type": "address"
        },
        {
          "internalType": "uint256",
          "name": "tokenId",
          "type": "uint256"
        }
      ],
      "name": "transferFrom",
      "outputs": [],
      "stateMutability": "nonpayable",
      "type": "function"
    }
  ],
  "bytecode": "0x6101206040523480156200001257600080fd5b50604051620039be380380620039be833981810160405281019062000038919062000504565b846040518060400160405280600f81526020017f52616e646f6d2049504653204e465400000000000000000000000000000000008152506040518060400160405280600381526020017f52494e00000000000000000000000000000000000000000000000000000000008152508160009080519060200190620000bd929190620001ef565b508060019080519060200190620000d6929190620001ef565b5050508073ffffffffffffffffffffffffffffffffffffffff1660808173ffffffffffffffffffffffffffffffffffffffff1660601b81525050508473ffffffffffffffffffffffffffffffffffffffff1660a08173ffffffffffffffffffffffffffffffffffffffff1660601b815250508360c081815250508267ffffffffffffffff1660e08167ffffffffffffffff1660c01b815250508163ffffffff166101008163ffffffff1660e01b8152505033600760006101000a81548173ffffffffffffffffffffffffffffffffffffffff021916908373ffffffffffffffffffffffffffffffffffffffff1602179055506000600a8190555080600b906003620001e392919062000280565b50505050505062000827565b828054620001fd90620006cb565b90600052602060002090601f0160209004810192826200022157600085556200026d565b82601f106200023c57805160ff19168380011785556200026d565b828001600101855582156200026d579182015b828111156200026c5782518255916020019190600101906200024f565b5b5090506200027c9190620002da565b5090565b8260038101928215620002c7579160200282015b82811115620002c6578251829080519060200190620002b5929190620001ef565b509160200191906001019062000294565b5b509050620002d69190620002f9565b5090565b5b80821115620002f5576000816000905550600101620002db565b5090565b5b808211156200031d576000818162000313919062000321565b50600101620002fa565b5090565b5080546200032f90620006cb565b6000825580601f1062000343575062000364565b601f016020900490600052602060002090810190620003639190620002da565b5b50565b60006200037e6200037884620005d4565b620005ab565b905080828560208602820111156200039b576200039a6200079a565b5b60005b85811015620003f057815167ffffffffffffffff811115620003c557620003c462000795565b5b808601620003d48982620004a3565b855260208501945060208401935050506001810190506200039e565b5050509392505050565b6000620004116200040b84620005fd565b620005ab565b90508281526020810184848401111562000430576200042f6200079f565b5b6200043d84828562000695565b509392505050565b6000815190506200045681620007bf565b92915050565b600082601f83011262000474576200047362000795565b5b60036200048384828562000367565b91505092915050565b6000815190506200049d81620007d9565b92915050565b600082601f830112620004bb57620004ba62000795565b5b8151620004cd848260208601620003fa565b91505092915050565b600081519050620004e781620007f3565b92915050565b600081519050620004fe816200080d565b92915050565b600080600080600060a08688031215620005235762000522620007a9565b5b6000620005338882890162000445565b955050602062000546888289016200048c565b94505060406200055988828901620004ed565b93505060606200056c88828901620004d6565b925050608086015167ffffffffffffffff81111562000590576200058f620007a4565b5b6200059e888289016200045c565b9150509295509295909350565b6000620005b7620005ca565b9050620005c5828262000701565b919050565b6000604051905090565b600067ffffffffffffffff821115620005f257620005f162000766565b5b602082029050919050565b600067ffffffffffffffff8211156200061b576200061a62000766565b5b6200062682620007ae565b9050602081019050919050565b6000620006408262000651565b9050919050565b6000819050919050565b600073ffffffffffffffffffffffffffffffffffffffff82169050919050565b600063ffffffff82169050919050565b600067ffffffffffffffff82169050919050565b60005b83811015620006b557808201518184015260208101905062000698565b83811115620006c5576000848401525b50505050565b60006002820490506001821680620006e457607f821691505b60208210811415620006fb57620006fa62000737565b5b50919050565b6200070c82620007ae565b810181811067ffffffffffffffff821117156200072e576200072d62000766565b5b80604052505050565b7f4e487b7100000000000000000000000000000000000000000000000000000000600052602260045260246000fd5b7f4e487b7100000000000000000000000000000000000000000000000000000000600052604160045260246000fd5b600080fd5b600080fd5b600080fd5b600080fd5b600080fd5b6000601f19601f8301169050919050565b620007ca8162000633565b8114620007d657600080fd5b50565b620007e48162000647565b8114620007f057600080fd5b50565b620007fe8162000671565b81146200080a57600080fd5b50565b620008188162000681565b81146200082457600080fd5b50565b60805160601c60a05160601c60c05160e05160c01c6101005160e01c61313f6200087f60003960006107e0015260006107bd0152600061079c015260006107600152600081816108cc0152610920015261313f6000f3fe608060405234801561001057600080fd5b50600436106101165760003560e01c80636352211e116100a2578063a22cb46511610071578063a22cb465146102f3578063a3ef64571461030f578063b88d4fde1461033f578063c87b56dd1461035b578063e985e9c51461038b57610116565b80636352211e1461024557806370a082311461027557806395d89b41146102a5578063a090dc31146102c357610116565b80631801cc8a116100e95780631801cc8a146101b55780631fe543e3146101d357806323b872dd146101ef57806342842e0e1461020b5780635dacf5f41461022757610116565b806301ffc9a71461011b57806306fdde031461014b578063081812fc14610169578063095ea7b314610199575b600080fd5b61013560048036038101906101309190611fa0565b6103bb565b6040516101429190612516565b60405180910390f35b61015361049d565b6040516101609190612584565b60405180910390f35b610183600480360381019061017e9190611ffa565b61052f565b604051610190919061246b565b60405180910390f35b6101b360048036038101906101ae9190611f60565b6105b4565b005b6101bd6106cc565b6040516101ca9190612786565b60405180910390f35b6101ed60048036038101906101e89190612054565b6108ca565b005b61020960048036038101906102049190611e4a565b61098a565b005b61022560048036038101906102209190611e4a565b6109ea565b005b61022f610a0a565b60405161023c91906124fb565b60405180910390f35b61025f600480360381019061025a9190611ffa565b610a35565b60405161026c919061246b565b60405180910390f35b61028f600480360381019061028a9190611ddd565b610ae7565b60405161029c9190612786565b60405180910390f35b6102ad610b9f565b6040516102ba9190612584565b60405180910390f35b6102dd60048036038101906102d89190611ffa565b610c31565b6040516102ea9190612786565b60405180910390f35b61030d60048036038101906103089190611f20565b610cd2565b005b61032960048036038101906103249190611ffa565b610ce8565b6040516103369190612786565b60405180910390f35b61035960048036038101906103549190611e9d565b610d0c565b005b61037560048036038101906103709190611ffa565b610d6e565b6040516103829190612584565b60405180910390f35b6103a560048036038101906103a09190611e0a565b610ec0565b6040516103b29190612516565b60405180910390f35b60007f80ac58cd000000000000000000000000000000000000000000000000000000007bffffffffffffffffffffffffffffffffffffffffffffffffffffffff1916827bffffffffffffffffffffffffffffffffffffffffffffffffffffffff1916148061048657507f5b5e139f000000000000000000000000000000000000000000000000000000007bffffffffffffffffffffffffffffffffffffffffffffffffffffffff1916827bffffffffffffffffffffffffffffffffffffffffffffffffffffffff1916145b80610496575061049582610f54565b5b9050919050565b6060600080546104ac90612a40565b80601f01602080910402602001604051908101604052809291908181526020018280546104d890612a40565b80156105255780601f106104fa57610100808354040283529160200191610525565b820191906000526020600020905b81548152906001019060200180831161050857829003601f168201915b5050505050905090565b600061053a82610fbe565b610579576040517f08c379a000000000000000000000000000000000000000000000000000000000815260040161057090612706565b60405180910390fd5b6004600083815260200190815260200160002060009054906101000a900473ffffffffffffffffffffffffffffffffffffffff169050919050565b60006105bf82610a35565b90508073ffffffffffffffffffffffffffffffffffffffff168373ffffffffffffffffffffffffffffffffffffffff161415610630576040517f08c379a000000000000000000000000000000000000000000000000000000000815260040161062790612746565b60405180910390fd5b8073ffffffffffffffffffffffffffffffffffffffff1661064f61102a565b73ffffffffffffffffffffffffffffffffffffffff16148061067e575061067d8161067861102a565b610ec0565b5b6106bd576040517f08c379a00000000000000000000000000000000000000000000000000000000081526004016106b490612646565b60405180910390fd5b6106c78383611032565b505050565b60003373ffffffffffffffffffffffffffffffffffffffff16600760009054906101000a900473ffffffffffffffffffffffffffffffffffffffff1673ffffffffffffffffffffffffffffffffffffffff161461075e576040517f08c379a0000000000000000000000000000000000000000000000000000000008152600401610755906126e6565b60405180910390fd5b7f000000000000000000000000000000000000000000000000000000000000000073ffffffffffffffffffffffffffffffffffffffff16635d3b1d307f00000000000000000000000000000000000000000000000000000000000000007f000000000000000000000000000000000000000000000000000000000000000060037f000000000000000000000000000000000000000000000000000000000000000060016040518663ffffffff1660e01b8152600401610821959493929190612531565b602060405180830381600087803b15801561083b57600080fd5b505af115801561084f573d6000803e3d6000fd5b505050506040513d601f19601f820116820180604052508101906108739190612027565b9050336009600083815260200190815260200160002060006101000a81548173ffffffffffffffffffffffffffffffffffffffff021916908373ffffffffffffffffffffffffffffffffffffffff16021790555090565b7f000000000000000000000000000000000000000000000000000000000000000073ffffffffffffffffffffffffffffffffffffffff163373ffffffffffffffffffffffffffffffffffffffff161461097c57337f00000000000000000000000000000000000000000000000000000000000000006040517f1cf993f4000000000000000000000000000000000000000000000000000000008152600401610973929190612486565b60405180910390fd5b61098682826110eb565b5050565b61099b61099561102a565b82611227565b6109da576040517f08c379a00000000000000000000000000000000000000000000000000000000081526004016109d190612766565b60405180910390fd5b6109e5838383611305565b505050565b610a0583838360405180602001604052806000815250610d0c565b505050565b610a12611b8c565b6040518060600160405280600a8152602001601e81526020016064815250905090565b6000806002600084815260200190815260200160002060009054906101000a900473ffffffffffffffffffffffffffffffffffffffff169050600073ffffffffffffffffffffffffffffffffffffffff168173ffffffffffffffffffffffffffffffffffffffff161415610ade576040517f08c379a0000000000000000000000000000000000000000000000000000000008152600401610ad590612686565b60405180910390fd5b80915050919050565b60008073ffffffffffffffffffffffffffffffffffffffff168273ffffffffffffffffffffffffffffffffffffffff161415610b58576040517f08c379a0000000000000000000000000000000000000000000000000000000008152600401610b4f90612666565b60405180910390fd5b600360008373ffffffffffffffffffffffffffffffffffffffff1673ffffffffffffffffffffffffffffffffffffffff168152602001908152602001600020549050919050565b606060018054610bae90612a40565b80601f0160208091040260200160405190810160405280929190818152602001828054610bda90612a40565b8015610c275780601f10610bfc57610100808354040283529160200191610c27565b820191906000526020600020905b815481529060010190602001808311610c0a57829003601f168201915b5050505050905090565b600080600090506000610c42610a0a565b905060005b6003811015610cc957828510158015610c815750818160038110610c6e57610c6d612baa565b5b602002015183610c7e9190612893565b85105b15610c9157809350505050610ccd565b818160038110610ca457610ca3612baa565b5b602002015183610cb49190612893565b92508080610cc190612aa3565b915050610c47565b5050505b919050565b610ce4610cdd61102a565b838361156c565b5050565b60088181548110610cf857600080fd5b906000526020600020016000915090505481565b610d1d610d1761102a565b83611227565b610d5c576040517f08c379a0000000000000000000000000000000000000000000000000000000008152600401610d5390612766565b60405180910390fd5b610d68848484846116d9565b50505050565b6060610d7982610fbe565b610db8576040517f08c379a0000000000000000000000000000000000000000000000000000000008152600401610daf906126c6565b60405180910390fd5b6000600660008481526020019081526020016000208054610dd890612a40565b80601f0160208091040260200160405190810160405280929190818152602001828054610e0490612a40565b8015610e515780601f10610e2657610100808354040283529160200191610e51565b820191906000526020600020905b815481529060010190602001808311610e3457829003601f168201915b505050505090506000610e62611735565b9050600081511415610e78578192505050610ebb565b600082511115610ead578082604051602001610e95929190612447565b60405160208183030381529060405292505050610ebb565b610eb68461174c565b925050505b919050565b6000600560008473ffffffffffffffffffffffffffffffffffffffff1673ffffffffffffffffffffffffffffffffffffffff16815260200190815260200160002060008373ffffffffffffffffffffffffffffffffffffffff1673ffffffffffffffffffffffffffffffffffffffff16815260200190815260200160002060009054906101000a900460ff16905092915050565b60007f01ffc9a7000000000000000000000000000000000000000000000000000000007bffffffffffffffffffffffffffffffffffffffffffffffffffffffff1916827bffffffffffffffffffffffffffffffffffffffffffffffffffffffff1916149050919050565b60008073ffffffffffffffffffffffffffffffffffffffff166002600084815260200190815260200160002060009054906101000a900473ffffffffffffffffffffffffffffffffffffffff1673ffffffffffffffffffffffffffffffffffffffff1614159050919050565b600033905090565b816004600083815260200190815260200160002060006101000a81548173ffffffffffffffffffffffffffffffffffffffff021916908373ffffffffffffffffffffffffffffffffffffffff160217905550808273ffffffffffffffffffffffffffffffffffffffff166110a583610a35565b73ffffffffffffffffffffffffffffffffffffffff167f8c5be1e5ebec7d5bd14f71427d1e84f3dd0314c0f7b2291e5b200ac8c7c3b92560405160405180910390a45050565b60006009600084815260200190815260200160002060009054906101000a900473ffffffffffffffffffffffffffffffffffffffff1690506000600a5490506001600a546111399190612893565b600a81905550600060648460008151811061115757611156612baa565b5b60200260200101516111699190612aec565b9050600061117682610c31565b905061121f83600b83600381106111905761118f612baa565b5b01805461119c90612a40565b80601f01602080910402602001604051908101604052809291908181526020018280546111c890612a40565b80156112155780601f106111ea57610100808354040283529160200191611215565b820191906000526020600020905b8154815290600101906020018083116111f857829003601f168201915b50505050506117f3565b505050505050565b600061123282610fbe565b611271576040517f08c379a000000000000000000000000000000000000000000000000000000000815260040161126890612626565b60405180910390fd5b600061127c83610a35565b90508073ffffffffffffffffffffffffffffffffffffffff168473ffffffffffffffffffffffffffffffffffffffff1614806112be57506112bd8185610ec0565b5b806112fc57508373ffffffffffffffffffffffffffffffffffffffff166112e48461052f565b73ffffffffffffffffffffffffffffffffffffffff16145b91505092915050565b8273ffffffffffffffffffffffffffffffffffffffff1661132582610a35565b73ffffffffffffffffffffffffffffffffffffffff161461137b576040517f08c379a0000000000000000000000000000000000000000000000000000000008152600401611372906125c6565b60405180910390fd5b600073ffffffffffffffffffffffffffffffffffffffff168273ffffffffffffffffffffffffffffffffffffffff1614156113eb576040517f08c379a00000000000000000000000000000000000000000000000000000000081526004016113e2906125e6565b60405180910390fd5b6113f6838383611867565b611401600082611032565b6001600360008573ffffffffffffffffffffffffffffffffffffffff1673ffffffffffffffffffffffffffffffffffffffff1681526020019081526020016000206000828254611451919061291a565b925050819055506001600360008473ffffffffffffffffffffffffffffffffffffffff1673ffffffffffffffffffffffffffffffffffffffff16815260200190815260200160002060008282546114a89190612893565b92505081905550816002600083815260200190815260200160002060006101000a81548173ffffffffffffffffffffffffffffffffffffffff021916908373ffffffffffffffffffffffffffffffffffffffff160217905550808273ffffffffffffffffffffffffffffffffffffffff168473ffffffffffffffffffffffffffffffffffffffff167fddf252ad1be2c89b69c2b068fc378daa952ba7f163c4a11628f55a4df523b3ef60405160405180910390a461156783838361186c565b505050565b8173ffffffffffffffffffffffffffffffffffffffff168373ffffffffffffffffffffffffffffffffffffffff1614156115db576040517f08c379a00000000000000000000000000000000000000000000000000000000081526004016115d290612606565b60405180910390fd5b80600560008573ffffffffffffffffffffffffffffffffffffffff1673ffffffffffffffffffffffffffffffffffffffff16815260200190815260200160002060008473ffffffffffffffffffffffffffffffffffffffff1673ffffffffffffffffffffffffffffffffffffffff16815260200190815260200160002060006101000a81548160ff0219169083151502179055508173ffffffffffffffffffffffffffffffffffffffff168373ffffffffffffffffffffffffffffffffffffffff167f17307eab39ab6107e8899845ad3d59bd9653f200f220920489ca2b5937696c31836040516116cc9190612516565b60405180910390a3505050565b6116e4848484611305565b6116f084848484611871565b61172f576040517f08c379a0000000000000000000000000000000000000000000000000000000008152600401611726906125a6565b60405180910390fd5b50505050565b606060405180602001604052806000815250905090565b606061175782610fbe565b611796576040517f08c379a000000000000000000000000000000000000000000000000000000000815260040161178d90612726565b60405180910390fd5b60006117a0611735565b905060008151116117c057604051806020016040528060008152506117eb565b806117ca84611a08565b6040516020016117db929190612447565b6040516020818303038152906040525b915050919050565b6117fc82610fbe565b61183b576040517f08c379a0000000000000000000000000000000000000000000000000000000008152600401611832906126a6565b60405180910390fd5b80600660008481526020019081526020016000209080519060200190611862929190611bae565b505050565b505050565b505050565b60006118928473ffffffffffffffffffffffffffffffffffffffff16611b69565b156119fb578373ffffffffffffffffffffffffffffffffffffffff1663150b7a026118bb61102a565b8786866040518563ffffffff1660e01b81526004016118dd94939291906124af565b602060405180830381600087803b1580156118f757600080fd5b505af192505050801561192857506040513d601f19601f820116820180604052508101906119259190611fcd565b60015b6119ab573d8060008114611958576040519150601f19603f3d011682016040523d82523d6000602084013e61195d565b606091505b506000815114156119a3576040517f08c379a000000000000000000000000000000000000000000000000000000000815260040161199a906125a6565b60405180910390fd5b805181602001fd5b63150b7a0260e01b7bffffffffffffffffffffffffffffffffffffffffffffffffffffffff1916817bffffffffffffffffffffffffffffffffffffffffffffffffffffffff191614915050611a00565b600190505b949350505050565b60606000821415611a50576040518060400160405280600181526020017f30000000000000000000000000000000000000000000000000000000000000008152509050611b64565b600082905060005b60008214611a82578080611a6b90612aa3565b915050600a82611a7b91906128e9565b9150611a58565b60008167ffffffffffffffff811115611a9e57611a9d612bd9565b5b6040519080825280601f01601f191660200182016040528015611ad05781602001600182028036833780820191505090505b5090505b60008514611b5d57600182611ae9919061291a565b9150600a85611af89190612aec565b6030611b049190612893565b60f81b818381518110611b1a57611b19612baa565b5b60200101907effffffffffffffffffffffffffffffffffffffffffffffffffffffffffffff1916908160001a905350600a85611b5691906128e9565b9450611ad4565b8093505050505b919050565b6000808273ffffffffffffffffffffffffffffffffffffffff163b119050919050565b6040518060600160405280600390602082028036833780820191505090505090565b828054611bba90612a40565b90600052602060002090601f016020900481019282611bdc5760008555611c23565b82601f10611bf557805160ff1916838001178555611c23565b82800160010185558215611c23579182015b82811115611c22578251825591602001919060010190611c07565b5b509050611c309190611c34565b5090565b5b80821115611c4d576000816000905550600101611c35565b5090565b6000611c64611c5f846127c6565b6127a1565b90508083825260208201905082856020860282011115611c8757611c86612c0d565b5b60005b85811015611cb75781611c9d8882611db3565b845260208401935060208301925050600181019050611c8a565b5050509392505050565b6000611cd4611ccf846127f2565b6127a1565b905082815260208101848484011115611cf057611cef612c12565b5b611cfb8482856129fe565b509392505050565b600081359050611d12816130ad565b92915050565b600082601f830112611d2d57611d2c612c08565b5b8135611d3d848260208601611c51565b91505092915050565b600081359050611d55816130c4565b92915050565b600081359050611d6a816130db565b92915050565b600081519050611d7f816130db565b92915050565b600082601f830112611d9a57611d99612c08565b5b8135611daa848260208601611cc1565b91505092915050565b600081359050611dc2816130f2565b92915050565b600081519050611dd7816130f2565b92915050565b600060208284031215611df357611df2612c1c565b5b6000611e0184828501611d03565b91505092915050565b60008060408385031215611e2157611e20612c1c565b5b6000611e2f85828601611d03565b9250506020611e4085828601611d03565b9150509250929050565b600080600060608486031215611e6357611e62612c1c565b5b6000611e7186828701611d03565b9350506020611e8286828701611d03565b9250506040611e9386828701611db3565b9150509250925092565b60008060008060808587031215611eb757611eb6612c1c565b5b6000611ec587828801611d03565b9450506020611ed687828801611d03565b9350506040611ee787828801611db3565b925050606085013567ffffffffffffffff811115611f0857611f07612c17565b5b611f1487828801611d85565b91505092959194509250565b60008060408385031215611f3757611f36612c1c565b5b6000611f4585828601611d03565b9250506020611f5685828601611d46565b9150509250929050565b60008060408385031215611f7757611f76612c1c565b5b6000611f8585828601611d03565b9250506020611f9685828601611db3565b9150509250929050565b600060208284031215611fb657611fb5612c1c565b5b6000611fc484828501611d5b565b91505092915050565b600060208284031215611fe357611fe2612c1c565b5b6000611ff184828501611d70565b91505092915050565b6000602082840312156120105761200f612c1c565b5b600061201e84828501611db3565b91505092915050565b60006020828403121561203d5761203c612c1c565b5b600061204b84828501611dc8565b91505092915050565b6000806040838503121561206b5761206a612c1c565b5b600061207985828601611db3565b925050602083013567ffffffffffffffff81111561209a57612099612c17565b5b6120a685828601611d18565b9150509250929050565b60006120bc838361240b565b60208301905092915050565b6120d18161294e565b82525050565b6120e08161282d565b6120ea818461285b565b92506120f582612823565b8060005b8381101561212657815161210d87826120b0565b96506121188361284e565b9250506001810190506120f9565b505050505050565b61213781612960565b82525050565b6121468161296c565b82525050565b600061215782612838565b6121618185612866565b9350612171818560208601612a0d565b61217a81612c21565b840191505092915050565b600061219082612843565b61219a8185612877565b93506121aa818560208601612a0d565b6121b381612c21565b840191505092915050565b60006121c982612843565b6121d38185612888565b93506121e3818560208601612a0d565b80840191505092915050565b60006121fc603283612877565b915061220782612c32565b604082019050919050565b600061221f602583612877565b915061222a82612c81565b604082019050919050565b6000612242602483612877565b915061224d82612cd0565b604082019050919050565b6000612265601983612877565b915061227082612d1f565b602082019050919050565b6000612288602c83612877565b915061229382612d48565b604082019050919050565b60006122ab603883612877565b91506122b682612d97565b604082019050919050565b60006122ce602a83612877565b91506122d982612de6565b604082019050919050565b60006122f1602983612877565b91506122fc82612e35565b604082019050919050565b6000612314602e83612877565b915061231f82612e84565b604082019050919050565b6000612337603183612877565b915061234282612ed3565b604082019050919050565b600061235a602483612877565b915061236582612f22565b604082019050919050565b600061237d602c83612877565b915061238882612f71565b604082019050919050565b60006123a0602f83612877565b91506123ab82612fc0565b604082019050919050565b60006123c3602183612877565b91506123ce8261300f565b604082019050919050565b60006123e6603183612877565b91506123f18261305e565b604082019050919050565b612405816129a2565b82525050565b612414816129d0565b82525050565b612423816129d0565b82525050565b612432816129da565b82525050565b612441816129ea565b82525050565b600061245382856121be565b915061245f82846121be565b91508190509392505050565b600060208201905061248060008301846120c8565b92915050565b600060408201905061249b60008301856120c8565b6124a860208301846120c8565b9392505050565b60006080820190506124c460008301876120c8565b6124d160208301866120c8565b6124de604083018561241a565b81810360608301526124f0818461214c565b905095945050505050565b600060608201905061251060008301846120d7565b92915050565b600060208201905061252b600083018461212e565b92915050565b600060a082019050612546600083018861213d565b6125536020830187612438565b61256060408301866123fc565b61256d6060830185612429565b61257a6080830184612429565b9695505050505050565b6000602082019050818103600083015261259e8184612185565b905092915050565b600060208201905081810360008301526125bf816121ef565b9050919050565b600060208201905081810360008301526125df81612212565b9050919050565b600060208201905081810360008301526125ff81612235565b9050919050565b6000602082019050818103600083015261261f81612258565b9050919050565b6000602082019050818103600083015261263f8161227b565b9050919050565b6000602082019050818103600083015261265f8161229e565b9050919050565b6000602082019050818103600083015261267f816122c1565b9050919050565b6000602082019050818103600083015261269f816122e4565b9050919050565b600060208201905081810360008301526126bf81612307565b9050919050565b600060208201905081810360008301526126df8161232a565b9050919050565b600060208201905081810360008301526126ff8161234d565b9050919050565b6000602082019050818103600083015261271f81612370565b9050919050565b6000602082019050818103600083015261273f81612393565b9050919050565b6000602082019050818103600083015261275f816123b6565b9050919050565b6000602082019050818103600083015261277f816123d9565b9050919050565b600060208201905061279b600083018461241a565b92915050565b60006127ab6127bc565b90506127b78282612a72565b919050565b6000604051905090565b600067ffffffffffffffff8211156127e1576127e0612bd9565b5b602082029050602081019050919050565b600067ffffffffffffffff82111561280d5761280c612bd9565b5b61281682612c21565b9050602081019050919050565b6000819050919050565b600060039050919050565b600081519050919050565b600081519050919050565b6000602082019050919050565b600081905092915050565b600082825260208201905092915050565b600082825260208201905092915050565b600081905092915050565b600061289e826129d0565b91506128a9836129d0565b9250827fffffffffffffffffffffffffffffffffffffffffffffffffffffffffffffffff038211156128de576128dd612b1d565b5b828201905092915050565b60006128f4826129d0565b91506128ff836129d0565b92508261290f5761290e612b4c565b5b828204905092915050565b6000612925826129d0565b9150612930836129d0565b92508282101561294357612942612b1d565b5b828203905092915050565b6000612959826129b0565b9050919050565b60008115159050919050565b6000819050919050565b60007fffffffff0000000000000000000000000000000000000000000000000000000082169050919050565b600061ffff82169050919050565b600073ffffffffffffffffffffffffffffffffffffffff82169050919050565b6000819050919050565b600063ffffffff82169050919050565b600067ffffffffffffffff82169050919050565b82818337600083830152505050565b60005b83811015612a2b578082015181840152602081019050612a10565b83811115612a3a576000848401525b50505050565b60006002820490506001821680612a5857607f821691505b60208210811415612a6c57612a6b612b7b565b5b50919050565b612a7b82612c21565b810181811067ffffffffffffffff82111715612a9a57612a99612bd9565b5b80604052505050565b6000612aae826129d0565b91507fffffffffffffffffffffffffffffffffffffffffffffffffffffffffffffffff821415612ae157612ae0612b1d565b5b600182019050919050565b6000612af7826129d0565b9150612b02836129d0565b925082612b1257612b11612b4c565b5b828206905092915050565b7f4e487b7100000000000000000000000000000000000000000000000000000000600052601160045260246000fd5b7f4e487b7100000000000000000000000000000000000000000000000000000000600052601260045260246000fd5b7f4e487b7100000000000000000000000000000000000000000000000000000000600052602260045260246000fd5b7f4e487b7100000000000000000000000000000000000000000000000000000000600052603260045260246000fd5b7f4e487b7100000000000000000000000000000000000000000000000000000000600052604160045260246000fd5b600080fd5b600080fd5b600080fd5b600080fd5b600080fd5b6000601f19601f8301169050919050565b7f4552433732313a207472616e7366657220746f206e6f6e20455243373231526560008201527f63656976657220696d706c656d656e7465720000000000000000000000000000602082015250565b7f4552433732313a207472616e736665722066726f6d20696e636f72726563742060008201527f6f776e6572000000000000000000000000000000000000000000000000000000602082015250565b7f4552433732313a207472616e7366657220746f20746865207a65726f2061646460008201527f7265737300000000000000000000000000000000000000000000000000000000602082015250565b7f4552433732313a20617070726f766520746f2063616c6c657200000000000000600082015250565b7f4552433732313a206f70657261746f7220717565727920666f72206e6f6e657860008201527f697374656e7420746f6b656e0000000000000000000000000000000000000000602082015250565b7f4552433732313a20617070726f76652063616c6c6572206973206e6f74206f7760008201527f6e6572206e6f7220617070726f76656420666f7220616c6c0000000000000000602082015250565b7f4552433732313a2062616c616e636520717565727920666f7220746865207a6560008201527f726f206164647265737300000000000000000000000000000000000000000000602082015250565b7f4552433732313a206f776e657220717565727920666f72206e6f6e657869737460008201527f656e7420746f6b656e0000000000000000000000000000000000000000000000602082015250565b7f45524337323155524953746f726167653a2055524920736574206f66206e6f6e60008201527f6578697374656e7420746f6b656e000000000000000000000000000000000000602082015250565b7f45524337323155524953746f726167653a2055524920717565727920666f722060008201527f6e6f6e6578697374656e7420746f6b656e000000000000000000000000000000602082015250565b7f4e65656420746f2062652061206f776e657220746f207265717565737420646f60008201527f6767696500000000000000000000000000000000000000000000000000000000602082015250565b7f4552433732313a20617070726f76656420717565727920666f72206e6f6e657860008201527f697374656e7420746f6b656e0000000000000000000000000000000000000000602082015250565b7f4552433732314d657461646174613a2055524920717565727920666f72206e6f60008201527f6e6578697374656e7420746f6b656e0000000000000000000000000000000000602082015250565b7f4552433732313a20617070726f76616c20746f2063757272656e74206f776e6560008201527f7200000000000000000000000000000000000000000000000000000000000000602082015250565b7f4552433732313a207472616e736665722063616c6c6572206973206e6f74206f60008201527f776e6572206e6f7220617070726f766564000000000000000000000000000000602082015250565b6130b68161294e565b81146130c157600080fd5b50565b6130cd81612960565b81146130d857600080fd5b50565b6130e481612976565b81146130ef57600080fd5b50565b6130fb816129d0565b811461310657600080fd5b5056fea2646970667358221220e1a865e731e9ddc0c2fd4df56f15d0e5c451e424d8af403d74041672725e5d8d64736f6c63430008070033",
  "linkReferences": {},
  "deployedLinkReferences": {}
}