{
  "address": "0x83Ae7042322cc2aE37612C2C535800b13FAC5642",
  "abi": [
    {
      "inputs": [
        {
          "internalType": "address",
          "name": "vrfCoordinatorV2",
          "type": "address"
        },
        {
          "internalType": "bytes32",
          "name": "gasLaneKeyHash",
          "type": "bytes32"
        },
        {
          "internalType": "uint64",
          "name": "subscriptionId",
          "type": "uint64"
        },
        {
          "internalType": "uint32",
          "name": "callbackGasLimit",
          "type": "uint32"
        },
        {
          "internalType": "string[3]",
          "name": "dogTokensUri",
          "type": "string[3]"
        }
      ],
      "stateMutability": "nonpayable",
      "type": "constructor"
    },
    {
      "inputs": [
        {
          "internalType": "address",
          "name": "have",
          "type": "address"
        },
        {
          "internalType": "address",
          "name": "want",
          "type": "address"
        }
      ],
      "name": "OnlyCoordinatorCanFulfill",
      "type": "error"
    },
    {
      "anonymous": false,
      "inputs": [
        {
          "indexed": true,
          "internalType": "address",
          "name": "owner",
          "type": "address"
        },
        {
          "indexed": true,
          "internalType": "address",
          "name": "approved",
          "type": "address"
        },
        {
          "indexed": true,
          "internalType": "uint256",
          "name": "tokenId",
          "type": "uint256"
        }
      ],
      "name": "Approval",
      "type": "event"
    },
    {
      "anonymous": false,
      "inputs": [
        {
          "indexed": true,
          "internalType": "address",
          "name": "owner",
          "type": "address"
        },
        {
          "indexed": true,
          "internalType": "address",
          "name": "operator",
          "type": "address"
        },
        {
          "indexed": false,
          "internalType": "bool",
          "name": "approved",
          "type": "bool"
        }
      ],
      "name": "ApprovalForAll",
      "type": "event"
    },
    {
      "anonymous": false,
      "inputs": [
        {
          "indexed": true,
          "internalType": "address",
          "name": "from",
          "type": "address"
        },
        {
          "indexed": true,
          "internalType": "address",
          "name": "to",
          "type": "address"
        },
        {
          "indexed": true,
          "internalType": "uint256",
          "name": "tokenId",
          "type": "uint256"
        }
      ],
      "name": "Transfer",
      "type": "event"
    },
    {
      "inputs": [
        {
          "internalType": "address",
          "name": "to",
          "type": "address"
        },
        {
          "internalType": "uint256",
          "name": "tokenId",
          "type": "uint256"
        }
      ],
      "name": "approve",
      "outputs": [],
      "stateMutability": "nonpayable",
      "type": "function"
    },
    {
      "inputs": [
        {
          "internalType": "address",
          "name": "owner",
          "type": "address"
        }
      ],
      "name": "balanceOf",
      "outputs": [
        {
          "internalType": "uint256",
          "name": "",
          "type": "uint256"
        }
      ],
      "stateMutability": "view",
      "type": "function"
    },
    {
      "inputs": [
        {
          "internalType": "uint256",
          "name": "tokenId",
          "type": "uint256"
        }
      ],
      "name": "getApproved",
      "outputs": [
        {
          "internalType": "address",
          "name": "",
          "type": "address"
        }
      ],
      "stateMutability": "view",
      "type": "function"
    },
    {
      "inputs": [
        {
          "internalType": "uint256",
          "name": "moddedRng",
          "type": "uint256"
        }
      ],
      "name": "getBreedWithModdedRng",
      "outputs": [
        {
          "internalType": "uint256",
          "name": "",
          "type": "uint256"
        }
      ],
      "stateMutability": "pure",
      "type": "function"
    },
    {
      "inputs": [],
      "name": "getChanceArray",
      "outputs": [
        {
          "internalType": "uint256[3]",
          "name": "",
          "type": "uint256[3]"
        }
      ],
      "stateMutability": "pure",
      "type": "function"
    },
    {
      "inputs": [
        {
          "internalType": "address",
          "name": "owner",
          "type": "address"
        },
        {
          "internalType": "address",
          "name": "operator",
          "type": "address"
        }
      ],
      "name": "isApprovedForAll",
      "outputs": [
        {
          "internalType": "bool",
          "name": "",
          "type": "bool"
        }
      ],
      "stateMutability": "view",
      "type": "function"
    },
    {
      "inputs": [],
      "name": "name",
      "outputs": [
        {
          "internalType": "string",
          "name": "",
          "type": "string"
        }
      ],
      "stateMutability": "view",
      "type": "function"
    },
    {
      "inputs": [
        {
          "internalType": "uint256",
          "name": "tokenId",
          "type": "uint256"
        }
      ],
      "name": "ownerOf",
      "outputs": [
        {
          "internalType": "address",
          "name": "",
          "type": "address"
        }
      ],
      "stateMutability": "view",
      "type": "function"
    },
    {
      "inputs": [
        {
          "internalType": "uint256",
          "name": "requestId",
          "type": "uint256"
        },
        {
          "internalType": "uint256[]",
          "name": "randomWords",
          "type": "uint256[]"
        }
      ],
      "name": "rawFulfillRandomWords",
      "outputs": [],
      "stateMutability": "nonpayable",
      "type": "function"
    },
    {
      "inputs": [],
      "name": "requestDoggie",
      "outputs": [
        {
          "internalType": "uint256",
          "name": "requestId",
          "type": "uint256"
        }
      ],
      "stateMutability": "nonpayable",
      "type": "function"
    },
    {
      "inputs": [
        {
          "internalType": "uint256",
          "name": "",
          "type": "uint256"
        }
      ],
      "name": "s_randomsWords",
      "outputs": [
        {
          "internalType": "uint256",
          "name": "",
          "type": "uint256"
        }
      ],
      "stateMutability": "view",
      "type": "function"
    },
    {
      "inputs": [
        {
          "internalType": "address",
          "name": "from",
          "type": "address"
        },
        {
          "internalType": "address",
          "name": "to",
          "type": "address"
        },
        {
          "internalType": "uint256",
          "name": "tokenId",
          "type": "uint256"
        }
      ],
      "name": "safeTransferFrom",
      "outputs": [],
      "stateMutability": "nonpayable",
      "type": "function"
    },
    {
      "inputs": [
        {
          "internalType": "address",
          "name": "from",
          "type": "address"
        },
        {
          "internalType": "address",
          "name": "to",
          "type": "address"
        },
        {
          "internalType": "uint256",
          "name": "tokenId",
          "type": "uint256"
        },
        {
          "internalType": "bytes",
          "name": "_data",
          "type": "bytes"
        }
      ],
      "name": "safeTransferFrom",
      "outputs": [],
      "stateMutability": "nonpayable",
      "type": "function"
    },
    {
      "inputs": [
        {
          "internalType": "address",
          "name": "operator",
          "type": "address"
        },
        {
          "internalType": "bool",
          "name": "approved",
          "type": "bool"
        }
      ],
      "name": "setApprovalForAll",
      "outputs": [],
      "stateMutability": "nonpayable",
      "type": "function"
    },
    {
      "inputs": [
        {
          "internalType": "bytes4",
          "name": "interfaceId",
          "type": "bytes4"
        }
      ],
      "name": "supportsInterface",
      "outputs": [
        {
          "internalType": "bool",
          "name": "",
          "type": "bool"
        }
      ],
      "stateMutability": "view",
      "type": "function"
    },
    {
      "inputs": [],
      "name": "symbol",
      "outputs": [
        {
          "internalType": "string",
          "name": "",
          "type": "string"
        }
      ],
      "stateMutability": "view",
      "type": "function"
    },
    {
      "inputs": [
        {
          "internalType": "uint256",
          "name": "tokenId",
          "type": "uint256"
        }
      ],
      "name": "tokenURI",
      "outputs": [
        {
          "internalType": "string",
          "name": "",
          "type": "string"
        }
      ],
      "stateMutability": "view",
      "type": "function"
    },
    {
      "inputs": [
        {
          "internalType": "address",
          "name": "from",
          "type": "address"
        },
        {
          "internalType": "address",
          "name": "to",
          "type": "address"
        },
        {
          "internalType": "uint256",
          "name": "tokenId",
          "type": "uint256"
        }
      ],
      "name": "transferFrom",
      "outputs": [],
      "stateMutability": "nonpayable",
      "type": "function"
    }
  ],
  "transactionHash": "0xeae11c06d93500e141618a48d79a626c2b0e0513780ea654a69dfb852528e675",
  "args": [
    "0x6168499c0cFfCaCD319c818142124B7A15E857ab",
    "0xd89b2bf150e3b9e13446986e571fb9cab24b13cea0a43ea20a6049a85cc807cc",
    "4012",
    "500000",
    [
      "ipfs://QmaVkBn2tKmjbhphU7eyztbvSQU5EXDdqRyXZtRhSGgJGo",
      "ipfs://QmYQC5aGZu2PTH8XzbJrbDnvhj3gVs7ya33H9mqUNvST3d",
      "ipfs://QmZYmH5iDbD6v3U2ixoVAjioSzvWJszDzYdbeCLquGSpVm"
    ]
  ],
  "numDeployments": 1,
  "solcInputHash": "e79e6a00512386add50c3e327039d3fb",
  "bytecode": "0x6101206040523480156200001257600080fd5b50604051620039b0380380620039b0833981810160405281019062000038919062000714565b846040518060400160405280600f81526020017f52616e646f6d2049504653204e465400000000000000000000000000000000008152506040518060400160405280600381526020017f52494e00000000000000000000000000000000000000000000000000000000008152508160009080519060200190620000bd929190620001ef565b508060019080519060200190620000d6929190620001ef565b5050508073ffffffffffffffffffffffffffffffffffffffff1660808173ffffffffffffffffffffffffffffffffffffffff1660601b81525050508473ffffffffffffffffffffffffffffffffffffffff1660a08173ffffffffffffffffffffffffffffffffffffffff1660601b815250508360c081815250508267ffffffffffffffff1660e08167ffffffffffffffff1660c01b815250508163ffffffff166101008163ffffffff1660e01b8152505033600760006101000a81548173ffffffffffffffffffffffffffffffffffffffff021916908373ffffffffffffffffffffffffffffffffffffffff1602179055506000600a8190555080600b906003620001e392919062000280565b50505050505062000820565b828054620001fd90620007ea565b90600052602060002090601f0160209004810192826200022157600085556200026d565b82601f106200023c57805160ff19168380011785556200026d565b828001600101855582156200026d579182015b828111156200026c5782518255916020019190600101906200024f565b5b5090506200027c9190620002da565b5090565b8260038101928215620002c7579160200282015b82811115620002c6578251829080519060200190620002b5929190620001ef565b509160200191906001019062000294565b5b509050620002d69190620002f9565b5090565b5b80821115620002f5576000816000905550600101620002db565b5090565b5b808211156200031d576000818162000313919062000321565b50600101620002fa565b5090565b5080546200032f90620007ea565b6000825580601f1062000343575062000364565b601f016020900490600052602060002090810190620003639190620002da565b5b50565b6000604051905090565b600080fd5b600080fd5b600073ffffffffffffffffffffffffffffffffffffffff82169050919050565b6000620003a8826200037b565b9050919050565b620003ba816200039b565b8114620003c657600080fd5b50565b600081519050620003da81620003af565b92915050565b6000819050919050565b620003f581620003e0565b81146200040157600080fd5b50565b6000815190506200041581620003ea565b92915050565b600067ffffffffffffffff82169050919050565b6200043a816200041b565b81146200044657600080fd5b50565b6000815190506200045a816200042f565b92915050565b600063ffffffff82169050919050565b6200047b8162000460565b81146200048757600080fd5b50565b6000815190506200049b8162000470565b92915050565b600080fd5b6000601f19601f8301169050919050565b7f4e487b7100000000000000000000000000000000000000000000000000000000600052604160045260246000fd5b620004f182620004a6565b810181811067ffffffffffffffff82111715620005135762000512620004b7565b5b80604052505050565b60006200052862000367565b9050620005368282620004e6565b919050565b600067ffffffffffffffff821115620005595762000558620004b7565b5b602082029050919050565b600080fd5b600080fd5b600067ffffffffffffffff8211156200058c576200058b620004b7565b5b6200059782620004a6565b9050602081019050919050565b60005b83811015620005c4578082015181840152602081019050620005a7565b83811115620005d4576000848401525b50505050565b6000620005f1620005eb846200056e565b6200051c565b90508281526020810184848401111562000610576200060f62000569565b5b6200061d848285620005a4565b509392505050565b600082601f8301126200063d576200063c620004a1565b5b81516200064f848260208601620005da565b91505092915050565b60006200066f62000669846200053b565b6200051c565b905080602084028301858111156200068c576200068b62000564565b5b835b81811015620006da57805167ffffffffffffffff811115620006b557620006b4620004a1565b5b808601620006c4898262000625565b855260208501945050506020810190506200068e565b5050509392505050565b600082601f830112620006fc57620006fb620004a1565b5b60036200070b84828562000658565b91505092915050565b600080600080600060a0868803121562000733576200073262000371565b5b60006200074388828901620003c9565b9550506020620007568882890162000404565b9450506040620007698882890162000449565b93505060606200077c888289016200048a565b925050608086015167ffffffffffffffff811115620007a0576200079f62000376565b5b620007ae88828901620006e4565b9150509295509295909350565b7f4e487b7100000000000000000000000000000000000000000000000000000000600052602260045260246000fd5b600060028204905060018216806200080357607f821691505b602082108114156200081a5762000819620007bb565b5b50919050565b60805160601c60a05160601c60c05160e05160c01c6101005160e01c6131386200087860003960006107e0015260006107bd0152600061079c015260006107600152600081816108cc015261092001526131386000f3fe608060405234801561001057600080fd5b50600436106101165760003560e01c80636352211e116100a2578063a22cb46511610071578063a22cb465146102f3578063a3ef64571461030f578063b88d4fde1461033f578063c87b56dd1461035b578063e985e9c51461038b57610116565b80636352211e1461024557806370a082311461027557806395d89b41146102a5578063a090dc31146102c357610116565b80631801cc8a116100e95780631801cc8a146101b55780631fe543e3146101d357806323b872dd146101ef57806342842e0e1461020b5780635dacf5f41461022757610116565b806301ffc9a71461011b57806306fdde031461014b578063081812fc14610169578063095ea7b314610199575b600080fd5b61013560048036038101906101309190611cbd565b6103bb565b6040516101429190611d05565b60405180910390f35b61015361049d565b6040516101609190611db9565b60405180910390f35b610183600480360381019061017e9190611e11565b61052f565b6040516101909190611e7f565b60405180910390f35b6101b360048036038101906101ae9190611ec6565b6105b4565b005b6101bd6106cc565b6040516101ca9190611f15565b60405180910390f35b6101ed60048036038101906101e89190612078565b6108ca565b005b610209600480360381019061020491906120d4565b61098a565b005b610225600480360381019061022091906120d4565b6109ea565b005b61022f610a0a565b60405161023c91906121d2565b60405180910390f35b61025f600480360381019061025a9190611e11565b610a35565b60405161026c9190611e7f565b60405180910390f35b61028f600480360381019061028a91906121ed565b610ae7565b60405161029c9190611f15565b60405180910390f35b6102ad610b9f565b6040516102ba9190611db9565b60405180910390f35b6102dd60048036038101906102d89190611e11565b610c31565b6040516102ea9190611f15565b60405180910390f35b61030d60048036038101906103089190612246565b610cd2565b005b61032960048036038101906103249190611e11565b610ce8565b6040516103369190611f15565b60405180910390f35b6103596004803603810190610354919061233b565b610d0c565b005b61037560048036038101906103709190611e11565b610d6e565b6040516103829190611db9565b60405180910390f35b6103a560048036038101906103a091906123be565b610ec0565b6040516103b29190611d05565b60405180910390f35b60007f80ac58cd000000000000000000000000000000000000000000000000000000007bffffffffffffffffffffffffffffffffffffffffffffffffffffffff1916827bffffffffffffffffffffffffffffffffffffffffffffffffffffffff1916148061048657507f5b5e139f000000000000000000000000000000000000000000000000000000007bffffffffffffffffffffffffffffffffffffffffffffffffffffffff1916827bffffffffffffffffffffffffffffffffffffffffffffffffffffffff1916145b80610496575061049582610f54565b5b9050919050565b6060600080546104ac9061242d565b80601f01602080910402602001604051908101604052809291908181526020018280546104d89061242d565b80156105255780601f106104fa57610100808354040283529160200191610525565b820191906000526020600020905b81548152906001019060200180831161050857829003601f168201915b5050505050905090565b600061053a82610fbe565b610579576040517f08c379a0000000000000000000000000000000000000000000000000000000008152600401610570906124d1565b60405180910390fd5b6004600083815260200190815260200160002060009054906101000a900473ffffffffffffffffffffffffffffffffffffffff169050919050565b60006105bf82610a35565b90508073ffffffffffffffffffffffffffffffffffffffff168373ffffffffffffffffffffffffffffffffffffffff161415610630576040517f08c379a000000000000000000000000000000000000000000000000000000000815260040161062790612563565b60405180910390fd5b8073ffffffffffffffffffffffffffffffffffffffff1661064f61102a565b73ffffffffffffffffffffffffffffffffffffffff16148061067e575061067d8161067861102a565b610ec0565b5b6106bd576040517f08c379a00000000000000000000000000000000000000000000000000000000081526004016106b4906125f5565b60405180910390fd5b6106c78383611032565b505050565b60003373ffffffffffffffffffffffffffffffffffffffff16600760009054906101000a900473ffffffffffffffffffffffffffffffffffffffff1673ffffffffffffffffffffffffffffffffffffffff161461075e576040517f08c379a000000000000000000000000000000000000000000000000000000000815260040161075590612687565b60405180910390fd5b7f000000000000000000000000000000000000000000000000000000000000000073ffffffffffffffffffffffffffffffffffffffff16635d3b1d307f00000000000000000000000000000000000000000000000000000000000000007f000000000000000000000000000000000000000000000000000000000000000060037f000000000000000000000000000000000000000000000000000000000000000060016040518663ffffffff1660e01b815260040161082195949392919061271f565b602060405180830381600087803b15801561083b57600080fd5b505af115801561084f573d6000803e3d6000fd5b505050506040513d601f19601f820116820180604052508101906108739190612787565b9050336009600083815260200190815260200160002060006101000a81548173ffffffffffffffffffffffffffffffffffffffff021916908373ffffffffffffffffffffffffffffffffffffffff16021790555090565b7f000000000000000000000000000000000000000000000000000000000000000073ffffffffffffffffffffffffffffffffffffffff163373ffffffffffffffffffffffffffffffffffffffff161461097c57337f00000000000000000000000000000000000000000000000000000000000000006040517f1cf993f40000000000000000000000000000000000000000000000000000000081526004016109739291906127b4565b60405180910390fd5b61098682826110eb565b5050565b61099b61099561102a565b82611227565b6109da576040517f08c379a00000000000000000000000000000000000000000000000000000000081526004016109d19061284f565b60405180910390fd5b6109e5838383611305565b505050565b610a0583838360405180602001604052806000815250610d0c565b505050565b610a12611b8c565b6040518060600160405280600a8152602001601e81526020016064815250905090565b6000806002600084815260200190815260200160002060009054906101000a900473ffffffffffffffffffffffffffffffffffffffff169050600073ffffffffffffffffffffffffffffffffffffffff168173ffffffffffffffffffffffffffffffffffffffff161415610ade576040517f08c379a0000000000000000000000000000000000000000000000000000000008152600401610ad5906128e1565b60405180910390fd5b80915050919050565b60008073ffffffffffffffffffffffffffffffffffffffff168273ffffffffffffffffffffffffffffffffffffffff161415610b58576040517f08c379a0000000000000000000000000000000000000000000000000000000008152600401610b4f90612973565b60405180910390fd5b600360008373ffffffffffffffffffffffffffffffffffffffff1673ffffffffffffffffffffffffffffffffffffffff168152602001908152602001600020549050919050565b606060018054610bae9061242d565b80601f0160208091040260200160405190810160405280929190818152602001828054610bda9061242d565b8015610c275780601f10610bfc57610100808354040283529160200191610c27565b820191906000526020600020905b815481529060010190602001808311610c0a57829003601f168201915b5050505050905090565b600080600090506000610c42610a0a565b905060005b6003811015610cc957828510158015610c815750818160038110610c6e57610c6d612993565b5b602002015183610c7e91906129f1565b85105b15610c9157809350505050610ccd565b818160038110610ca457610ca3612993565b5b602002015183610cb491906129f1565b92508080610cc190612a47565b915050610c47565b5050505b919050565b610ce4610cdd61102a565b838361156c565b5050565b60088181548110610cf857600080fd5b906000526020600020016000915090505481565b610d1d610d1761102a565b83611227565b610d5c576040517f08c379a0000000000000000000000000000000000000000000000000000000008152600401610d539061284f565b60405180910390fd5b610d68848484846116d9565b50505050565b6060610d7982610fbe565b610db8576040517f08c379a0000000000000000000000000000000000000000000000000000000008152600401610daf90612b02565b60405180910390fd5b6000600660008481526020019081526020016000208054610dd89061242d565b80601f0160208091040260200160405190810160405280929190818152602001828054610e049061242d565b8015610e515780601f10610e2657610100808354040283529160200191610e51565b820191906000526020600020905b815481529060010190602001808311610e3457829003601f168201915b505050505090506000610e62611735565b9050600081511415610e78578192505050610ebb565b600082511115610ead578082604051602001610e95929190612b5e565b60405160208183030381529060405292505050610ebb565b610eb68461174c565b925050505b919050565b6000600560008473ffffffffffffffffffffffffffffffffffffffff1673ffffffffffffffffffffffffffffffffffffffff16815260200190815260200160002060008373ffffffffffffffffffffffffffffffffffffffff1673ffffffffffffffffffffffffffffffffffffffff16815260200190815260200160002060009054906101000a900460ff16905092915050565b60007f01ffc9a7000000000000000000000000000000000000000000000000000000007bffffffffffffffffffffffffffffffffffffffffffffffffffffffff1916827bffffffffffffffffffffffffffffffffffffffffffffffffffffffff1916149050919050565b60008073ffffffffffffffffffffffffffffffffffffffff166002600084815260200190815260200160002060009054906101000a900473ffffffffffffffffffffffffffffffffffffffff1673ffffffffffffffffffffffffffffffffffffffff1614159050919050565b600033905090565b816004600083815260200190815260200160002060006101000a81548173ffffffffffffffffffffffffffffffffffffffff021916908373ffffffffffffffffffffffffffffffffffffffff160217905550808273ffffffffffffffffffffffffffffffffffffffff166110a583610a35565b73ffffffffffffffffffffffffffffffffffffffff167f8c5be1e5ebec7d5bd14f71427d1e84f3dd0314c0f7b2291e5b200ac8c7c3b92560405160405180910390a45050565b60006009600084815260200190815260200160002060009054906101000a900473ffffffffffffffffffffffffffffffffffffffff1690506000600a5490506001600a5461113991906129f1565b600a81905550600060648460008151811061115757611156612993565b5b60200260200101516111699190612bb1565b9050600061117682610c31565b905061121f83600b83600381106111905761118f612993565b5b01805461119c9061242d565b80601f01602080910402602001604051908101604052809291908181526020018280546111c89061242d565b80156112155780601f106111ea57610100808354040283529160200191611215565b820191906000526020600020905b8154815290600101906020018083116111f857829003601f168201915b50505050506117f3565b505050505050565b600061123282610fbe565b611271576040517f08c379a000000000000000000000000000000000000000000000000000000000815260040161126890612c54565b60405180910390fd5b600061127c83610a35565b90508073ffffffffffffffffffffffffffffffffffffffff168473ffffffffffffffffffffffffffffffffffffffff1614806112be57506112bd8185610ec0565b5b806112fc57508373ffffffffffffffffffffffffffffffffffffffff166112e48461052f565b73ffffffffffffffffffffffffffffffffffffffff16145b91505092915050565b8273ffffffffffffffffffffffffffffffffffffffff1661132582610a35565b73ffffffffffffffffffffffffffffffffffffffff161461137b576040517f08c379a000000000000000000000000000000000000000000000000000000000815260040161137290612ce6565b60405180910390fd5b600073ffffffffffffffffffffffffffffffffffffffff168273ffffffffffffffffffffffffffffffffffffffff1614156113eb576040517f08c379a00000000000000000000000000000000000000000000000000000000081526004016113e290612d78565b60405180910390fd5b6113f6838383611867565b611401600082611032565b6001600360008573ffffffffffffffffffffffffffffffffffffffff1673ffffffffffffffffffffffffffffffffffffffff16815260200190815260200160002060008282546114519190612d98565b925050819055506001600360008473ffffffffffffffffffffffffffffffffffffffff1673ffffffffffffffffffffffffffffffffffffffff16815260200190815260200160002060008282546114a891906129f1565b92505081905550816002600083815260200190815260200160002060006101000a81548173ffffffffffffffffffffffffffffffffffffffff021916908373ffffffffffffffffffffffffffffffffffffffff160217905550808273ffffffffffffffffffffffffffffffffffffffff168473ffffffffffffffffffffffffffffffffffffffff167fddf252ad1be2c89b69c2b068fc378daa952ba7f163c4a11628f55a4df523b3ef60405160405180910390a461156783838361186c565b505050565b8173ffffffffffffffffffffffffffffffffffffffff168373ffffffffffffffffffffffffffffffffffffffff1614156115db576040517f08c379a00000000000000000000000000000000000000000000000000000000081526004016115d290612e18565b60405180910390fd5b80600560008573ffffffffffffffffffffffffffffffffffffffff1673ffffffffffffffffffffffffffffffffffffffff16815260200190815260200160002060008473ffffffffffffffffffffffffffffffffffffffff1673ffffffffffffffffffffffffffffffffffffffff16815260200190815260200160002060006101000a81548160ff0219169083151502179055508173ffffffffffffffffffffffffffffffffffffffff168373ffffffffffffffffffffffffffffffffffffffff167f17307eab39ab6107e8899845ad3d59bd9653f200f220920489ca2b5937696c31836040516116cc9190611d05565b60405180910390a3505050565b6116e4848484611305565b6116f084848484611871565b61172f576040517f08c379a000000000000000000000000000000000000000000000000000000000815260040161172690612eaa565b60405180910390fd5b50505050565b606060405180602001604052806000815250905090565b606061175782610fbe565b611796576040517f08c379a000000000000000000000000000000000000000000000000000000000815260040161178d90612f3c565b60405180910390fd5b60006117a0611735565b905060008151116117c057604051806020016040528060008152506117eb565b806117ca84611a08565b6040516020016117db929190612b5e565b6040516020818303038152906040525b915050919050565b6117fc82610fbe565b61183b576040517f08c379a000000000000000000000000000000000000000000000000000000000815260040161183290612fce565b60405180910390fd5b80600660008481526020019081526020016000209080519060200190611862929190611bae565b505050565b505050565b505050565b60006118928473ffffffffffffffffffffffffffffffffffffffff16611b69565b156119fb578373ffffffffffffffffffffffffffffffffffffffff1663150b7a026118bb61102a565b8786866040518563ffffffff1660e01b81526004016118dd9493929190613043565b602060405180830381600087803b1580156118f757600080fd5b505af192505050801561192857506040513d601f19601f8201168201806040525081019061192591906130a4565b60015b6119ab573d8060008114611958576040519150601f19603f3d011682016040523d82523d6000602084013e61195d565b606091505b506000815114156119a3576040517f08c379a000000000000000000000000000000000000000000000000000000000815260040161199a90612eaa565b60405180910390fd5b805181602001fd5b63150b7a0260e01b7bffffffffffffffffffffffffffffffffffffffffffffffffffffffff1916817bffffffffffffffffffffffffffffffffffffffffffffffffffffffff191614915050611a00565b600190505b949350505050565b60606000821415611a50576040518060400160405280600181526020017f30000000000000000000000000000000000000000000000000000000000000008152509050611b64565b600082905060005b60008214611a82578080611a6b90612a47565b915050600a82611a7b91906130d1565b9150611a58565b60008167ffffffffffffffff811115611a9e57611a9d611f35565b5b6040519080825280601f01601f191660200182016040528015611ad05781602001600182028036833780820191505090505b5090505b60008514611b5d57600182611ae99190612d98565b9150600a85611af89190612bb1565b6030611b0491906129f1565b60f81b818381518110611b1a57611b19612993565b5b60200101907effffffffffffffffffffffffffffffffffffffffffffffffffffffffffffff1916908160001a905350600a85611b5691906130d1565b9450611ad4565b8093505050505b919050565b6000808273ffffffffffffffffffffffffffffffffffffffff163b119050919050565b6040518060600160405280600390602082028036833780820191505090505090565b828054611bba9061242d565b90600052602060002090601f016020900481019282611bdc5760008555611c23565b82601f10611bf557805160ff1916838001178555611c23565b82800160010185558215611c23579182015b82811115611c22578251825591602001919060010190611c07565b5b509050611c309190611c34565b5090565b5b80821115611c4d576000816000905550600101611c35565b5090565b6000604051905090565b600080fd5b600080fd5b60007fffffffff0000000000000000000000000000000000000000000000000000000082169050919050565b611c9a81611c65565b8114611ca557600080fd5b50565b600081359050611cb781611c91565b92915050565b600060208284031215611cd357611cd2611c5b565b5b6000611ce184828501611ca8565b91505092915050565b60008115159050919050565b611cff81611cea565b82525050565b6000602082019050611d1a6000830184611cf6565b92915050565b600081519050919050565b600082825260208201905092915050565b60005b83811015611d5a578082015181840152602081019050611d3f565b83811115611d69576000848401525b50505050565b6000601f19601f8301169050919050565b6000611d8b82611d20565b611d958185611d2b565b9350611da5818560208601611d3c565b611dae81611d6f565b840191505092915050565b60006020820190508181036000830152611dd38184611d80565b905092915050565b6000819050919050565b611dee81611ddb565b8114611df957600080fd5b50565b600081359050611e0b81611de5565b92915050565b600060208284031215611e2757611e26611c5b565b5b6000611e3584828501611dfc565b91505092915050565b600073ffffffffffffffffffffffffffffffffffffffff82169050919050565b6000611e6982611e3e565b9050919050565b611e7981611e5e565b82525050565b6000602082019050611e946000830184611e70565b92915050565b611ea381611e5e565b8114611eae57600080fd5b50565b600081359050611ec081611e9a565b92915050565b60008060408385031215611edd57611edc611c5b565b5b6000611eeb85828601611eb1565b9250506020611efc85828601611dfc565b9150509250929050565b611f0f81611ddb565b82525050565b6000602082019050611f2a6000830184611f06565b92915050565b600080fd5b7f4e487b7100000000000000000000000000000000000000000000000000000000600052604160045260246000fd5b611f6d82611d6f565b810181811067ffffffffffffffff82111715611f8c57611f8b611f35565b5b80604052505050565b6000611f9f611c51565b9050611fab8282611f64565b919050565b600067ffffffffffffffff821115611fcb57611fca611f35565b5b602082029050602081019050919050565b600080fd5b6000611ff4611fef84611fb0565b611f95565b9050808382526020820190506020840283018581111561201757612016611fdc565b5b835b81811015612040578061202c8882611dfc565b845260208401935050602081019050612019565b5050509392505050565b600082601f83011261205f5761205e611f30565b5b813561206f848260208601611fe1565b91505092915050565b6000806040838503121561208f5761208e611c5b565b5b600061209d85828601611dfc565b925050602083013567ffffffffffffffff8111156120be576120bd611c60565b5b6120ca8582860161204a565b9150509250929050565b6000806000606084860312156120ed576120ec611c5b565b5b60006120fb86828701611eb1565b935050602061210c86828701611eb1565b925050604061211d86828701611dfc565b9150509250925092565b600060039050919050565b600081905092915050565b6000819050919050565b61215081611ddb565b82525050565b60006121628383612147565b60208301905092915050565b6000602082019050919050565b61218481612127565b61218e8184612132565b92506121998261213d565b8060005b838110156121ca5781516121b18782612156565b96506121bc8361216e565b92505060018101905061219d565b505050505050565b60006060820190506121e7600083018461217b565b92915050565b60006020828403121561220357612202611c5b565b5b600061221184828501611eb1565b91505092915050565b61222381611cea565b811461222e57600080fd5b50565b6000813590506122408161221a565b92915050565b6000806040838503121561225d5761225c611c5b565b5b600061226b85828601611eb1565b925050602061227c85828601612231565b9150509250929050565b600080fd5b600067ffffffffffffffff8211156122a6576122a5611f35565b5b6122af82611d6f565b9050602081019050919050565b82818337600083830152505050565b60006122de6122d98461228b565b611f95565b9050828152602081018484840111156122fa576122f9612286565b5b6123058482856122bc565b509392505050565b600082601f83011261232257612321611f30565b5b81356123328482602086016122cb565b91505092915050565b6000806000806080858703121561235557612354611c5b565b5b600061236387828801611eb1565b945050602061237487828801611eb1565b935050604061238587828801611dfc565b925050606085013567ffffffffffffffff8111156123a6576123a5611c60565b5b6123b28782880161230d565b91505092959194509250565b600080604083850312156123d5576123d4611c5b565b5b60006123e385828601611eb1565b92505060206123f485828601611eb1565b9150509250929050565b7f4e487b7100000000000000000000000000000000000000000000000000000000600052602260045260246000fd5b6000600282049050600182168061244557607f821691505b60208210811415612459576124586123fe565b5b50919050565b7f4552433732313a20617070726f76656420717565727920666f72206e6f6e657860008201527f697374656e7420746f6b656e0000000000000000000000000000000000000000602082015250565b60006124bb602c83611d2b565b91506124c68261245f565b604082019050919050565b600060208201905081810360008301526124ea816124ae565b9050919050565b7f4552433732313a20617070726f76616c20746f2063757272656e74206f776e6560008201527f7200000000000000000000000000000000000000000000000000000000000000602082015250565b600061254d602183611d2b565b9150612558826124f1565b604082019050919050565b6000602082019050818103600083015261257c81612540565b9050919050565b7f4552433732313a20617070726f76652063616c6c6572206973206e6f74206f7760008201527f6e6572206e6f7220617070726f76656420666f7220616c6c0000000000000000602082015250565b60006125df603883611d2b565b91506125ea82612583565b604082019050919050565b6000602082019050818103600083015261260e816125d2565b9050919050565b7f4e65656420746f2062652061206f776e657220746f207265717565737420646f60008201527f6767696500000000000000000000000000000000000000000000000000000000602082015250565b6000612671602483611d2b565b915061267c82612615565b604082019050919050565b600060208201905081810360008301526126a081612664565b9050919050565b6000819050919050565b6126ba816126a7565b82525050565b600067ffffffffffffffff82169050919050565b6126dd816126c0565b82525050565b600061ffff82169050919050565b6126fa816126e3565b82525050565b600063ffffffff82169050919050565b61271981612700565b82525050565b600060a08201905061273460008301886126b1565b61274160208301876126d4565b61274e60408301866126f1565b61275b6060830185612710565b6127686080830184612710565b9695505050505050565b60008151905061278181611de5565b92915050565b60006020828403121561279d5761279c611c5b565b5b60006127ab84828501612772565b91505092915050565b60006040820190506127c96000830185611e70565b6127d66020830184611e70565b9392505050565b7f4552433732313a207472616e736665722063616c6c6572206973206e6f74206f60008201527f776e6572206e6f7220617070726f766564000000000000000000000000000000602082015250565b6000612839603183611d2b565b9150612844826127dd565b604082019050919050565b600060208201905081810360008301526128688161282c565b9050919050565b7f4552433732313a206f776e657220717565727920666f72206e6f6e657869737460008201527f656e7420746f6b656e0000000000000000000000000000000000000000000000602082015250565b60006128cb602983611d2b565b91506128d68261286f565b604082019050919050565b600060208201905081810360008301526128fa816128be565b9050919050565b7f4552433732313a2062616c616e636520717565727920666f7220746865207a6560008201527f726f206164647265737300000000000000000000000000000000000000000000602082015250565b600061295d602a83611d2b565b915061296882612901565b604082019050919050565b6000602082019050818103600083015261298c81612950565b9050919050565b7f4e487b7100000000000000000000000000000000000000000000000000000000600052603260045260246000fd5b7f4e487b7100000000000000000000000000000000000000000000000000000000600052601160045260246000fd5b60006129fc82611ddb565b9150612a0783611ddb565b9250827fffffffffffffffffffffffffffffffffffffffffffffffffffffffffffffffff03821115612a3c57612a3b6129c2565b5b828201905092915050565b6000612a5282611ddb565b91507fffffffffffffffffffffffffffffffffffffffffffffffffffffffffffffffff821415612a8557612a846129c2565b5b600182019050919050565b7f45524337323155524953746f726167653a2055524920717565727920666f722060008201527f6e6f6e6578697374656e7420746f6b656e000000000000000000000000000000602082015250565b6000612aec603183611d2b565b9150612af782612a90565b604082019050919050565b60006020820190508181036000830152612b1b81612adf565b9050919050565b600081905092915050565b6000612b3882611d20565b612b428185612b22565b9350612b52818560208601611d3c565b80840191505092915050565b6000612b6a8285612b2d565b9150612b768284612b2d565b91508190509392505050565b7f4e487b7100000000000000000000000000000000000000000000000000000000600052601260045260246000fd5b6000612bbc82611ddb565b9150612bc783611ddb565b925082612bd757612bd6612b82565b5b828206905092915050565b7f4552433732313a206f70657261746f7220717565727920666f72206e6f6e657860008201527f697374656e7420746f6b656e0000000000000000000000000000000000000000602082015250565b6000612c3e602c83611d2b565b9150612c4982612be2565b604082019050919050565b60006020820190508181036000830152612c6d81612c31565b9050919050565b7f4552433732313a207472616e736665722066726f6d20696e636f72726563742060008201527f6f776e6572000000000000000000000000000000000000000000000000000000602082015250565b6000612cd0602583611d2b565b9150612cdb82612c74565b604082019050919050565b60006020820190508181036000830152612cff81612cc3565b9050919050565b7f4552433732313a207472616e7366657220746f20746865207a65726f2061646460008201527f7265737300000000000000000000000000000000000000000000000000000000602082015250565b6000612d62602483611d2b565b9150612d6d82612d06565b604082019050919050565b60006020820190508181036000830152612d9181612d55565b9050919050565b6000612da382611ddb565b9150612dae83611ddb565b925082821015612dc157612dc06129c2565b5b828203905092915050565b7f4552433732313a20617070726f766520746f2063616c6c657200000000000000600082015250565b6000612e02601983611d2b565b9150612e0d82612dcc565b602082019050919050565b60006020820190508181036000830152612e3181612df5565b9050919050565b7f4552433732313a207472616e7366657220746f206e6f6e20455243373231526560008201527f63656976657220696d706c656d656e7465720000000000000000000000000000602082015250565b6000612e94603283611d2b565b9150612e9f82612e38565b604082019050919050565b60006020820190508181036000830152612ec381612e87565b9050919050565b7f4552433732314d657461646174613a2055524920717565727920666f72206e6f60008201527f6e6578697374656e7420746f6b656e0000000000000000000000000000000000602082015250565b6000612f26602f83611d2b565b9150612f3182612eca565b604082019050919050565b60006020820190508181036000830152612f5581612f19565b9050919050565b7f45524337323155524953746f726167653a2055524920736574206f66206e6f6e60008201527f6578697374656e7420746f6b656e000000000000000000000000000000000000602082015250565b6000612fb8602e83611d2b565b9150612fc382612f5c565b604082019050919050565b60006020820190508181036000830152612fe781612fab565b9050919050565b600081519050919050565b600082825260208201905092915050565b600061301582612fee565b61301f8185612ff9565b935061302f818560208601611d3c565b61303881611d6f565b840191505092915050565b60006080820190506130586000830187611e70565b6130656020830186611e70565b6130726040830185611f06565b8181036060830152613084818461300a565b905095945050505050565b60008151905061309e81611c91565b92915050565b6000602082840312156130ba576130b9611c5b565b5b60006130c88482850161308f565b91505092915050565b60006130dc82611ddb565b91506130e783611ddb565b9250826130f7576130f6612b82565b5b82820490509291505056fea26469706673582212202025145c61dec441aa29cdad538ee0157c6ffa36a8a29a238958ed54d566ed1364736f6c63430008080033",
  "devdoc": {
    "kind": "dev",
    "methods": {
      "approve(address,uint256)": {
        "details": "See {IERC721-approve}."
      },
      "balanceOf(address)": {
        "details": "See {IERC721-balanceOf}."
      },
      "getApproved(uint256)": {
        "details": "See {IERC721-getApproved}."
      },
      "isApprovedForAll(address,address)": {
        "details": "See {IERC721-isApprovedForAll}."
      },
      "name()": {
        "details": "See {IERC721Metadata-name}."
      },
      "ownerOf(uint256)": {
        "details": "See {IERC721-ownerOf}."
      },
      "safeTransferFrom(address,address,uint256)": {
        "details": "See {IERC721-safeTransferFrom}."
      },
      "safeTransferFrom(address,address,uint256,bytes)": {
        "details": "See {IERC721-safeTransferFrom}."
      },
      "setApprovalForAll(address,bool)": {
        "details": "See {IERC721-setApprovalForAll}."
      },
      "supportsInterface(bytes4)": {
        "details": "See {IERC165-supportsInterface}."
      },
      "symbol()": {
        "details": "See {IERC721Metadata-symbol}."
      },
      "tokenURI(uint256)": {
        "details": "See {IERC721Metadata-tokenURI}."
      },
      "transferFrom(address,address,uint256)": {
        "details": "See {IERC721-transferFrom}."
      }
    },
    "version": 1
  },
  "userdoc": {
    "kind": "user",
    "methods": {},
    "version": 1
  },
  "storageLayout": {
    "storage": [
      {
        "astId": 846,
        "contract": "contracts/RandomIpfsNFT.sol:RandomIpfsNFT",
        "label": "_name",
        "offset": 0,
        "slot": "0",
        "type": "t_string_storage"
      },
      {
        "astId": 848,
        "contract": "contracts/RandomIpfsNFT.sol:RandomIpfsNFT",
        "label": "_symbol",
        "offset": 0,
        "slot": "1",
        "type": "t_string_storage"
      },
      {
        "astId": 852,
        "contract": "contracts/RandomIpfsNFT.sol:RandomIpfsNFT",
        "label": "_owners",
        "offset": 0,
        "slot": "2",
        "type": "t_mapping(t_uint256,t_address)"
      },
      {
        "astId": 856,
        "contract": "contracts/RandomIpfsNFT.sol:RandomIpfsNFT",
        "label": "_balances",
        "offset": 0,
        "slot": "3",
        "type": "t_mapping(t_address,t_uint256)"
      },
      {
        "astId": 860,
        "contract": "contracts/RandomIpfsNFT.sol:RandomIpfsNFT",
        "label": "_tokenApprovals",
        "offset": 0,
        "slot": "4",
        "type": "t_mapping(t_uint256,t_address)"
      },
      {
        "astId": 866,
        "contract": "contracts/RandomIpfsNFT.sol:RandomIpfsNFT",
        "label": "_operatorApprovals",
        "offset": 0,
        "slot": "5",
        "type": "t_mapping(t_address,t_mapping(t_address,t_bool))"
      },
      {
        "astId": 1833,
        "contract": "contracts/RandomIpfsNFT.sol:RandomIpfsNFT",
        "label": "_tokenURIs",
        "offset": 0,
        "slot": "6",
        "type": "t_mapping(t_uint256,t_string_storage)"
      },
      {
        "astId": 2560,
        "contract": "contracts/RandomIpfsNFT.sol:RandomIpfsNFT",
        "label": "s_owner",
        "offset": 0,
        "slot": "7",
        "type": "t_address"
      },
      {
        "astId": 2563,
        "contract": "contracts/RandomIpfsNFT.sol:RandomIpfsNFT",
        "label": "s_randomsWords",
        "offset": 0,
        "slot": "8",
        "type": "t_array(t_uint256)dyn_storage"
      },
      {
        "astId": 2567,
        "contract": "contracts/RandomIpfsNFT.sol:RandomIpfsNFT",
        "label": "s_requestIdToSender",
        "offset": 0,
        "slot": "9",
        "type": "t_mapping(t_uint256,t_address)"
      },
      {
        "astId": 2569,
        "contract": "contracts/RandomIpfsNFT.sol:RandomIpfsNFT",
        "label": "s_tokenCounter",
        "offset": 0,
        "slot": "10",
        "type": "t_uint256"
      },
      {
        "astId": 2573,
        "contract": "contracts/RandomIpfsNFT.sol:RandomIpfsNFT",
        "label": "s_dogTokensUri",
        "offset": 0,
        "slot": "11",
        "type": "t_array(t_string_storage)3_storage"
      }
    ],
    "types": {
      "t_address": {
        "encoding": "inplace",
        "label": "address",
        "numberOfBytes": "20"
      },
      "t_array(t_string_storage)3_storage": {
        "base": "t_string_storage",
        "encoding": "inplace",
        "label": "string[3]",
        "numberOfBytes": "96"
      },
      "t_array(t_uint256)dyn_storage": {
        "base": "t_uint256",
        "encoding": "dynamic_array",
        "label": "uint256[]",
        "numberOfBytes": "32"
      },
      "t_bool": {
        "encoding": "inplace",
        "label": "bool",
        "numberOfBytes": "1"
      },
      "t_mapping(t_address,t_bool)": {
        "encoding": "mapping",
        "key": "t_address",
        "label": "mapping(address => bool)",
        "numberOfBytes": "32",
        "value": "t_bool"
      },
      "t_mapping(t_address,t_mapping(t_address,t_bool))": {
        "encoding": "mapping",
        "key": "t_address",
        "label": "mapping(address => mapping(address => bool))",
        "numberOfBytes": "32",
        "value": "t_mapping(t_address,t_bool)"
      },
      "t_mapping(t_address,t_uint256)": {
        "encoding": "mapping",
        "key": "t_address",
        "label": "mapping(address => uint256)",
        "numberOfBytes": "32",
        "value": "t_uint256"
      },
      "t_mapping(t_uint256,t_address)": {
        "encoding": "mapping",
        "key": "t_uint256",
        "label": "mapping(uint256 => address)",
        "numberOfBytes": "32",
        "value": "t_address"
      },
      "t_mapping(t_uint256,t_string_storage)": {
        "encoding": "mapping",
        "key": "t_uint256",
        "label": "mapping(uint256 => string)",
        "numberOfBytes": "32",
        "value": "t_string_storage"
      },
      "t_string_storage": {
        "encoding": "bytes",
        "label": "string",
        "numberOfBytes": "32"
      },
      "t_uint256": {
        "encoding": "inplace",
        "label": "uint256",
        "numberOfBytes": "32"
      }
    }
  }
}